:10000000E8C0F6C20BC10AC109C108C107C106C1D7
:1000100005C104C103C117C240C200C1FFC0FEC078
:10002000FDC0FCC0FBC00020746F6F206D7563685D
:1000300020696E70757400554E4B4E4F574E2043DD
:100040004F4D4D414E440053454C4654455354008A
:10005000207A65727761730048454C4C4F004745E4
:10006000540053455400206661696C656420746FC8
:1000700020706172736520737472696E673B2069CA
:100080006E70757420656D70747900554E4B4E4FCF
:10009000574E20434F4D4D414E44004F55545055FF
:1000A000540048554D4944495459534554504F49BB
:1000B0004E540054454D50534554504F494E5400F2
:1000C00054494D45520044415954494D4500544905
:1000D0004D450020696E76616C69642074696D65B8
:1000E00020666F726D6174002074696D65206D7596
:1000F000737420626520696E2068683A6D6D3A738A
:100100007320666F726D6174210020706172736577
:100110005F696E74206661696C656400554E4B4E74
:100120004F574E20434F4D4D414E4400564552537C
:10013000494F4E004F5554505554530048554D4962
:1001400044495459534554504F494E540048554D15
:1001500049444954590054454D50534554504F4912
:100160004E540054454D500054494D45525300449F
:10017000415954494D450054494D45004F5554503F
:1001800055545F48454154494E475F574952450DC4
:100190000A004F55545055545F48454154494E4705
:1001A0005F4C414D500D0A004F55545055545F4619
:1001B0004F474745520D0A004F55545055545F4C18
:1001C000320D0A004F55545055545F4C310D0A0002
:1001D0001F0211241FBECFE5D4E0DEBFCDBF11E06A
:1001E000A0E6B0E0E6E4F9E102C005900D92A43784
:1001F000B107D9F712E0A4E7B1E001C01D92A03227
:10020000B107E1F711E0C2EDD1E003C02297FE0192
:100210005DDBC03DD107D1F758D093CBF1CE1F9312
:10022000482FFB0164E61DDB182F282F30E08CE9F6
:100230009FEFB901689F9001699F300D789F300D45
:100240001124C901840F911D6AE070E016DB420F92
:1002500086EF9FEF689F802D1124840F112341F0BA
:10026000105D1083605D6183805D828313820AC0AC
:10027000805D662329F0605D60838183128202C005
:1002800080831182CF011F910895482FFB016AE0FE
:10029000E8DA805D80838053405D26EF3FEF829FE8
:1002A000802D1124840F81831282CF010895FC01D7
:1002B00080E02AE005C0829F802D1124890F3196AD
:1002C000908190539A30B8F30895CF92DF92EF92D5
:1002D000FF920F931F9388EE93E024E131E0F90140
:1002E0003197F1F70197D9F737D47894D7D28FEFB8
:1002F00081BB87BB84BB15BA6ED198D22ED3EED307
:1003000081E0DFD2ABD57FD5E9D980E690E028D176
:10031000CC24DD24F6D021E08030920709F081D68C
:100320004FD1882369F081E0C0D28093740160913D
:10033000F8017091F9018091FA019091FB01D0D1FF
:100340008091F0019091F101A091F201B091F3013F
:10035000E090F401F090F5010091F6011091F701A1
:100360002091F8013091F9014091FA015091FB017F
:100370008E159F05A007B10798F4281739074A077B
:100380005B0718F480E090E019C090E0E216F306F5
:100390000407150708F491E081E09827892F0EC023
:1003A000281739074A075B0738F480E090E0E21627
:1003B000F3060407150710F081E090E0482F813024
:1003C00011F013E001C014E0E42FF0E0CC2041F480
:1003D00090917401E551FE4F8081981778F40CC01C
:1003E00020917401E551FE4F8081CC2430E090E0F3
:1003F00001968217930714F0CC24C394E42FF0E005
:10040000DD2041F49091EF01E351FE4F8081981778
:1004100078F40CC02091EF01E351FE4F8081DD2480
:1004200030E090E005968217930714F0DD24D39412
:100430008D2D62E0FFD18C2D612FFCD16BCF81E13E
:1004400090E050D008951F920F920FB60F92112492
:100450002F938F939F93EF93FF939BB12CB1E091D8
:10046000B701EF5FEF718091B801E81711F482E0F6
:1004700008C0892F8871E093B701F0E0EB56FE4F7A
:1004800020838093B901FF91EF919F918F912F91DC
:100490000F900FBE0F901F9018951F920F920FB6DE
:1004A0000F9211248F939F93EF93FF939091B50137
:1004B0008091B601981761F0E091B601EF5FEF719E
:1004C000E093B601F0E0EB58FE4F80818CB901C09B
:1004D0005598FF91EF919F918F910F900FBE0F90C4
:1004E0001F9018951092B5011092B6011092B701A5
:1004F0001092B80190BD89B988E98AB986E880BDB3
:1005000008959091B7018091B801981719F420E0EF
:1005100031E012C0E091B801EF5FEF71E093B801F4
:10052000F0E0EB56FE4F30812091B901922F80E030
:10053000AC01430F511D9A01C9010895282F9091D4
:10054000B5019F5F9F718091B6019817E1F3E92F84
:10055000F0E0EB58FE4F20839093B501559A089533
:10056000DC0111C09091B5019F5F9F718091B60130
:100570009817E1F31196E92FF0E0EB58FE4F208336
:100580009093B501559A2C91222361F70895AC01FF
:1005900010C02091B5012F5F2F718091B6012817EF
:1005A000E1F3E22FF0E0EB58FE4F90832093B5018A
:1005B000559AFA014F5F5F4F9491992351F708952F
:1005C0008091BA01882331F08091BA0181508093E3
:1005D000BA0181E008958DE790E0C2DF8A9885B77F
:1005E000836085BF8BB780648BBF1092BA0108957A
:1005F0001F920F920FB60F9211242F933F934F9398
:100600005F936F937F938F939F93AF93BF93EF937A
:10061000FF938091BA018F5F8093BA01F2D160930A
:10062000F8017093F9018093FA019093FB01FF9117
:10063000EF91BF91AF919F918F917F916F915F915A
:100640004F913F912F910F900FBE0F901F901895D3
:100650009C01E199FECF3FBB2EBB6DBB0FB6F8945A
:10066000E29AE19A0FBE0895CF92EF920F931F93F3
:10067000A82FB0E0FD0193E0EE0FFF1F9A95E1F780
:10068000EA0FFB1FE450FE4F408351836283738364
:100690000483158326833783CC2011F490E001C0B6
:1006A00090E89E29FD0123E0EE0FFF1F2A95E1F758
:1006B000EA0FFB1FE450FE4F908769E0869FB00170
:1006C0001124CB01845F9F4F64507E4F49E050E07E
:1006D00028E233E0ACD81F910F91EF90CF900895AE
:1006E000AF92BF92CF92DF92EF92FF920F931F9340
:1006F000CF93DF93BB24CC2460E070E0C1E0D0E076
:10070000AA24A394FB0133E0EE0FFF1F3A95E1F713
:10071000E60FF71FE450FE4F808587FF58C0D08456
:10072000808587FD02C030E035C080819181A28143
:10073000B381E480F580068117812091F801309122
:10074000F9014091FA015091FB018E159F05A00718
:10075000B10788F4281739074A075B0718F480E0C7
:1007600090E017C080E0E216F3060407150708F4CE
:1007700081E08A250EC0281739074A075B0738F43D
:1007800080E090E0E216F3060407150710F081E020
:1007900090E0382F8FE7D822CE0102C0880F991F32
:1007A000DA94E2F7C82AFB0123E0EE0FFF1F2A9537
:1007B000E1F7E60FF71FE450FE4F2085832F90E00E
:1007C0002F7702C0880F991F2A95E2F7B82A6F5F2A
:1007D0007F4F6430710509F095CF00E010E0EC2CFC
:1007E000FF24C1E0D0E0C701002E02C09595879597
:1007F0000A94E2F780FF0AC0CE01002E02C0880FE3
:10080000991F0A94E2F78B21602F14D00F5F1F4FBE
:100810000830110541F7DF91CF911F910F91FF90A3
:10082000EF90DF90CF90BF90AF9008958DE890E06B
:1008300097DE0895623071F0633028F46623A1F0EA
:10084000613071F405C0633039F0643049F406C09A
:1008500034E00BC033E009C032E007C031E005C02E
:1008600083EA90E07DDE089535E0882359F028B3CF
:1008700081E090E002C0880F991F3A95E2F7282B9B
:1008800028BB089528B381E090E002C0880F991F2B
:100890003A95E2F78095822388BB089589EB90E032
:1008A0005FDE87B38E6387BB08951F93182F1FD019
:1008B000812F885B25D043D0182F1FD0812F1F9107
:1008C00008951F93182F8CEC90E04ADE185B0FD030
:1008D000812F1FD081E02CD080E62AD00ED007D007
:1008E000812F17D080E024D008D01F91089584EA8A
:1008F00086BF06B607FEFDCF089584E986BF08953A
:10090000880F8F5F83B984E886BF06B607FEFDCFE8
:100910000895880F83B984E886BF06B607FEFDCF29
:10092000089583B984E886BF06B607FEFDCF089513
:1009300083B984E886BF06B607FEFDCF089584E834
:1009400086BF06B607FEFDCF83B1089584EC86BF4F
:1009500006B607FEFDCF83B108958EED90E000DE70
:1009600084B38F7C84BB85B3806385BB85E086BF01
:100970008AE080B981B18C7F81B90895382F6AE00F
:1009800070D7282F2F7086EF9FEF289F802D11247E
:10099000830F8F702295207F820F0895FF920F930F
:1009A0001F93F82E062F142FA2DF88E6B2DF80E017
:1009B000BFDF812FE3DF8F77BBDF802FDFDFB8DF83
:1009C0008F2DDCDFB5DF99DF1F910F91FF90089528
:1009D000FF920F931F93F82E062F142F88DF88E6BF
:1009E00098DF84E0A5DF812FC9DFA2DF802FC6DF7B
:1009F0009FDF8F2DC3DF9CDF80DF1F910F91FF9062
:100A000008959F92AF92BF92CF92DF92EF92FF92A2
:100A10000F931F936CDF88E67CDF80E089DF6DDF5A
:100A200066DF88E66DDF92DF982E90DFA82E87DFE5
:100A3000E82E63DF8E2D82958F7090E09C01B3E0ED
:100A4000220F331FBA95E1F7880F991F280F391F1E
:100A50008FE0E822E20EFF2400E010E08701FF248F
:100A6000EE248A2D82958F7090E09C01E3E0220FA6
:100A7000331FEA95E1F7880F991F280F391F8FE080
:100A8000A822A20EBB24CC24DD24DC2CCB2CBA2C37
:100A9000AA24EA0CFB1C0C1D1D1D892D82958F704C
:100AA00090E09C0153E0220F331F5A95E1F7880F25
:100AB000991F280F391F8FE09822920EE90CF11C24
:100AC000011D111DB701C8011F910F91FF90EF90FB
:100AD000DF90CF90BF90AF909F9008951F938DEEC1
:100AE00090E03EDD04DF88E614DF80E021DF05DFF3
:100AF000FEDE88E605DF23DF182FFFDE17FF16C0B6
:100B0000F6DE88E606DF80E013DF80E011DF80E0BC
:100B10000FDF80E00DDF80E00BDF80E009DF80E0A9
:100B200007DF80E005DF80E103DFE7DE1F91089546
:100B30009C01E199FECF3FBB2EBBE09A8DB3089597
:100B40009C01E199FECF3FBB2EBB6DBB0FB6F89465
:100B5000E29AE19A0FBE0895AF92BF92CF92DF92D0
:100B6000EF92FF920F931F93DF93CF93CDB7DEB732
:100B700028970FB6F894DEBF0FBECDBF8FEF90E081
:100B8000EFDCE199FECF30E3A32E30E0B32EBFBA05
:100B9000AEBAE09A8DB3853A09F499C080E090E04E
:100BA000A8E0B0E089839A83AB83BC8380E090E0C7
:100BB000A4E1B0E08D839E83AF83B88700E010E0AE
:100BC000EE24FF246E010894C11CD11CF601EE0D29
:100BD000FF1D80819181A281B381F801EE0FFF1F7B
:100BE000EE0FFF1FE051FE4F80839183A283B383FA
:100BF000F801E551FE4F1082E081E199FECFC80176
:100C0000805090409FBB8EBBEDBB0FB6F894E29A2C
:100C1000E19A0FBEF801E351FE4F1082E081E199A5
:100C2000FECFC8018E5F9F4F9FBB8EBBEDBB0FB643
:100C3000F894E29AE19A0FBEB70160517E4FC70166
:100C40008C5F9F4F44E050E020EA35E0F0D50F5F25
:100C50001F4F84E090E0E80EF91E0230110509F004
:100C6000B5CF80E040E050E060E070E000E010E0F0
:100C700020E030E0EE24CC24F7DC81E040E050E0DE
:100C800060E070E000E010E020E030E0EDDC82E0C9
:100C900040E050E060E070E000E010E020E030E094
:100CA000E3DC83E040E050E060E070E000E010E072
:100CB00020E030E0D9DCE199FECFBFBAAEBA85EAD8
:100CC0008DBB0FB6F894E29AE19A0FBE44C000E0E3
:100CD00010E0EE24FF24E199FECFC801805090403F
:100CE0009FBB8EBBE09A8DB3F801E551FE4F808328
:100CF000E199FECFC8018E5F9F4F9FBB8EBBE09AEC
:100D00008DB3F801E351FE4F8083B7016C5F7F4FD5
:100D1000C70180519E4F44E050E028E935E06DD591
:100D20000F5F1F4F84E090E0E80EF91E02301105BE
:100D300091F600E010E0B801645F7F4FC801845075
:100D40009E4F49E050E028E935E057D5075F1F4F37
:100D50000432110581F728960FB6F894DEBF0FBE56
:100D6000CDBFCF91DF911F910F91FF90EF90DF905A
:100D7000CF90BF90AF900895979A0000000096988A
:100D8000882311F0959A01C0959885B3807F85BB23
:100D900085B36F70862B85BB00000000979800001C
:100DA0000000979A0000000008950F931F93182FDA
:100DB000062F62956F70E0DF812F602FDDDF1F91BE
:100DC0000F910895962F682F6295660F660F607CCD
:100DD000690F606880E0E9DF0895682F6F736064D1
:100DE00081E0E3DF0895CF93DF93EC0102C0219609
:100DF000F4DF88818823D9F7DF91CF91089580E0CF
:100E000061E0D3DF089581E191E0AADB80E063E057
:100E1000B3DF80E063E0B0DF80E063E0ADDF80E07F
:100E200062E0AADF80E068E2C0DF80E06CE0BDDF66
:100E300080E061E0BADF80E066E0B7DF80E062E09A
:100E4000B4DF08959C01E199FECF3FBB2EBB6DBB83
:100E50000FB6F894E29AE19A0FBE089583E291E00A
:100E60007FDB8FEB91E09093E8018093E701089599
:100E700080E090E064E671E047EE51E082D49C01AE
:100E80008091BD018F5F8093BD012115310549F42B
:100E900081E08093BE0186E690E09093BC01809350
:100EA000BB01C9010895AF92BF92CF92DF92EF923A
:100EB000FF920F931F93DF93CF9300D0CDB7DEB790
:100EC000D7DF9C018091BE01882309F048C0C90189
:100ED0006AE371E08E010F5F1F4FA80152D4B82E54
:100EE000A92E80E090E06AE371E0A8014AD4D82EF0
:100EF000C92E80E090E06AE371E0A80142D4F82EA8
:100F0000E92E2B2D3A2DC901FC01808180538A30B6
:100F1000E8F4319680818823C1F78D2D9C2D9C01AA
:100F2000F901808180538A3088F43196808188234A
:100F3000C1F78F2D9E2D9C01F901808180538A304D
:100F400028F4319680818823C1F73EC081E08093E8
:100F5000BE0188EE90E09093BC018093BB0120E03D
:100F600030E040E050E021C00C3310F46C3330F03E
:100F700081E08093BE0183ED90E0EDCF812F90E082
:100F8000A0E0B0E0AC0133272227802F90E0A0E062
:100F9000B0E0BA2FA92F982F8827280F391F4A1F92
:100FA0005B1F260F311D411D511DB901CA010F9054
:100FB0000F90CF91DF911F910F91FF90EF90DF90F5
:100FC000CF90BF90AF9008958B2D9A2D70D9182F88
:100FD0008D2D9C2D6CD9082F8F2D9E2D68D9682FB3
:100FE000183110F2C5CF44DFAC018091BE018823D7
:100FF00011F080E00895FA01808180538A3028F44E
:10100000319680818823C1F709C081E08093BE01B9
:101010008AE091E09093BC018093BB01CA0147D95B
:1010200008955F926F927F928F929F92AF92BF923C
:10103000CF92DF92EF92FF920F931F93DF93CF93A4
:10104000CDB7DEB764970FB6F894DEBF0FBECDBF45
:101050008A3009F42DC38D3009F00FC3E091E70108
:10106000F091E80110828FEB91E09093E80180937A
:10107000E7019093EA018093E90126E230E03093A2
:10108000BC012093BB011092BD01ADD31092BE01F3
:10109000EFDE8C018091BE01882309F0E7C2F801E0
:1010A0008081882309F4E2C2C80162E670E060D35F
:1010B000892B09F015C1DCDE8C018091BE018823EB
:1010C00009F0B2C2C8016EEC70E052D3892B99F4DA
:1010D000EADE7B018C018091BE01882309F0A4C265
:1010E000C801AA27BB275527412F302F2F2D622F4C
:1010F0004E2D54DC99C2C80166EC70E039D3892BBF
:10110000D9F5D1DE7B018C018091BE01882309F0E5
:101110008BC2C9DE5B016C01ED86FE860F87188BE2
:10112000698B7A8B8B8B9C8B8091BE01882309F015
:101130007BC2E092F001F092F1010093F201109372
:10114000F30184E090E060EF71E044E050E022E2DF
:1011500037E06DD3A092F401B092F501C092F60190
:10116000D092F70188E090E064EF71E044E050E055
:1011700022E237E05CD358C2C80160EC70E0F8D2DC
:10118000892BA9F530DF882E8091BE01882309F0D4
:101190004BC2F3E0F81520F481E08093BE0144C215
:1011A00082DE5B016C018091BE01882309F03CC2A4
:1011B0007ADE7B018C018091BE01882309F034C264
:1011C00012DF982E8091BE01882309F02DC20BDF1B
:1011D000982F8091BE01882309F026C2882DB60180
:1011E000A50198018701E92CC92E3EDA1DC2C8016C
:1011F00063EB70E0BDD2892B79F5F5DE182F809175
:10120000BE01882309F010C2EEDE1B831C82898395
:101210001A828091BE01882309F006C2DE01119670
:1012200020E030E08C91F901E551FE4F8083E081B0
:10123000E199FECFC901805090409FBB8EBBEDBBB2
:101240000FB6F894E29AE19A0FBE2F5F3F4F1296C5
:101250002230310539F7E8C1C80162EA70E088D26E
:10126000892B81F5C0DE182F8091BE01882309F0FB
:10127000DBC1B9DE1B831C8289831A828091BE0187
:10128000882309F0D1C1DE01119620E030E08C9175
:10129000F901E351FE4F8083E081E199FECFC9015E
:1012A0008E5F9F4F9FBB8EBBEDBB0FB6F894E29A4B
:1012B000E19A0FBE2F5F3F4F12962230310509F49D
:1012C000B3C1E5CFC8016BE970E052D2892B11F4AC
:1012D0008ADEAAC181E08093BE018BE890E0A0C1C4
:1012E000C8016EE570E044D2892B09F083C1C0DDEE
:1012F0008C018091BE01882309F096C1C80167E77F
:1013000071E036D2892B89F4E090F801F090F90170
:101310000091FA011091FB01C801AA27BB27F5E053
:10132000CF2ED12CCC0EDD1E36C0C8016FE671E089
:101330001FD2892B09F041C0E090F001F090F1013B
:101340000091F2011091F301C801AA27BB2775E0B3
:10135000C72ED12CCC0EDD1EB60197D701D98AE35A
:10136000EDD8BB27A12F902F8F2DB6018ED7F8D89F
:101370008AE3E4D88E2DB60188D7F2D880E2DED891
:10138000E090F401F090F5010091F6011091F70161
:10139000C801AA27BB27B60178D7E2D88AE3CED8FE
:1013A000BB27A12F902F8F2DB6016FD7D9D88AE3F5
:1013B000C5D88E2DB60169D7F3C0C80168E671E0C3
:1013C000D7D1892B09F0AEC0AA24BB2439E0832EE3
:1013D000912C8C0E9D1E25E0622E712C6C0E7D1EB4
:1013E00055245394650193E0CC0CDD1C9A95E1F7EC
:1013F000CA0CDB1C8CEF91E0C80ED91EF601E08010
:10140000F18002811381C801AA27BB27B4013DD70F
:10141000A7D88AE393D8BB27A12F902F8F2DB40193
:1014200034D79ED88AE38AD88E2DB4012ED798D887
:1014300080E284D8F601E480F58006811781C80136
:10144000AA27BB27B40121D78BD88AE377D8BB273B
:10145000A12F902F8F2DB40118D782D88AE36ED890
:101460008E2DB40112D77CD880E268D8F601808531
:101470008F77B301D4D674D880E260D8F601808526
:10148000881F8827881FB301CAD66AD880E256D839
:10149000F601808587FD02C080E035C0F6018081BD
:1014A0009181A281B381E480F5800681178120912A
:1014B000F8013091F9014091FA015091FB018E152C
:1014C0009F05A007B10788F4281739074A075B076B
:1014D00018F480E090E017C080E0E216F3060407FD
:1014E000150708F481E085250EC0281739074A073B
:1014F0005B0738F480E090E0E216F3060407150776
:1015000010F081E090E0B3018AD62AD88CE391E014
:1015100027D80894A11CB11CF4E0AF16B10409F05F
:1015200061CF82C0C80163E671E022D1892B19F432
:10153000809174011CC0C80166E571E019D1892B46
:1015400071F48091EC018E01075F1F4FB80167D6DF
:1015500007D88FE391E004D88091EB011FC0C80148
:101560006DE471E005D1892B31F48091EF01BE016A
:10157000675F7F4F14C0C8016CE371E0F9D0892B1D
:1015800099F48091EE018E01075F1F4FB80147D695
:10159000E7D78FE391E0E4D78091ED01B8013FD622
:1015A000DFD78CE391E01EC0C80164E371E0E0D0B6
:1015B000892B81F484EC91E0EAD788EB91E0E7D7BE
:1015C00088EA91E0E4D782E991E0E1D78CE791E005
:1015D000DED72AC0C8016CE271E0CAD0892B21F4A1
:1015E00081E491E0BDD720C081E08093BE018CE111
:1015F00091E016C0C80168E570E0BAD0892B19F4F3
:1016000080E590E00DC0C80167E470E0B1D0892B9F
:1016100011F464D009C081E08093BE0187E390E0BB
:101620009093BC018093BB01E091E701F091E80148
:101630008081882349F081E08093BE0187E290E0B9
:101640009093BC018093BB018091BE01882319F067
:101650008CE591E002C081E691E082D78091BB01E8
:101660009091BC0194D78CE391E07AD78FEB91E015
:101670009093E8018093E7011BC0883061F4E0910A
:10168000E701F091E80191E0EF3BF90721F018F054
:101690001082319709C0E091E701F091E80191E0F3
:1016A000E73EF90728F48193F093E801E093E7011E
:1016B00064960FB6F894DEBF0FBECDBFCF91DF9119
:1016C0001F910F91FF90EF90DF90CF90BF90AF9060
:1016D0009F908F907F906F905F900895CF92DF9250
:1016E000EF92FF921F93DF93CF9300D000D0CDB73E
:1016F000DEB710E06E010894C11CD11C84E1E82E15
:1017000081E0F82E7CDB86E691E06DDB812FB6016F
:1017100086D569DB86E691E023D7812FB6017FD598
:101720001FD780E791E01CD781E0612F83D888E83C
:1017300093E1F7013197F1F70197D9F780E0612F35
:1017400079D888E893E1F7013197F1F70197D9F754
:101750001F5F1530B9F653DB0F900F900F900F906D
:10176000CF91DF911F91FF90EF90DF90CF90089580
:10177000FB01DC018D91059080190110D9F3990BC3
:101780000895009731F4DA018D919C91009709F446
:101790000EC0DC01FB013D912191222319F032178B
:1017A000C9F3FACF332331F4DA011D921C92882752
:1017B000992708951197AF93BF93FB013D91219114
:1017C000321771F4332321F488279927119702C027
:1017D0001E921196FA01A193B0839F918F91089563
:1017E000222369F7EACFDC016C9161566A3108F077
:1017F000605E6F5B6D93C1F70895A0E0B0E0E2E03A
:10180000FCE072C07C01EB018A01690109C0CE01D4
:101810002196F6010995F70181937F01015010404F
:1018200001151105A1F7CDB7DEB7E8E079C0A0E05A
:10183000B0E0ECE1FCE058C0EC017B018A016901F9
:1018400009C0CE012196F70161917F01F60109954A
:101850000150104001151105A1F7CDB7DEB7E8E042
:101860005FC0991B79E004C0991F961708F0961B7A
:10187000881F7A95C9F78095089597FB092E07264A
:101880000AD077FD04D00CD006D000201AF4709551
:1018900061957F4F0895F6F7909581959F4F089534
:1018A000AA1BBB1B51E107C0AA1FBB1FA617B70786
:1018B00010F0A61BB70B881F991F5A95A9F78095A2
:1018C0009095BC01CD010895EE0FFF1F0590F49196
:1018D000E02D09942F923F924F925F926F927F92E8
:1018E0008F929F92AF92BF92CF92DF92EF92FF9230
:1018F0000F931F93CF93DF93CDB7DEB7CA1BDB0BDC
:101900000FB6F894DEBF0FBECDBF09942A88398880
:1019100048885F846E847D848C849B84AA84B98487
:10192000C884DF80EE80FD800C811B81AA81B98193
:10193000CE0FD11D0FB6F894DEBF0FBECDBFED01A7
:061940000895F894FFCFAA
:101946000D0A5465727261436F6E74726F6C2C204F
:101956006D727520323030390D0A0D0A0020696E1D
:1019660069743A2074696D652E630D0A0020696EEC
:1019760069743A2074696D657377697463682E6358
:101986000D0A0077726F6E67206F7574707574201C
:101996006E756D6265720D0A0020696E69743A2073
:1019A600706F72746D61702E630D0A0020696E6926
:1019B600743A20746D703130312E630D0A0020693F
:1019C6006E69743A206932632E630D0A0020696ECF
:1019D60069743A206473313330372E630D0A002060
:1019E600696E69743A20656570726F6D2E630D0AB3
:1019F6000020696E69743A206864343437382E637F
:101A06000D0A0020696E69743A20636F6D6D616E10
:101A1600646C696E652E630D0A003A000D0A00209B
:101A2600005465727261436F6E74726F6C20302E53
:101A3600312C206D72752032303039004641494CC8
:101A4600004F4B00200053454C465445535420004C
:041A56000D0A000075
:00000001FF
