:1000000086C024C2A9C0A8C0A7C0A6C0A5C0A4C05D
:10001000A3C0A2C0A1C073C19EC19EC09DC09CC010
:100020009BC09AC099C00020554E4B4E4F574E2052
:10003000434F4D4D414E440053454C465445535457
:1000400000207A65727761730048454C4C4F004739
:100050004554005345540020554E4B4E4F574E20AB
:10006000434F4D4D414E44004F5554505554004858
:10007000554D4944495459534554504F494E5400E5
:1000800054454D50534554504F494E540054494DDA
:1000900045520044415954494D450044415445009E
:1000A00054494D450020554E4B4E4F574E20434F1F
:1000B0004D4D414E440056455253494F4E004F5509
:1000C00054505554530048554D494449545953458B
:1000D00054504F494E540048554D494449545900D5
:1000E00054454D50534554504F494E540054454D7E
:1000F000500054494D4552530044415954494D45CF
:1001000000444154450054494D4500007B011124F1
:100110001FBECFE5D4E0DEBFCDBF11E0A0E6B0E06A
:10012000E6E8F9E102C005900D92A83BB107D9F7C6
:1001300012E0A8EBB1E001C01D92AC38B107E1F7C5
:1001400011E0CEE0D1E003C02297FE01DFDBCC302E
:10015000D107D1F7A7D015CC53CFEF92FF920F93D1
:100160001F93DF93CF930F92CDB7DEB70091340288
:1001700010913502209136023091370240913802B9
:100180005091390260913A0270913B028091400295
:1001900090914102A0914202B091430204171507C9
:1001A00026073707A0F480179107A207B30718F4B2
:1001B00080E090E00AC020E030E0481759076A0765
:1001C0007B0710F021E030E0C901182F0FC0801725
:1001D0009107A207B30738F420E030E04817590729
:1001E0006A077B0710F021E030E0122F198231DA24
:1001F00080933302FED98093B801609140027091E0
:1002000041028091420290914302AE014F5F5F4FE5
:1002100066D1113011F093E001C094E0412F50E01D
:1002200020E030E0FA01EF5CFD4F60913302808105
:10023000681710F421E030E0220F331F220F331F24
:100240008981822B20E030E0FA01E15DFD4F509181
:10025000B8014081541710F421E030E002C0220FB1
:10026000331F9A95E2F7822B898300E010E081E04A
:10027000E82EF12CC701002E02C0880F991F0A94A6
:10028000E2F729818223602FFDD10F5F1F4F0530D8
:10029000110581F70F90CF91DF911F910F91FF9082
:1002A000EF90089588EE93E024E131E0F901319771
:1002B000F1F70197D9F7D9D3789415D28FEF81BB95
:1002C00087BB84BB15BAF0D0B8D17BD288D381E08C
:1002D00029D265D537D590D9F1D880E690E09DD068
:1002E0006FD021E08030920709F0CDD5C0D08823AF
:1002F000B9F333DFF5CF81E190E053D008951F9239
:100300000F920FB60F9211242F933F938F939F93C9
:10031000EF93FF939BB12CB18091FB018F5F8F71A5
:100320003091FC01831711F492E008C0987180931A
:10033000FB01E82FF0E0E752FE4F20839093FD0190
:10034000FF91EF919F918F913F912F910F900FBE51
:100350000F901F9018951F920F920FB60F921124B5
:100360008F939F93EF93FF939091F9018091FA01FE
:10037000981769F08091FA018F5F8F718093FA016D
:10038000E82FF0E0E754FE4F80818CB901C055980A
:10039000FF91EF919F918F910F900FBE0F901F9043
:1003A00018951092F9011092FA011092FB01109227
:1003B000FC0190BD89B988E98AB986E880BD0895B5
:1003C0009091FB018091FC01981719F420E031E035
:1003D00011C08091FC018F5F8F718093FC01E82F29
:1003E000F0E0E752FE4F80819091FD01392F20E02F
:1003F000280F311DC90108959091F9019F5F9F71E8
:100400002091FA019217E1F3E92FF0E0E754FE4F53
:1004100080839093F901559A0895CF93DF93EC016F
:1004200002C02196E9DF88818823D9F7DF91CF9137
:100430000895CF93DF93EC0101C0DEDFFE0121962A
:1004400084918823D1F7DF91CF9108951F920F9265
:100450000FB60F9211248F938091FE018F5F8093CE
:10046000FE018F910F900FBE0F901F9018958091F5
:10047000FE018823C1F060D2609340027093410274
:100480008093420290934302FFD160933C027093A9
:100490003D0280933E0290933F028091FE01815085
:1004A0008093FE0181E008958DE790E0B6DF8A98A1
:1004B00085B7836085BF8BB780648BBF1092FE01C8
:1004C00085E890E0AADF0895E199FECF9FBB8EBB3F
:1004D0006DBB0FB6F894E29AE19A0FBE0895AF9201
:1004E000BF92CF92DF92EF92FF920F931F93CF9321
:1004F000DF93EA011882209140023091410240913D
:1005000042025091430280E090E060E0FC01A3E0F1
:10051000EE0FFF1FAA95E1F7E80FF91FEC5BFD4F07
:10052000708577FF3DC07085708577FD02C0A0E0C3
:1005300023C0A080B180C280D380E480F580068192
:100540001781AE14BF04C006D10640F42A153B053E
:100550004C055D0540F4A0E0B0E00EC02A153B0557
:100560004C055D0538F4A0E0B0E0E216F3060407A0
:10057000150710F0A1E0B0E0FC0173E0EE0FFF1FE3
:100580007A95E1F7E80FF91FEC5BFD4F7085EA2FD4
:10059000F0E07F7702C0EE0FFF1F7A95E2F76E2B37
:1005A00001968830910509F0B1CF6883DF91CF9132
:1005B0001F910F91FF90EF90DF90CF90BF90AF9081
:1005C0000895CF92EF920F931F93A82FB0E0FD01F3
:1005D00093E0EE0FFF1F9A95E1F7EA0FFB1FEC5B2C
:1005E000FD4F408351836283738304831583268385
:1005F0003783CC2011F490E001C090E8E92AFD0196
:1006000013E0EE0FFF1F1A95E1F7EA0FFB1FEC5BFB
:10061000FD4FE08699E0899FC0011124BC016C5B0D
:100620007D4F845F9F4F49E050E024E632E0FFD8E1
:100630001F910F91EF90CF90089589E890E0EDDE43
:1006400087E990E0EADE0895882349F0813051F08F
:10065000823059F0833061F0843081F40CC08BE932
:1006600090E00EC085EA90E00BC08FEA90E008C0F1
:100670008DEB90E005C081ED90E002C085EE90E04A
:10068000CCDE08956623A9F0613039F0623039F08C
:10069000633039F0643049F406C094E00BC093E055
:1006A00009C092E007C091E005C085EE90E0B5DE9C
:1006B000089595E0882351F088B321E030E002C02E
:1006C000220F331F9A95E2F7822B0BC048B321E02B
:1006D00030E002C0220F331F9A95E2F7822F8095F7
:1006E000842388BB08958BEF90E097DE87B38E63F9
:1006F00087BB88B3817C88BB86E091E08EDE08955D
:10070000DF93CF930F92CDB7DEB7898324D0898151
:10071000885B2AD048D0898324D089810F90CF91DB
:10072000DF9108951F93182F8AE091E076DE185B21
:1007300012D0812F22D081E02FD080E62DD011D091
:100740000AD0812F1AD080E027D00BD084E191E02D
:1007500064DE1F91089584EA86BF06B607FEFDCFCA
:10076000089584E986BF0895880F8F5F83B984E870
:1007700086BF06B607FEFDCF0895880F83B984E8CB
:1007800086BF06B607FEFDCF089583B984E886BF0D
:1007900006B607FEFDCF089583B984E886BF06B686
:1007A00007FEFDCF089584E886BF06B607FEFDCF9D
:1007B00083B1089584EC86BF06B607FEFDCF83B1F2
:1007C000089588E191E029DE84B38F7C84BB85B3F2
:1007D000806385BB85E086BF8AE080B981B18C7F6C
:1007E00081B98FE191E019DE0895282F6AE059D888
:1007F0008F7096EF899F902D1124920F9F70829594
:10080000807F890F08951F93DF93CF9300D0CDB7DA
:10081000DEB7182F49836A839EDF88E6AEDF80E06B
:10082000BBDF4981842FE1DF8F77B6DF6A81862FB6
:10083000DCDFB2DF812FD9DFAFDF93DF0F900F90C6
:10084000CF91DF911F9108951F93DF93CF9300D035
:10085000CDB7DEB7182F49836A837DDF88E68DDF49
:1008600084E09ADF4981842FC0DF96DF6A81862F7A
:10087000BCDF92DF812FB9DF8FDF73DF0F900F9026
:10088000CF91DF911F910895EF92FF920F931F93E5
:10089000DF93CF930F92CDB7DEB75DDF88E66DDFD4
:1008A00084E07ADF5EDF57DF88E65EDF83DF082FD4
:1008B00081DF182F78DF898354DF902F92959F7006
:1008C000990F292F220F220F290F0F70200F30E0D0
:1008D00040E050E0A90133272227612F62956F7015
:1008E000660F962F990F990F960F1F70910FE92E93
:1008F000FF2400E010E0102F0F2DFE2CEE242E0D13
:100900003F1D401F511F8981682F62956F70660FD0
:10091000962F990F990F960F8F70980F290F311DF1
:10092000411D511DB901CA010F90CF91DF911F9157
:100930000F91FF90EF9008950F931F93DF93CF9344
:100940000F92CDB7DEB707DF88E617DF80E024DF40
:1009500008DF01DF88E608DF2DDF182F2BDF082FE7
:1009600022DF8983FEDE8981982F92959F70990FEF
:10097000292F220F220F290F8F70280F30E040E01F
:1009800050E0A90133272227902F92959F70990F4D
:10099000892F880F880F890F0F70800F90E0A0E0DB
:1009A000B0E0BA2FA92F982F8827280F391F4A1F88
:1009B0005B1F912F92959F70990F892F880F880F39
:1009C000890F1F70810F280F311D411D511DB90165
:1009D000CA010F90CF91DF911F910F910895DF937E
:1009E000CF930F92CDB7DEB783E291E016DDB3DE91
:1009F00088E6C3DE80E0D0DEB4DEADDE88E6B4DEBD
:100A0000D2DE8983AEDE898187FF16C0A4DE88E648
:100A1000B4DE80E0C1DE80E0BFDE80E0BDDE80E0ED
:100A2000BBDE80E0B9DE81E0B7DE81E0B5DE89E0E3
:100A3000B3DE80E1B1DE95DE8DE291E0EEDC0F9079
:100A4000CF91DF910895E199FECF9FBB8EBBE09AD5
:100A50008DB30895E199FECF9FBB8EBB6DBB0FB6E2
:100A6000F894E29AE19A0FBE08956F927F928F9266
:100A70009F92AF92BF92CF92DF92EF92FF920F932D
:100A80001F93DF93CF93CDB7DEB729970FB6F894B6
:100A9000DEBF0FBECDBF81E391E0BFDCE199FECFA9
:100AA00054E5852E50E0952E9FBA8EBAE09A8DB30C
:100AB000853A09F4A6C080E090E0A8E0B0E0898320
:100AC0009A83AB83BC8380E090E0A4E1B0E08D83A7
:100AD0009E83AF83B88744E3E42E42E0F42ECC2417
:100AE000DD2400E010E03E010894611C711C34E13B
:100AF000B32E2EE1A22EF301EC0DFD1D808191811C
:100B0000A281B381F70180839183A283B383F8012B
:100B1000E15DFD4FB082E199FECFC8018050904069
:100B20009FBB8EBBBDBA0FB6F894E29AE19A0FBE96
:100B3000F801EF5CFD4FA082E199FECFC8018E5F06
:100B40009F4F9FBB8EBBADBA0FB6F894E29AE19A65
:100B50000FBEC6018C5F9F4FB70144E050E02AE210
:100B600035E065D60F5F1F4F84E090E0C80ED91EB8
:100B7000E80EF91E0230110509F0BDCF80E040E01B
:100B800050E06BE070E000E010E02DE030E0EE249B
:100B9000CC24C39416DD81E040E050E06AE070E0D0
:100BA00000E010E02EE030E0EE24E3940ADD82E085
:100BB00040E050E06AE070E000E010E02EE030E05D
:100BC00094E0E92EFEDC93E0892F40E050E060E005
:100BD00070E000E010E020E030E0EE24CC249987C3
:100BE000F0DC99859F5F983079F7E199FECF9FBA45
:100BF0008EBA85EA8DBB0FB6F894E29AE19A0FBEE1
:100C000047C0EE24FF2400E010E0E199FECFC801C8
:100C1000805090409FBB8EBBE09A8DB3F801E15DA0
:100C2000FD4F8083E199FECFC8018E5F9F4F9FBB30
:100C30008EBBE09A8DB3F801EF5CFD4F8083B70166
:100C40006C5F7F4FC7018C5C9D4F44E050E023E216
:100C500035E0D2D50F5F1F4FE4E0F0E0EE0EFF1E4F
:100C60000230110591F600E010E0B801645F7F4F9B
:100C7000C8018C5B9D4F49E050E023E235E0BCD5D4
:100C8000075F1F4F0834110581F78BE391E0C5DB47
:100C900029960FB6F894DEBF0FBECDBFCF91DF917E
:100CA0001F910F91FF90EF90DF90CF90BF90AF908A
:100CB0009F908F907F906F900895979A000000000A
:100CC0009698882311F0959A01C0959885B3807FF6
:100CD00085BB85B36F70682B65BB000000009798DB
:100CE00000000000979A0000000008950F931F93E2
:100CF000082F162F62956F70E0DF802F612FDDDFE8
:100D00001F910F9108958295880F880F807C680F3E
:100D1000606880E0EBDF0895682F6F73606481E0A6
:100D2000E5DF0895CF93DF93EC0102C02196F4DF55
:100D300088818823D9F7DF91CF91089580E061E021
:100D4000D5DF08958FE391E068DB80E063E0B5DFF5
:100D500080E063E0B2DF80E063E0AFDF80E062E08C
:100D6000ACDF80E068E2C2DF80E06CE0BFDF80E003
:100D700061E0BCDF80E066E0B9DF80E062E0B6DF22
:100D800089E491E04ADB0895E199FECF9FBB8EBBD9
:100D90006DBB0FB6F894E29AE19A0FBE08958DE408
:100DA00091E03BDB83E092E090932C0280932B0256
:100DB0008CE591E032DB089580E090E06CE871E032
:100DC0004BE252E0DDD4209102022F5F2093020219
:100DD00008958F929F92AF92BF92CF92DF92EF923F
:100DE000FF920F931F93DF93CF9300D0CDB7DEB761
:100DF000E3DF70E6E72E71E0F72EB7018E010F5F9B
:100E00001F4FA801BDD45C0180E090E0B701A801AC
:100E1000B7D46C0180E090E0B701A801B1D44C01D7
:100E2000C50181D4E82EC6017ED4082FC4017BD42D
:100E30002E2D30E040E050E0A90133272227E02E9C
:100E4000FF2400E010E0102F0F2DFE2CEE242E0DBD
:100E50003F1D401F511F280F311D411D511DB9015C
:100E6000CA010F900F90CF91DF911F910F91FF90CA
:100E7000EF90DF90CF90BF90AF909F908F900895AC
:100E80009BDF51D408954F925F926F927F928F9221
:100E90009F92AF92BF92CF92DF92EF92FF920F9309
:100EA0001F93DF93CF93CDB7DEB72E970FB6F8948D
:100EB000DEBF0FBECDBF8A3009F4E9C28D3009F024
:100EC000CBC2E0912B02F0912C02108283E092E0E1
:100ED00090932C0280932B0290932E0280932D02EC
:100EE00026E230E0309300022093FF017BD4109281
:100EF000010262DF8C01FC018081882309F4A5C214
:100F0000C80163E570E033D4009709F00BC154DFEA
:100F10008C0160EA70E02BD4009761F45ADF9B01EA
:100F2000AC01E32EF42E052F1127842F6E2D422FB6
:100F30006ADC79C2C8016BE970E019D4009709F046
:100F400040C03ADF62E671E07E010894E11CF11CCA
:100F5000A70116D48C0180E090E062E671E0A70161
:100F60000FD46C0180E090E062E671E0A70108D444
:100F70004C01C801D8D3E82EC601D5D3082FC4012F
:100F8000D2D32E2D30E040E050E0A90133272227B4
:100F9000E02EFF2400E010E0102F0F2DFE2CEE2499
:100FA0002E0D3F1D401F511F280F311D411D511D8A
:100FB000E32EF42E052F1127842F6E2D422F44DCB3
:100FC00032C2C80163E970E0D2D3009799F501DF1E
:100FD0006F83788789879A87FCDE7B018C016B871A
:100FE0007C878D879E878F819885A985BA85809318
:100FF000340290933502A0933602B093370284E016
:1010000090E064E372E044E050E024EC36E00FD47A
:10101000E0923802F092390200933A0210933B02B8
:1010200088E090E068E372E044E050E024EC36E0D1
:10103000FED3F9C1C8016DE870E099D3009799F427
:101040001FDF082FC6DE2B013C01C3DE4B015C0114
:1010500017DFE82E15DFC82E802FB301A2019501FE
:101060008401AFDAE0C1C80160E870E080D3009786
:1010700011F506DF8D831E8203DF8B831C82FE0148
:10108000339680E090E02081DC01A15DBD4F2C9380
:10109000E199FECFAC01405050405FBB4EBB2DBB31
:1010A0000FB6F894E29AE19A0FBE0196329682301A
:1010B000910549F7B8C1C8016FE670E058D30097B1
:1010C00019F5DEDE8D831E82DBDE8B831C82FE0142
:1010D000339680E090E02081DC01AF5CBD4F2C9323
:1010E000E199FECFAC014E5F5F4F5FBB4EBB2DBBA6
:1010F0000FB6F894E29AE19A0FBE019632968230CA
:10110000910509F490C1E7CFC80168E670E02FD3DC
:10111000009711F4B5DE87C181E08093010287E575
:1011200090E07DC1C8016FE470E021D3009709F021
:1011300060C142DE8C0166E071E019D3009751F482
:10114000E0904002C0904102809142028E010D5F0A
:101150001F4F40C0C80161E071E009D30097A1F4BE
:10116000E0903C02C0903D0280913E028E010D5FF6
:101170001F4FB801C7D251D98EE23ED98C2DB8018C
:10118000C1D24BD98EE230C0C80169EF70E0EFD216
:10119000009779F5E0903402C090350280913602D4
:1011A0008E010D5F1F4FB801ADD237D98AE324D924
:1011B0008C2DB801A7D231D98AE31ED98E2DB80162
:1011C000A1D22BD980E218D9E0903802C090390220
:1011D00080913A02B80196D220D98AE30DD98C2D9C
:1011E000B80190D21AD98AE307D98E2DB8018AD2D4
:1011F000DCC0C80162EF70E0BAD2009709F097C076
:10120000CC24DD24A7E0EA2EF12CEC0EFD1EF3E049
:101210008F2E912C8C0E9D1E8601E3E0000F111F76
:10122000EA95E1F70C0D1D1D0C5B1D4FF801408088
:10123000518062807380862DB70164D2EED88AE334
:10124000DBD8852DB7015ED2E8D88AE3D5D8842DC6
:10125000B70158D2E2D880E2CFD8F8014480558057
:1012600066807780862DB7014DD2D7D88AE3C4D85F
:10127000852DB70147D2D1D88AE3BED8842DB701D6
:1012800041D2CBD880E2B8D8F80180858F77B401FD
:1012900003D2C3D880E2B0D8F8018085881F8827A0
:1012A000881FB401F9D1B9D880E2A6D8F8018085A9
:1012B00087FD02C080E02CC0F80180819181A2816D
:1012C000B3814480558066807780209140023091C0
:1012D0004102409142025091430284159505A605B2
:1012E000B70540F4281739074A075B0740F480E048
:1012F00090E00EC0281739074A075B0738F480E0F2
:1013000090E0421653066406750610F081E090E006
:10131000B401C2D182D884E691E07FD80894C11C80
:10132000D11CF8E0CF16D10409F076CF7CC0C801FB
:101330006DEE70E01CD2009719F48091B8011CC0CA
:10134000C80160EE70E013D2009771F48E010D5F5A
:101350001F4F80913002B8019FD15FD887E691E09E
:101360005CD880912F021FC0C80167ED70E0FFD1EB
:10137000009731F480913302BE016D5F7F4F14C03E
:10138000C80166EC70E0F3D1009799F48E010D5F0F
:101390001F4F80913202B8017FD13FD887E691E09C
:1013A0003CD880913102B80177D137D884E691E0FA
:1013B00018C0C8016EEB70E0DAD1009751F400E07C
:1013C000802F42D984E691E028D80F5F0530C1F71D
:1013D0002AC0C80166EB70E0CAD1009721F489E603
:1013E00091E01BD820C081E08093010285EA90E063
:1013F00016C0C80169E470E0BAD1009719F481E41D
:1014000090E00DC0C80168E370E0B1D1009711F41D
:1014100055D009C081E08093010287E290E090936B
:1014200000028093FF0180910102882319F084E873
:1014300091E002C089E891E0F0D78091FF0190919E
:101440000002F7D784E691E0E8D783E092E090933A
:101450002C0280932B021BC0883061F4E0912B0298
:10146000F0912C0292E0E330F90721F018F010829D
:10147000319709C0E0912B02F0912C0292E0EB32FF
:10148000F90728F48193F0932C02E0932B022E9617
:101490000FB6F894DEBF0FBECDBFCF91DF911F9185
:1014A0000F91FF90EF90DF90CF90BF90AF909F9003
:1014B0008F907F906F905F904F900895CF92DF92C2
:1014C000EF92FF921F93DF93CF9300D000D0CDB760
:1014D000DEB78EE891E0A1D710E06E010894C11C40
:1014E000D11C84E1E82E81E0F82E28DC8AE991E025
:1014F00019DC812FB601D0D015DC8AE991E08DD7B7
:10150000812FB601C9D089D784EA91E086D781E0DE
:10151000612FB8D888E893E1F7013197F1F7019787
:10152000D9F780E0612FAED888E893E1F7013197D1
:10153000F1F70197D9F71F5F1530B9F6FFDB87EA9E
:1015400091E06BD70F900F900F900F90CF91DF919C
:101550001F91FF90EF90DF90CF900895882311F0B6
:10156000939A01C0939800000000949A0000000034
:1015700094980000000008951F93182F8078EEDFE4
:10158000812F8072EBDF812F8870E8DF812F8270DE
:10159000E5DF949A80B394981F9108951F9390E08B
:1015A00010E0110F949A20B3949840E030E023703B
:1015B00030702115310509F041E0142B9F5F983000
:1015C00081F7CCDF812F1F910895939A94980000A2
:1015D0000000939800000000949800000000949A86
:1015E00000000000939A00000000949800000000A2
:1015F000089581E085D808958BEA91E00ED781B3F4
:10160000886181BB939A82B3939A0000000080E0C6
:10161000949A000000009498000000008F5F8930C9
:10162000B9F7D3DFD2DF86E0A7DF81E0A5DF84EB67
:1016300091E0F3D608951F93C8DF85E09DDF80E039
:10164000ADDF80E0ABDF182F81E0A8DF812F1F9195
:101650000895F1DF8B3680F4EEDF682F70E080E0D4
:1016600090E02AE830E040E050E0FCD0665E704058
:1016700080409040872F0895DEDF682F70E080E083
:1016800090E02AE730E040E050E0ECD0665E7A4F30
:101690008F4F9F4F872F0895382FFB0164E601D1AC
:1016A000282F482F50E08CE99FEFBC01469FC001D6
:1016B000479F900D569F900D1124830F911D6AE056
:1016C00070E0FBD08CE9289F802D1124830F96EFCA
:1016D000699F902D1124890F222341F0205D2083E2
:1016E000605D6183805D828313820AC0805D6623B2
:1016F00029F0605D60838183128202C08083118241
:10170000CF010895282FFB016AE0CBD0982F905D80
:101710009083205D96EF899F802D1124280F2183CF
:101720001282CF010895FC0180E008C0282F220F0B
:10173000822F880F880F820F890F319690819053E6
:101740009A30A0F3089590E080538A3008F491E035
:10175000892F0895FC01808180538A3010F080E049
:101760000895319680818823B1F781E00895FB01C7
:10177000DC018D91059080190110D9F3990B089522
:10178000009731F4DA018D919C91009709F40EC015
:10179000DC01FB013D912191222319F03217C9F39D
:1017A000FACF332331F4DA011D921C92882799274E
:1017B00008951197AF93BF93FB013D91219132178B
:1017C00071F4332321F488279927119702C01E92C0
:1017D0001196FA01A193B0839F918F9108952223CE
:1017E00069F7EACFDC016C9161566A3108F0605EFE
:1017F0006F5B6D93C1F70895A0E0B0E0E1E0FCE01D
:1018000093C07C018B01EA01690108C0C8010F5F28
:101810001F4FF6010995F70181937F012197FFEF93
:10182000CF3FDF0799F7E8E0CDB7DEB799C0A0E07A
:10183000B0E0ECE1FCE078C08C017B01EA016901D9
:1018400008C0F70161917F01C8010F5F1F4FF601CA
:1018500009952197FFEFCF3FDF0799F7E8E0CDB774
:10186000DEB77EC0629FD001739FF001829FE00DC2
:10187000F11D649FE00DF11D929FF00D839FF00D0F
:10188000749FF00D659FF00D9927729FB00DE11DBB
:10189000F91F639FB00DE11DF91FBD01CF01112498
:1018A0000895991B79E004C0991F961708F0961BBC
:1018B000881F7A95C9F78095089597FB092E07260A
:1018C0000AD077FD04D00CD006D000201AF4709511
:1018D00061957F4F0895F6F7909581959F4F0895F4
:1018E000AA1BBB1B51E107C0AA1FBB1FA617B70746
:1018F00010F0A61BB70B881F991F5A95A9F7809562
:101900009095BC01CD010895EE0FFF1F0590F49155
:10191000E02D09942F923F924F925F926F927F92A7
:101920008F929F92AF92BF92CF92DF92EF92FF92EF
:101930000F931F93CF93DF93CDB7DEB7CA1BDB0B9B
:101940000FB6F894DEBF0FBECDBF09942A88398840
:1019500048885F846E847D848C849B84AA84B98447
:10196000C884DF80EE80FD800C811B81AA81B98153
:10197000CE0FD11D0FB6F894DEBF0FBECDBFED0167
:061980000895F894FFCF6A
:101986000D0A5465727261436F6E74726F6C2C200F
:101996006D727520323030390D0A0D0A003C7469BB
:1019A6006D652E63003E0D0A003C74696D657377A4
:1019B600697463682E63003E0D0A004F55545055F6
:1019C600545F4C31004F55545055545F4C32004FC4
:1019D60055545055545F464F47474552004F55544E
:1019E6005055545F48454154494E475F5749524503
:1019F600004F55545055545F48454154494E475F32
:101A06004C414D500077726F6E67206F757470751C
:101A160074206E756D6265720D0A003C706F72748B
:101A26006D61702E63003E0D0A003C746D7031309E
:101A3600312E63003E0D0A003C6932632E63003E80
:101A46000D0A003C6473313330372E63003E0D0AB5
:101A5600003C656570726F6D2E63003E0D0A003C9A
:101A66006864343437382E63003E0D0A003C636FD9
:101A76006D6D616E646C696E652E63003E0D0A00C5
:101A86003A002E000D0A0020005465727261436F01
:101A96006E74726F6C20302E312C206D7275203270
:101AA600303039004641494C004F4B0020003C7312
:101AB600656C66746573742E630053454C465445D5
:101AC600535420000D0A003E0D0A003C7368743121
:081AD600312E63003E0D0A00F1
:00000001FF
