:1000000094C00CC2B7C0B6C0B5C0B4C0B3C0B2C013
:10001000B1C0B0C0AFC030C159C1ACC0ABC0AAC044
:10002000A9C0A8C0A7C06E616E00696E66000040DE
:100030007A10F35A00A0724E18090010A5D4E800F7
:1000400000E87648170000E40B54020000CA9A3B0F
:10005000000000E1F5050000809698000000404295
:100060000F000000A0860100000010270000000023
:10007000E803000000006400000000000A00000027
:1000800000000100000000002C76D888DC674F08D3
:1000900023DFC1DFAE59E1B1B796E5E3E453C63AD9
:1000A000E651997696E8E6C28426EB898C9B62ED50
:1000B000407C6FFCEFBC9C9F40F2BAA56FA5F4900A
:1000C000055A2AF75C936B6CF9676DC11BFCE0E481
:1000D0000D47FEF520E6B500D0ED902E03009435D7
:1000E00077050080841E080000204E0A000000C82A
:1000F0000C333333330F986E12831141EF8D21147B
:10010000893BE65516CFFEE6DB18D1844B381BF74A
:100110007C1D901DA4BBE424203284725E228100E9
:10012000C9F124ECA1E53D272F0111241FBECFE525
:10013000D4E0DEBFCDBF11E0A0E6B0E0EAE7FDE12C
:1001400002C005900D92A230B107D9F713E0A2E0EA
:10015000B1E001C01D92AA31B107E1F711E0CAE296
:10016000D1E003C02297FE0102DEC832D107D1F7E9
:1001700002D001CE45CFEF920F931F93789427D3EF
:100180008FEF81BB87BB84BB15BA33D180E690E08B
:10019000B2DB74D180E04CE050E060E070E00FE052
:1001A00010E020E030E091E3E92E88D281E044E6DF
:1001B00050E060E070E007E610E020E030E07ED242
:1001C00082E046E450E060E070E00EE410E020E001
:1001D00030E074D283E04EE150E060E070E003E292
:1001E00010E020E030E06AD284E046E150E060E0D8
:1001F00070E009E110E020E030E060D285E043E00B
:1002000050E060E070E009E010E020E030E056D21D
:1002100034D335D481E01ED359D488EE93E024E161
:1002200031E0F9013197F1F70197D9F783D021E057
:100230008030920729F08D3011F45DD401C04DD487
:10024000E2D0882399F36091FA027091FB028091C9
:10025000FC029091FD0213D181E0F0D2E7CF81E161
:1002600090E059D088E391E060E070E0BBDA089557
:100270007ED080E090E008951F920F920FB60F920B
:1002800011242F938F939F93EF93FF939BB12CB1E6
:10029000E0914401EF5FEF7180914501E81711F49F
:1002A00082E008C0892F8871E0934401F0E0EE5DA0
:1002B000FE4F208380934601FF91EF919F918F9194
:1002C0002F910F900FBE0F901F9018951F920F92B5
:1002D0000FB60F9211248F939F93EF93FF939091FA
:1002E000420180914301981761F0E0914301EF5F73
:1002F000EF71E0934301F0E0EE5FFE4F80818CB937
:1003000001C05598FF91EF919F918F910F900FBE73
:100310000F901F9018951092420110924301109275
:1003200044011092450190BD89B988E98AB986E8EF
:1003300080BD08959091440180914501981719F46A
:1003400020E031E012C0E0914501EF5FEF71E093F2
:100350004501F0E0EE5DFE4F308120914601922F85
:1003600080E0AC01430F511D9A01C9010895282F67
:10037000909142019F5F9F71809143019817E1F333
:10038000E92FF0E0EE5FFE4F208390934201559AF3
:100390000895DC0111C0909142019F5F9F7180918F
:1003A00043019817E1F31196E92FF0E0EE5FFE4F5D
:1003B000208390934201559A2C91222361F708954E
:1003C000AC0110C0209142012F5F2F718091430139
:1003D0002817E1F3E22FF0E0EE5FFE4F90832093C9
:1003E0004201559AFA014F5F5F4F9491992351F75B
:1003F00008958A9885B7836085BF8BB780648BBF6B
:1004000010924701089580914701882331F080912F
:10041000470181508093470181E008951F920F9218
:100420000FB60F9211242F933F934F935F936F93C7
:100430007F938F939F93AF93BF93EF93FF9380919D
:1004400047018F5F809347019FD26093FA027093B8
:10045000FB028093FC029093FD02FF91EF91BF910C
:10046000AF919F918F917F916F915F914F913F914C
:100470002F910F900FBE0F901F90189508952F92F7
:100480003F924F925F926F927F928F929F92AF9224
:10049000BF92CF92DF92EF92FF920F931F93DF9361
:1004A000CF93CDB7DEB728970FB6F894DEBF0FBE57
:1004B000CDBF6B017C0119821A821B821C821D82B6
:1004C0001E821F82188698E4A92E91E0B92E00E0C2
:1004D00010E085E0282E312C2C0E3D1EB1E04B2E75
:1004E000512C3E010894611C711C88248394602F58
:1004F000912EC801FC01A3E0EE0FFF1FAA95E1F7C2
:10050000880F991FE80FF91FEF5AFE4F808180FF77
:100510006AC0F50180819181A281B38124813581F6
:100520004681578182179307A407B50788F4C81638
:10053000D906EA06FB0618F480E090E017C080E0D8
:100540002C153D054E055F0508F481E088250EC099
:10055000C816D906EA06FB0638F480E090E02C15B0
:100560003D054E055F0510F081E090E0782F862F65
:10057000992DFC0153E0EE0FFF1F5A95E1F7880F0C
:10058000991FE80FF91FE05BFE4F40814F7050E06C
:10059000862F992DFC0133E0EE0FFF1F3A95E1F70E
:1005A000880F991FE80FF91FE05BFE4F608162958D
:1005B0006F70F101E40FF51F9201062E02C0220FA9
:1005C000331F0A94E2F78081822B8083F301E40FCA
:1005D000F51F872F90E002C0880F991F6A95E2F7F8
:1005E0002081282B20830F5F1F4F8AE090E0A80E08
:1005F000B91E0832110509F07ACFAEEFB2E060E023
:1006000070E095E0892E912C8C0E9D1E81E0A82E25
:10061000B12C6E010894C11CD11C2BC0C701022E45
:1006200002C0959587950A94E2F780FF17C0C5012F
:10063000022E02C0880F991F0A94E2F7982FF80142
:1006400080818923ED91FC911197882319F0808195
:10065000982B03C080819095982390832F5F3F4F04
:1006600028303105D9F66F5F7F4F129664307105DF
:1006700061F0F401E60FF71F8081E82EFF2420E0EF
:1006800030E08601060F171FC9CF28960FB6F894E1
:10069000DEBF0FBECDBFCF91DF911F910F91FF90B5
:1006A000EF90DF90CF90BF90AF909F908F907F9012
:1006B0006F905F904F903F902F9008956F927F9230
:1006C0008F929F92AF92BF92CF92DF92EF92FF9262
:1006D0000F931F93F82E5A016B01380149011E2D0B
:1006E00087E28F1518F483E890E005D98F2D90E00C
:1006F000FC0103E0EE0FFF1F0A95E1F7880F991F39
:10070000E80FF91FE85BFE4FA082B182C282D3825C
:100710008F2D90E0FC01A3E0EE0FFF1FAA95E1F7FB
:10072000880F991FE80FF91FE85BFE4F64827582FE
:10073000868297828F2D90E0FC0163E0EE0FFF1F11
:100740006A95E1F7880F991FE80FF91FE85BFE4FE4
:1007500010878F2D90E0FC0143E0EE0FFF1F4A95BC
:10076000E1F7880F991FE80FF91FEF5AFE4F8081BC
:1007700081608083A12FAF70B0E0AA0FBB1FFD0185
:10078000E250FD4F0190F081E02D908112951F7095
:1007900021E030E002C0220F331F1A95E2F7822FCA
:1007A000809589238083AC5FBC4FED91FC91808163
:1007B000822B80831F910F91FF90EF90DF90CF905D
:1007C000BF90AF909F908F907F906F90089588E337
:1007D00090E09093FF028093FE0285E390E0909377
:1007E00001038093000382E390E0909303038093DE
:1007F000020387E390E0909305038093040384E36E
:1008000090E0909307038093060381E390E0909338
:1008100009038093080386E390E090930B03809391
:100820000A0383E390E090930D0380930C0380E32D
:1008300090E090930F0380930E0308951F93182F59
:100840002AD0812F885B30D04ED0182F2AD0812F0C
:100850001F9108951F93182F185B1DD0812F2DD045
:1008600081E03AD080E638D01CD015D0812F25D039
:1008700080E032D016D01F91089584B38F7C84BB62
:1008800085B3806385BB85E086BF8AE080B981B18E
:100890008C7F81B9089584EA86BF06B607FEFDCF36
:1008A000089584E986BF0895880F8F5F83B984E82F
:1008B00086BF06B607FEFDCF0895880F83B984E88A
:1008C00086BF06B607FEFDCF089583B984E886BFCC
:1008D00006B607FEFDCF089583B984E886BF06B645
:1008E00007FEFDCF089584E886BF06B607FEFDCF5C
:1008F00083B1089584EC86BF06B607FEFDCF83B1B1
:100900000895382F6AE0CCD9282F2F7086EF9FEFFB
:10091000289F802D1124830F8F702295207F820FB6
:100920000895FF920F931F93F82E062F142FB3DF15
:1009300088E6C3DF80E0D0DF812FE3DF8F77CCDF75
:10094000802FDFDFC9DF8F2DDCDFC6DFAADF1F913D
:100950000F91FF900895FF920F931F93F82E062F8B
:10096000142F99DF88E6A9DF84E0B6DF812FC9DF85
:10097000B3DF802FC6DFB0DF8F2DC3DFADDF91DFA8
:100980001F910F91FF9008958F929F92AF92BF9207
:10099000CF92DF92EF92FF920F931F937CDF88E656
:1009A0008CDF80E099DF7DDF76DF88E67DDFA2DF08
:1009B000A82E82958F7090E09C01F3E0220F331FE8
:1009C000FA95E1F7880F991F280F391F8FE0A822A9
:1009D000A20EBB24CC24DD248DDFE82E84DF882EFC
:1009E00060DF8E2D82958F7090E09C0173E0220F66
:1009F000331F7A95E1F7880F991F280F391F8FE071
:100A0000E822E20E8CE3E89E700111240027F7FC37
:100A10000095102F882D82958F7090E09C0153E0F7
:100A2000220F331F5A95E1F7880F991F280F391F9E
:100A30008FE08822820E992480E19EE09C01829EB4
:100A4000C001839E900D929E900D1124AA2797FDC0
:100A5000A095BA2FE80EF91E0A1F1B1FEA0CFB1CFB
:100A60000C1D1D1DB701C8011F910F91FF90EF9044
:100A7000DF90CF90BF90AF909F908F9008951F937D
:100A80000ADF88E61ADF80E027DF0BDF04DF88E675
:100A90000BDF29DF182F05DF17FF16C0FCDE88E605
:100AA0000CDF80E019DF80E017DF80E015DF80E0F9
:100AB00013DF80E011DF80E00FDF80E00DDF80E0FA
:100AC0000BDF80E109DFEDDE1F91089588ED92E0F4
:100AD0009093F7028093F6020895E091F602F09168
:100AE000F70292E0E63FF90728F48193F093F702CA
:100AF000E093F60208952F923F924F925F926F9289
:100B00007F928F929F92AF92BF92CF92DF92EF929D
:100B1000FF920F931F93DF93CF9300D000D000D0AC
:100B2000CDB7DEB7E091F602F091F702108208ED42
:100B300012E01093F7020093F6021093F90200936B
:100B4000F802C8013DD6C801D6D6C8016AEF70E0E8
:100B500046EF52E003D61C01DC018C91882309F496
:100B600060C1C10169E970E0E5D5009709F04DC1A8
:100B70008DE990E0C0D680E090E06AEF70E046EF4B
:100B800052E0ECD56FE970E0D5D5009709F046C189
:100B900080E090E064EA70E046EF52E0DFD58C013F
:100BA000C9D4EDB7FEB738970FB6F894FEBF0FBEA5
:100BB000EDBF319626EAE22E20E0F22EADB7BEB7A9
:100BC0001296FC92EE92119713821282158304837F
:100BD000978386837ED6EDB7FEB738960FB6F89426
:100BE000FEBF0FBEEDBF80E090E064EA70E046EF2C
:100BF00052E0B4D58C019ED42DB73EB7285030407A
:100C00000FB6F8943EBF0FBE2DBFEDB7FEB73196BD
:100C1000ADB7BEB71296FC92EE92119721E030E08C
:100C200033832283158304839783868352D6EDB75B
:100C3000FEB738960FB6F894FEBF0FBEEDBF80E04A
:100C400090E064EA70E046EF52E088D58C0172D4FF
:100C50002DB73EB7285030400FB6F8943EBF0FBEB8
:100C60002DBFEDB7FEB73196ADB7BEB71296FC9269
:100C7000EE92119722E030E03383228315830483C0
:100C80009783868326D6EDB7FEB738960FB6F894CD
:100C9000FEBF0FBEEDBFC8014DD4AA2797FDA0959A
:100CA000BA2FBC01CD0120E13EE040E050E0D9D7B1
:100CB0005B016C0180E090E03DD47C010027F7FCF3
:100CC0000095102FC801B7012CE330E040E050E060
:100CD000C8D73B014C012DB73EB72E5030400FB660
:100CE000F8943EBF0FBE2DBFEDB7FEB731968CEB2B
:100CF00090E0ADB7BEB712969C938E931197A282E7
:100D0000B382C482D5826682778280869186E286AB
:100D1000F38604871587DDD5A60CB71CC81CD91C23
:100D2000AE0CBF1CC01ED11EC601B50120E13EE0C5
:100D300040E050E0C1D7322E232E4D835E83C601A2
:100D4000B5012CE330E040E050E0B6D779018A01EC
:100D5000632D722D8D819E812CE330E040E050E0C8
:100D600080D72B013C018091FA029091FB02A09167
:100D7000FC02B091FD0289839A83AB83BC830F9000
:100D80000F908DB69EB60894811C911C81ED90E069
:100D9000ADB7BEB712969C938E931197F401328231
:100DA00013828E2D841984831582632D722D8D817B
:100DB0009E8120E13EE040E050E053D7A61AE418BF
:100DC000F50806091709C801B7012CE330E040E037
:100DD00050E047D7A61AD4011696AC9216971796EC
:100DE0001C9289819A81AB81BC81F40180879187B3
:100DF000A287B3876ED52DB73EB7245F3F4F0FB69E
:100E0000F8943EBF0FBE2DBF0CC0C10164EF70E06F
:100E100091D4009719F488EF90E002C082EF90E03F
:100E20006AD588ED92E09093F7028093F6022696B9
:100E30000FB6F894DEBF0FBECDBFCF91DF911F91EB
:100E40000F91FF90EF90DF90CF90BF90AF909F9069
:100E50008F907F906F905F904F903F902F9008956C
:100E6000A1E1B0E0E5E3F7E049C73C017F876E8789
:100E70006A01FC0117821682838181FD03C06FEF36
:100E80007FEF54C39E012F5F3F4F398B288BF301B7
:100E90002381EE85FF8523FD859123FF8191FF87C7
:100EA000EE87882309F43FC3853251F4EE85FF8530
:100EB00023FD859123FF8191FF87EE87853221F401
:100EC00090E0B301DAD4E3CF982F10E0882499247E
:100ED0001032B0F49B3269F09C3228F4903251F019
:100EE000933271F40BC09D3239F0903349F41160A4
:100EF00028C01260146025C0186023C0106121C092
:100F000017FD2AC0892F80538A3078F416FF06C057
:100F1000FAE09F9E902C1124980E13C03AE0839E15
:100F2000802C1124880E10620CC09E3221F416FD14
:100F3000FAC2106406C09C3611F4106802C09836DC
:100F400059F4EE85FF8523FD959123FF9191FF874D
:100F5000EE87992309F0BCCF892F8554833020F484
:100F6000812F8061905E07C0892F8556833008F0FD
:100F700091C1812F8F7E86FD02C076E0972E6FE3B0
:100F8000F62EF822953619F4F0E4FF2A07C09636BB
:100F900019F420E8F22A02C091109A94F7FE0BC0CF
:100FA0003BE3391520F427E05CE3B52E0EC0B92CE5
:100FB000B39427E00AC047E0491528F427E0BB2492
:100FC00047E0942E02C0292DBB24C60104969D87BC
:100FD0008C87F6016081718182819381AE014F5FC0
:100FE0005F4F0B2DC4D26C010981202E332400FFEA
:100FF00004C003FD02C01DE209C0F1FE02C01BE2F5
:1010000005C0F2FC02C010E001C010E2C1018C700A
:101010009070892BA1F1112311F483E001C084E0C9
:10102000881510F0882409C0881AF3FC06C080E2F5
:1010300090E0B30122D48A94D1F7112321F0812FBB
:1010400090E0B3011AD423FE03C006E210E00DC005
:101050000AE210E00AC0E114F10409F0805290E0C5
:10106000B3010BD40F5F1F4F05C0EF2CFF24F0E13D
:10107000EF22FF24F8018491882369F708C1F7FE65
:1010800012C0BC0C24FE04C08A81813309F4BA94D6
:101090001B141CF0BB24B3942DC0F8E0FB1550F5D5
:1010A00038E0B32E27C0F6FC25C0892D90E08C15C2
:1010B0009D054CF02CEFC2162FEFD20624F030E83D
:1010C000F32A01C09A94992049F0E2E0F0E0EC0F95
:1010D000FD1FE90DF11D80818033A1F3F7FE0AC0E9
:1010E000B92CB394892D90E0C816D90614F0992430
:1010F00001C09C18F7FC03C025E030E009C01C14B7
:101100001D041CF021E030E003C096012F5F3F4F2B
:10111000112311F02F5F3F4F992029F0892D90E086
:101120000196280F391F882D90E02817390714F0F1
:10113000882401C0821A4F2C5524C20189709070F6
:10114000892B31F007C080E290E0B30196D38A94F6
:101150008820C9F7112321F0812F90E0B3018DD3AE
:1011600043FE06C007C080E390E0B30186D38A94B3
:101170008820C9F7F7FE44C08601D7FE02C000E010
:1011800010E076010894E11CF11CE01AF10A41E03C
:1011900050E04C0F5D1FE40EF51E26014B18510860
:1011A000892D90E0AA24BB24A81AB90A5FEF0F3F4B
:1011B000150721F48EE290E0B3015FD3C016D1068B
:1011C00034F0401651061CF4F701808101C080E321
:1011D000015010400894E11CF11C0A151B0524F075
:1011E00090E0B3014AD3E2CF0C151D0539F49A8182
:1011F000963318F4953311F424FE81E390E045C052
:101200008A81813309F00F7E90E0B30136D39920B3
:1012100091F08EE290E0B30130D312E0E1E0F0E033
:10122000EC0FFD1FE10FF11D1F5F808190E0B30106
:1012300024D39A9499F744FC03C085E690E002C059
:1012400085E490E0B30119D3D7FC05C0C114D104E3
:1012500041F404FF06C0D094C194D108D3948DE228
:1012600001C08BE290E0B30108D380E305C08F5F3B
:1012700026EF3FEFC20ED31E3AE0C316D104BCF7EF
:1012800090E0B301FAD2C601C096B301F6D2CC8485
:10129000DD8446C1933631F0933799F0933509F0E8
:1012A00055C022C0F601808189835E010894A11C8B
:1012B000B11C22E030E0C20ED31E21E0E22EF12C60
:1012C00011C0F601A080B18016FD03C06FEF7FEF63
:1012D00002C0692D70E022E030E0C20ED31EC501CD
:1012E00032D27C011F7712C0F601A080B18016FDBA
:1012F00003C06FEF7FEF02C0692D70E022E030E0A5
:10130000C20ED31EC5010BD27C01106813FF06C0AC
:1013100019C080E290E0B301B0D28A94882D90E0A9
:10132000E816F906B0F30EC0F50117FD859117FF19
:1013300081915F0190E0B301A0D281108A9408945A
:10134000E108F108E114F10479F7EAC0943611F0EC
:10135000993681F517FF08C0F6012081318142815D
:10136000538184E090E00AC0F601808191819C0164
:10137000442737FD4095542F82E090E0C80ED91ED7
:101380009FE6F92EF12257FF09C050954095309500
:1013900021953F4F4F4F5F4F90E8F92ACA01B9019D
:1013A000AE014F5F5F4F2AE030E0DAD2E82EE889E5
:1013B000EE1A40C0953721F41F7E2AE030E01CC0B1
:1013C000197F9F3661F0903720F4983509F0ABC053
:1013D0000FC0903739F0983709F0A5C004C028E055
:1013E00030E00AC0106114FD146020E130E004C058
:1013F00014FD166020E132E017FF08C0F60160819D
:1014000071818281938144E050E008C0F6018081BF
:101410009181BC0180E090E042E050E0C40ED51E16
:10142000AE014F5F5F4F9CD2E82E5889E51A8FE7D7
:10143000F82EF122F6FE0BC08EEFF822E91438F4F4
:10144000F4FE07C0F2FC05C09FEEF92202C01E2D7B
:1014500001C0192DF4FE0DC0FE01EE0DF11D8081BD
:10146000803319F4E9EEFE2208C01F5FF2FE05C0CA
:1014700003C08F2D867809F01F5F0F2DF3FC13C07A
:10148000F0FE0EC0181510F09E2C0AC09E2C980C71
:10149000911A182D05C080E290E0B301EED11F5FD4
:1014A0001815C8F304C0181510F4811A01C0882457
:1014B00004FF0EC080E390E0B301DFD102FF1BC048
:1014C00001FD03C088E790E00EC088E590E00BC006
:1014D000802F867881F001FF02C08BE201C080E29C
:1014E000F7FC8DE290E0B301C8D105C080E390E045
:1014F000B301C3D19A94E914C8F3EA94E1E0F0E0AF
:10150000EC0FFD1FEE0DF11D808190E0B301B5D110
:10151000EE2099F705C080E290E0B301AED18A9445
:101520008820C9F7B4CCF30166817781CB0161963D
:10153000E2E100C4FC0188279927E8942191203238
:10154000E9F3293010F02E30C8F32B3239F02D3268
:1015500031F4689403C03ED1820F911D2191205334
:101560002A30C8F31EF4909581959F4F0895283036
:1015700008F027E03327DA01990F311D87FD9160CC
:1015800000966105710539F432602E5F3D9330E3BA
:101590002A95E1F708959F3F30F080387105610585
:1015A00009F03C5F3C5F3D93913008F08068911DED
:1015B000DF93CF931F930F93FF92EF92192F987F92
:1015C0009695E92F96959695E90FFF27E857FF4FD7
:1015D00099273327EE24FF24A701E70105900894FB
:1015E000079428F4360FE71EF81E491F511D660F99
:1015F000771F881F991F0694A1F70590079428F478
:10160000E70EF81E491F561FC11D770F881F991F2F
:10161000661F0694A1F70590079428F4F80E491F59
:10162000561FC71FD11D880F991F661F771F06946D
:10163000A1F70590079420F4490F561FC71FD81F24
:10164000990F661F771F881F0694A9F7849110953C
:10165000177041F0D695C79557954795F794E7943D
:101660001A95C1F7EEE2F0E0689415901591359166
:101670006591959105907FE27395E118F10A430B0E
:10168000560BC90BD009C0F7E10CF11E431F561FC2
:10169000C91FD01D7EF4703311F48A95E6CFE8940B
:1016A000015030F0080F0AF40027021708F4202F29
:1016B0002395022F7A3328F079E37D932A95E9F771
:1016C00010C07D932A9589F606949795679537956E
:1016D00017951794E118F10A430B560BC90BD00963
:1016E00098F023957E9173957A3308F070E37C939C
:1016F0002013B8F77E9170617D9330F0839571E38C
:101700007D9370E32A95E1F71124EF90FF900F91FC
:101710001F91CF91DF91992787FD90950895FC0146
:101720000590615070400110D8F7809590958E0F0C
:101730009F1F0895FB01DC018D910190801901101C
:10174000D9F3990B0895FC0161507040019001108C
:10175000D8F7809590958E0F9F1F0895009731F4CC
:10176000DA018D919C91009709F40EC0DC01FB0118
:101770003D912191222319F03217C9F3FACF332377
:1017800031F4DA011D921C92882799270895119748
:10179000AF93BF93FB013D912191321771F4332335
:1017A00021F488279927119702C01E921196FA01F9
:1017B000A193B0839F918F910895222369F7EACF77
:1017C000DC016C9161566A3108F0605E6F5B6D936D
:1017D000C1F708957AE0979F902D879F802D910DF6
:1017E000112408950F931F93CF93DF938C01EB0186
:1017F000009731F46115710519F420E030E037C02D
:1018000081E090E06EE070E009D1FC019C0100975E
:1018100071F180E88383209771F0D387C28781E8D4
:1018200083838091100390911103892B21F4F0930D
:101830001103E093100301151105C9F0118700870A
:101840008381826083838091120390911303892B9B
:1018500071F4F0931303E0931203809114039091B9
:101860001503892B21F4F0931503E0931403C901A8
:10187000DF91CF911F910F9108950F931F93CF93F5
:10188000DF938C01EB018B8181FF1BC082FF0DC0B8
:101890002E813F818C819D812817390764F4E8816E
:1018A000F9810193F983E88306C0E885F985802FE3
:1018B0000995892B31F48E819F8101969F838E83B8
:1018C00002C00FEF1FEFC801DF91CF911F910F9161
:1018D0000895A0E0B0E0EEE6FCE020C2FE013596FF
:1018E000619171918091120390911303AF01B8DA65
:1018F0002096E2E02FC20F931F93CF93DF938C01CA
:10190000E0911203F0911303838181FF21C0C0E0B5
:10191000D0E00DC0E0911203F091130320853185D2
:10192000BF01F9010995892B11F0CFEFDFEFF80125
:1019300081918F01882371F7E0911203F0911303D5
:10194000208531858AE0BF01F9010995892B11F0C5
:10195000CFEFDFEFCE01DF91CF911F910F9108956F
:10196000FA01AA27283051F1203181F1E8946F93D0
:101970006E7F6E5F7F4F8F4F9F4FAF4FB1E03ED076
:10198000B4E03CD0670F781F891F9A1FA11D680F14
:10199000791F8A1F911DA11D6A0F711D811D911D47
:1019A000A11D20D009F468943F912AE0269F1124BC
:1019B0003019305D3193DEF6CF010895462F477020
:1019C000405D4193B3E00FD0C9F7F6CF462F4F707B
:1019D000405D4A3318F0495D31FD4052419302D0D9
:1019E000A9F7EACFB4E0A69597958795779567957F
:1019F000BA95C9F700976105710508959B01AC017F
:101A00000A2E06945795479537952795BA95C9F7A5
:101A1000620F731F841F951FA01D08950F931F93BE
:101A2000CF93DF93689F8001699F100D789F100D01
:101A30001124C8010DD0EC01009721F060E070E0A6
:101A4000A80108D1CE01DF91CF911F910F91089588
:101A5000CF93DF93BC018230910510F462E070E017
:101A6000A0911803B0911903ED01E0E0F0E040E02F
:101A700050E021C0888199818617970769F48A818F
:101A80009B81309719F09383828304C0909319034C
:101A900080931803FE0134C06817790738F44115A4
:101AA000510519F08417950708F4AC01FE018A81ED
:101AB0009B819C01E9012097E9F641155105A9F1A7
:101AC000CA01861B970B049708F4BA01E0E0F0E026
:101AD0002AC08D919C91119784179507F9F464178A
:101AE000750781F412968D919C911397309719F098
:101AF0009383828304C09093190380931803FD019C
:101B000032964CC0CA01861B970BFD01E80FF91FE6
:101B10006193719302978D939C9340C0FD018281E4
:101B200093819C01D9011097A1F6809116039091A1
:101B30001703892B41F48091FE009091FF00909350
:101B40001703809316034091000150910101411544
:101B5000510541F44DB75EB78091FC009091FD00B6
:101B6000481B590B2091160330911703CA01821BA1
:101B7000930B8617970780F0AB014E5F5F4F84177A
:101B8000950750F0420F531F5093170340931603CD
:101B9000F9016193719302C0E0E0F0E0CF01DF91C1
:101BA000CF910895CF93DF93009709F450C0EC01D3
:101BB00022971B821A82A0911803B09119031097E3
:101BC00009F140E050E0AC17BD0708F1BB83AA83E0
:101BD000FE0121913191E20FF31FAE17BF0779F497
:101BE0008D919C911197280F391F2E5F3F4F39839C
:101BF000288312968D919C9113979B838A8341151C
:101C0000510571F4D0931903C093180320C01296A4
:101C10008D919C911397AD01009711F0DC01D3CF0A
:101C2000FA01D383C28321913191E20FF31FCE17C2
:101C3000DF0769F488819981280F391F2E5F3F4F94
:101C4000FA01318320838A819B8193838283DF9190
:101C5000CF910895DC0101C06D9341505040E0F7F1
:101C60000895629FD001739FF001829FE00DF11DE6
:101C7000649FE00DF11D929FF00D839FF00D749F06
:101C8000F00D659FF00D9927729FB00DE11DF91FB2
:101C9000639FB00DE11DF91FBD01CF01112408950F
:101CA000991B79E004C0991F961708F0961B881FAE
:101CB0007A95C9F780950895A1E21A2EAA1BBB1B3D
:101CC000FD010DC0AA1FBB1FEE1FFF1FA217B30708
:101CD000E407F50720F0A21BB30BE40BF50B661F1E
:101CE000771F881F991F1A9469F7609570958095E2
:101CF00090959B01AC01BD01CF0108952F923F92B9
:101D00004F925F926F927F928F929F92AF92BF920B
:101D1000CF92DF92EF92FF920F931F93CF93DF93B7
:101D2000CDB7DEB7CA1BDB0B0FB6F894DEBF0FBE14
:101D3000CDBF09942A88398848885F846E847D8461
:101D40008C849B84AA84B984C884DF80EE80FD8063
:101D50000C811B81AA81B981CE0FD11D0FB6F894D9
:101D6000DEBF0FBECDBFED010895EE0FFF1F059042
:0A1D7000F491E02D0994F894FFCFE0
:101D7A000D0A2077656C636F6D6520746F20746837
:101D8A00652061746D656C20626F617264210D0A51
:101D9A000D0A00696C6C6567616C2074696D657306
:101DAA00776974636820696400534554005300548A
:101DBA00494D45003A0020706172742025643A202A
:101DCA003E25733C203D2025640D0A0020682B6DBA
:101DDA002B7320256C7520256C7520256C750D0AD2
:101DEA000053542074696D653A200D0A2530327506
:101DFA003A253032753A2530327520283D256C75E2
:101E0A0029004600474554004700200020001A03D5
:021E1A000000C6
:00000001FF
