:1000000094C08BC3B7C0B6C0B5C0B4C0B3C0B2C093
:10001000B1C0B0C0AFC0C2C2EDC2ACC0ABC0AAC01C
:10002000A9C0A8C0A7C06E616E00696E66000040DE
:100030007A10F35A00A0724E18090010A5D4E800F7
:1000400000E87648170000E40B54020000CA9A3B0F
:10005000000000E1F5050000809698000000404295
:100060000F000000A0860100000010270000000023
:10007000E803000000006400000000000A00000027
:1000800000000100000000002C76D888DC674F08D3
:1000900023DFC1DFAE59E1B1B796E5E3E453C63AD9
:1000A000E651997696E8E6C28426EB898C9B62ED50
:1000B000407C6FFCEFBC9C9F40F2BAA56FA5F4900A
:1000C000055A2AF75C936B6CF9676DC11BFCE0E481
:1000D0000D47FEF520E6B500D0ED902E03009435D7
:1000E00077050080841E080000204E0A000000C82A
:1000F0000C333333330F986E12831141EF8D21147B
:10010000893BE65516CFFEE6DB18D1844B381BF74A
:100110007C1D901DA4BBE424203284725E228100E9
:10012000C9F124ECA1E53D27C40211241FBECFE58F
:10013000D4E0DEBFCDBF11E0A0E6B0E0E4E3FEE135
:1001400002C005900D92A234B107D9F713E0A2E4E2
:10015000B1E001C01D92AB33B107E1F711E0CAE293
:10016000D1E003C02297FE015FDEC832D107D1F78C
:1001700006D05ECE45CF8FD280E090E008952F92DA
:100180003F924F925F926F927F928F929F92AF9227
:10019000BF92CF92DF92EF92FF920F931F93DF9364
:1001A000CF93CDB7DEB72C970FB6F894DEBF0FBE56
:1001B000CDBF78945DD58FEF81BB87BB84BB15BA6B
:1001C0009FD280E690E0FBDB71D480E04CE050E011
:1001D00060E070E00FE010E020E030E091E3E92E15
:1001E000DAD381E044E650E060E070E007E610E03A
:1001F00020E030E0D0D382E046E450E060E070E000
:100200000EE410E020E030E0C6D383E04EE150E0A1
:1002100060E070E003E210E020E030E0BCD384E076
:1002200046E150E060E070E009E110E020E030E0FD
:10023000B2D385E043E050E060E070E009E010E018
:1002400020E030E0A8D3ACD571D681E05DD588EE52
:1002500093E024E131E0F9013197F1F70197D9F703
:10026000FED18C0121E08030920709F4BCC013D28A
:100270000D3009F0B8C060911B0370911C03809190
:100280001D0390911E03E0901B03F0901C0300914E
:100290001D0310911E03A0901B03B0901C03C0907F
:1002A0001D03D0901E0320911B0330911C0340912D
:1002B0001D0350911E032D833E834F83588760900A
:1002C0001B0370901C0380901D0390901E032090D0
:1002D0001B0330901C0340901D0350901E0320917F
:1002E0001B0330911C0340911D0350911E03298371
:1002F0003A834B835C834DB75EB7485050400FB68E
:10030000F8945EBF0FBE4DBFADB7BEB71196BA87AA
:10031000A98723E830E0EDB7FEB73283218320E1DF
:100320003EE040E050E025DDA985BA8512962C9389
:10033000129713961C92C801B7012CE330E040E0FD
:1003400050E017DDE22EC601B50120E13EE040E0BD
:1003500050E00FDDBCE32B9F202D1124E21AE9852C
:10036000FA85E4821582C401B30120E13EE040E059
:1003700050E0FFDC2295207FDD80D21AC201B1015E
:100380002CE330E040E050E0F4DC79018A0169813F
:100390007A818B819C8120E13EE040E050E0E9DC05
:1003A000CA01B9012CE330E040E050E0B7DCE61AC6
:1003B000F70A080B190BFCE3EF9EE02C1124DE1862
:1003C000A985BA851696DC92169717961C92E3DAE1
:1003D000EDB7FEB738960FB6F894FEBF0FBEEDBF6F
:1003E00082E990E0ECDA81D1882309F439CF609179
:1003F0001B0370911C0380911D0390911E03BDD1BE
:1004000081E070D4C82E60911B0370911C03809111
:100410001D0390911E03E0901B03F0901C030091BC
:100420001D0310911E0380901B0390901C03A0904D
:100430001D03B0901E0320911B0330911C034091BB
:100440001D0350911E0329873A874B875C87409094
:100450001B0350901C0360901D0370901E0320919D
:100460001B0330911C0340911D0350911E032D83EB
:100470003E834F83588720911B0330911C0340918A
:100480001D0350911E0329833A834B835C834DB730
:100490005EB74A5050400FB6F8945EBF0FBE4DBFD6
:1004A0002DB63EB60894211C311CE5E9F0E0ADB74D
:1004B000BEB71296FC93EE93119720E13EE040E028
:1004C00050E057DCD10112962C93129713961C9290
:1004D000C801B7012CE330E040E050E04ADCE22EF6
:1004E000C501B40120E13EE040E050E042DCBCE365
:1004F0002B9F202D1124E21AF101E4821582C30101
:10050000B20120E13EE040E050E033DC2295207F64
:10051000D984D21A6D817E818F8198852CE330E059
:1005200040E050E026DC79018A0169817A818B8183
:100530009C8120E13EE040E050E01BDCCA01B901B3
:100540002CE330E040E050E0E9DBE61AF70A080B64
:10055000190BFCE3EF9EE02C1124DE18D101169656
:10056000DC92169717961C9217971896CC921897AC
:1005700019961C9210DAEDB7FEB73A960FB6F894BA
:10058000FEBF0FBEEDBF6CCE81E190E059D08BEB8A
:1005900090E060E070E086D9089508951F920F9270
:1005A0000FB60F9211242F933F938F939F93EF9346
:1005B000FF939BB12CB1809184018F5F8F7130913B
:1005C0008501831711F492E008C09871809384012B
:1005D000E82FF0E0EE59FE4F208390938601FF91C3
:1005E000EF919F918F913F912F910F900FBE0F90A0
:1005F0001F9018951F920F920FB60F9211248F9390
:100600009F93EF93FF9390918201809183019817BC
:1006100069F0809183018F5F8F7180938301E82F50
:10062000F0E0EE5BFE4F80818CB901C05598FF91E0
:10063000EF919F918F910F900FBE0F901F90189583
:100640001092820110928301109284011092850110
:1006500090BD89B988E98AB986E880BD08959091EE
:10066000840180918501981719F420E031E011C0D0
:10067000809185018F5F8F7180938501E82FF0E075
:10068000EE59FE4F808190918601392F20E0280F8E
:10069000311DC9010895909182019F5F9F71209142
:1006A00083019217E1F3E92FF0E0EE5BFE4F8083C8
:1006B00090938201559A0895CF93DF93EC0102C085
:1006C0002196E9DF88818823D9F7DF91CF910895BA
:1006D000CF93DF93EC0101C0DEDFFE012196849110
:1006E0008823D1F7DF91CF910895809187018823E6
:1006F00031F08091870181508093870181E00895D6
:1007000085EB90E05CD98A9885B7836085BF8BB70D
:1007100080648BBF1092870108951F920F920FB6CD
:100720000F9211242F933F934F935F936F937F9377
:100730008F939F93AF93BF93EF93FF938091870124
:100740008F5F809387018CD360931B0370931C038E
:1007500080931D0390931E03FF91EF91BF91AF9182
:100760009F918F917F916F915F914F913F912F91C9
:100770000F900FBE0F901F9018952F923F924F929F
:100780005F926F927F928F929F92AF92BF92CF9221
:10079000DF92EF92FF920F931F93DF93CF93CDB72A
:1007A000DEB728970FB6F894DEBF0FBECDBF9B0112
:1007B000AC0119821A821B821C821D821E821F823A
:1007C0001886A8E8B1E080E090E075E0C72ED12C53
:1007D000CC0EDD1E61E0E62EF12C8E010F5F1F4F67
:1007E0005C01BC01FC01EE0FFF1F660F771F660F57
:1007F000771F660F771FE60FF71FEF56FE4F6081DA
:10080000617009F464C02D903D904D905C901397F9
:1008100014966D907D908D909C90179726143704B8
:100820004804590440F4221533054405550540F4A5
:10083000E0E0F0E00EC0221533054405550538F41C
:10084000E0E0F0E0621673068406950610F0E1E041
:10085000F0E06E2EB501F501EE0FFF1F660F771F5A
:10086000660F771F660F771FE60FF71FE057FE4FE3
:1008700060816F70262E3324B501F501EE0FFF1F46
:10088000660F771F660F771F660F771FE60FF71F3C
:10089000E057FE4F608162956F70F601E20DF31D27
:1008A0005701062E02C0AA0CBB1C0A94E2F7708105
:1008B0007A2970835801A20CB31C772402C0660CFD
:1008C000771C6A95E2F7F5016081662960830196DD
:1008D0001A968832910509F083CFAFE1B3E080E04A
:1008E00090E025E0E22EF12CEC0EFD1E01E010E080
:1008F000BE016F5F7F4F2BC0F501022E02C0F59540
:10090000E7950A94E2F7E0FF18C0F801022E02C052
:10091000EE0FFF1F0A94E2F7AF01F6015081542356
:10092000ED91FC911197552321F05081542B508368
:1009300004C050814095452340832F5F3F4F2830AE
:100940003105D1F6019612968430910559F0F701E0
:10095000E80FF91FA080BB2420E030E06B01C80E37
:10096000D91ECACF28960FB6F894DEBF0FBECDBFF2
:10097000CF91DF911F910F91FF90EF90DF90CF907B
:10098000BF90AF909F908F907F906F905F904F90AF
:100990003F902F9008956F927F928F929F92AF9287
:1009A000BF92CF92DF92EF92FF920F931F93F82E98
:1009B0005A016B013801490187E28F1518F483EC65
:1009C00090E0FDD78F2D90E0FC01EE0FFF1F63E05C
:1009D000880F991F6A95E1F7E80FF91FE857FE4F56
:1009E000A082B182C282D3828F2D90E0FC01EE0FF3
:1009F000FF1F43E0880F991F4A95E1F7E80FF91FA1
:100A0000E857FE4F64827582868297828F2D90E030
:100A1000FC01EE0FFF1F23E0880F991F2A95E1F7D5
:100A2000E80FF91FE857FE4FE0868F2D90E0FC019C
:100A3000EE0FFF1F13E0880F991F1A95E1F7E80FDB
:100A4000F91FEF56FE4F8081816080838E2D8F705D
:100A500090E0880F991FFC01E15EFC4F0190F0814E
:100A6000E02D4081E294AFE0EA2221E030E002C0D4
:100A7000220F331FEA94E2F7322F2095242320839C
:100A80008B5D9C4FDC01ED91FC9111978081832B54
:100A900080831F910F91FF90EF90DF90CF90BF90D8
:100AA000AF909F908F907F906F90089589ED90E028
:100AB00086D7089540911903642F6F7070E0FB0191
:100AC000EE0FFF1FE15EFC4F0190F081E02D908161
:100AD00042954F7021E030E0D90102C0AA0FBB1F40
:100AE0004A95E2F7AD019A2B908390911A03592F02
:100AF0005F7092959F70882391F0E52FF0E0EE0FE4
:100B0000FF1FE15EFC4F0190F081E02D808102C06B
:100B1000220F331F9A95E2F7822B808312C0E52FB4
:100B2000F0E0EE0FFF1FE15EFC4F0190F081E02D41
:100B3000808102C0220F331F9A95E2F72095282367
:100B400020830000FB01EE0FFF1FE15EFC4F0190D0
:100B5000F081E02D80814095482340830000089576
:100B6000EF920F936295607F8F70862B80931803AE
:100B70002295207F4F70422B40931903E29480EF1F
:100B8000E8220F700E2900931A030F91EF90089539
:100B9000FF920F931F93CF93DF93182F062F9091FF
:100BA0001903E92FEF70F0E04FE153E0EE0FFF1F64
:100BB000E40FF51F0190F081E02D808192959F70E8
:100BC00021E030E0B90102C0660F771F9A95E2F785
:100BD000862B808390911803892F8F70C82FD0E0C7
:100BE000CC0FDD1FC40FD51FE881F981808192955C
:100BF0009F7002C0220F331F9A95E2F7F22E822BCC
:100C00008083812F827056DF812F817053DF80E0D7
:100C100051DF802F80784EDF802F80744BDF802F54
:100C2000807248DF802F807145DF802F887042DF1F
:100C3000802F84703FDF802F82703CDF802F817097
:100C400039DFE881F98190818F2D80958923808318
:100C50000000E881F98180818F298083DF91CF9125
:100C60001F910F91FF9008958DEE90E0A8D6089502
:100C70008EEF90E0A4D688E390E0909320038093D9
:100C80001F0385E390E0909322038093210382E386
:100C900090E0909324038093230387E390E0909364
:100CA00026038093250384E390E0909328038093A8
:100CB000270381E390E090932A038093290386E33E
:100CC00090E090932C0380932B0383E390E0909328
:100CD0002E0380932D0380E390E090933003809364
:100CE0002F030895DF93CF930F92CDB7DEB789839B
:100CF00021D08981885B27D045D0898321D0898103
:100D00000F90CF91DF9108951F93182F8FE091E0FE
:100D100056D6185B0FD0812F1FD081E02CD080E6F3
:100D20002AD00ED007D0812F17D080E024D008D051
:100D30001F91089584EA86BF06B607FEFDCF089589
:100D400084E986BF0895880F8F5F83B984E886BFE2
:100D500006B607FEFDCF0895880F83B984E886BFE5
:100D600006B607FEFDCF089583B984E886BF06B6B0
:100D700007FEFDCF089583B984E886BF06B607FE57
:100D8000FDCF089584E886BF06B607FEFDCF83B188
:100D9000089584EC86BF06B607FEFDCF83B10895A3
:100DA0008FE191E00CD684B38F7C84BB85B38063E4
:100DB00085BB85E086BF8AE080B981B18C7F81B92F
:100DC0000895282F6AE0C9D78F7096EF899F902DDC
:100DD0001124920F9F708295807F890F08951F9331
:100DE000DF93CF9300D0CDB7DEB7182F49836A8346
:100DF000A1DF88E6B1DF80E0BEDF4981842FE1DF3B
:100E00008F77B9DF6A81862FDCDFB5DF812FD9DFED
:100E1000B2DF96DF0F900F90CF91DF911F91089571
:100E20001F93DF93CF9300D0CDB7DEB7182F498340
:100E30006A8380DF88E690DF84E09DDF4981842F2C
:100E4000C0DF99DF6A81862FBCDF95DF812FB9DF94
:100E500092DF76DF0F900F90CF91DF911F91089571
:100E6000CF92DF92EF92FF921F93DF93CF930F9277
:100E7000CDB7DEB75FDF88E66FDF80E07CDF60DF65
:100E800059DF88E660DF85DF982F92959F70990F74
:100E9000C92ECC0CCC0CC90E8F70C80EDD24EE24EC
:100EA000FF2477DF182F6EDF89834ADF212F2295F9
:100EB0002F70220F922F990F990F920F1F70910F81
:100EC0002CE3929F90011124442737FD4095542F25
:100ED0008981682F62956F70660F962F990F990F11
:100EE000960F8F70980F692F70E080E19EE0FC01F3
:100EF0006E9FC0016F9F900D7E9F900D1124AA27B9
:100F000097FDA095BA2F280F391F4A1F5B1F2C0D84
:100F10003D1D4E1D5F1DB901CA010F90CF91DF919C
:100F20001F91FF90EF90DF90CF900895DF93CF93C4
:100F30000F92CDB7DEB78CE291E041D5FBDE88E6BB
:100F40000BDF80E018DFFCDEF5DE88E6FCDE1ADF72
:100F50008983F6DE898187FF16C0ECDE88E6FCDE39
:100F600080E009DF80E007DF80E005DF80E003DF6D
:100F700080E001DF80E0FFDE80E0FDDE80E0FBDE80
:100F800080E1F9DEDDDE0F90CF91DF910895A0E1E1
:100F9000B0E0ECECF7E00FC74C013B017A01FC013B
:100FA00017821682838181FD06C08FEF9FEF89C370
:100FB000EC84FD8405C09E012F5F3F4F388B2F8747
:100FC000F4013381F30133FD859133FF81913F01BA
:100FD000882309F473C3853239F433FD859133FFD7
:100FE00081913F01853231F4B4019927A7D4FD8660
:100FF000EC86DECF982FBB241E86AA24FFE1FB15CA
:10100000D0F09B3269F09C3228F4903259F0933240
:1010100091F40EC09D3249F0903369F421E029C06B
:1010200042E0B42A54E0B52A2DC088E0B82A2AC08C
:1010300090E1B92A27C0B7FC2EC0292F20532A30AF
:1010400098F4B6FE07C08AE0A89EC0011124A22E23
:10105000A80E18C08AE0EE85E89FC0011124280F71
:101060002E87F0E2BF2A0EC09E3229F4B6FC26C3BA
:1010700020E4B22A07C09C3619F440E8B42A02C022
:10108000983649F4F30133FD959133FF91913F0177
:10109000992309F0B3CF892F8554833020F48B2D09
:1010A0008061905E07C0892F8556833008F0A0C10B
:1010B0008B2D8F7E86FD02C076E0A72E6FE3B62EC5
:1010C000B822953619F4F0E4BF2A07C0963619F411
:1010D00020E8B22A02C0A110AA94B7FE0AC03BE3DE
:1010E0003A1518F45CE3552E02C05A2C539427E0AD
:1010F00007C047E04A1510F447E0A42E2A2D5524D6
:10110000C70104969D878C87F70160817181828178
:101110009381052DAE014F5F5F4FD6D26C010981DF
:10112000202E332420FE04C023FC02C01DE20BC08D
:101130008B2D992781FF02C01BE205C082FF02C0F0
:1011400010E201C010E0C1018C709070892BD1F1C8
:10115000112311F084E001C083E0FE858F1710F0A9
:101160001E860EC02E85281B2E87B3FC09C0B40135
:1011700080E290E0E3D33E8531503E873323B9F7D8
:10118000112321F0B401812F9927D8D323FE03C066
:1011900006E210E00DC00AE210E00AC0E114F1041A
:1011A00009F08052B4019927C9D30F5F1F4F05C0C2
:1011B000EB2CFF2440E1E422FF24F80184918823F2
:1011C00069F778C2B7FE12C05C0C24FE04C08A81A5
:1011D000813309F45A9415141CF0552453942FC0EC
:1011E000F8E0F51560F538E0532E29C0B6FC27C0AD
:1011F0008A2D99278C159D054CF02CEFC2162FEFE8
:10120000D20624F030E8B32A01C0AA94AA2049F0FB
:10121000E2E0F0E0EC0FFD1FEA0DF11D808180336C
:10122000A1F3B7FE0CC08A2D9927C816D90614F071
:1012300080E002C08A2D8C195A2C5394A82EB7FC3A
:1012400003C025E030E009C01C141D041CF021E09F
:1012500030E003C096012F5F3F4F112311F02F5F45
:101260003F4FAA2029F08A2D99270196280F391F70
:101270004E85842F99272817390714F01E8603C03E
:101280005E85521B5E87EB2CFF24C701897090702E
:10129000892B41F00AC0B40180E290E04FD38E85E3
:1012A00081508E879E859923B1F7112321F0B401D7
:1012B000812F992743D3E3FE08C00AC0B40180E31D
:1012C00090E03CD3EE85E150EE87FE85FF23B1F739
:1012D000B7FE46C08601D7FE02C000E010E07601EE
:1012E0000894E11CF11CE01AF10A21E030E02C0F17
:1012F0003D1FE20EF31EA601451951092A018A2D50
:101300009927AA24BB24A81AB90A5FEF0F3F150733
:1013100021F4B4018EE290E011D3C016D10634F06E
:10132000401651061CF4F701808101C080E3015092
:1013300010400894E11CF11C0A151B0524F0B401AF
:101340009927FCD2E2CF0C151D0539F42A812633EA
:1013500018F4253311F424FE81E3B401992746C023
:101360008A81813309F00F7EB4019927E7D2AA2040
:1013700091F0B4018EE290E0E1D212E0E1E0F0E021
:10138000EC0FFD1FE10FF11D80811F5FB401992754
:10139000D5D2AA9499F7E4FE03C085E490E002C098
:1013A00085E690E0B401CAD2D7FC05C0C114D104CF
:1013B00041F404FF06C0D094C194D108D3948DE2C7
:1013C00001C08BE2B4019927B9D280E305C08F5FD9
:1013D00026EF3FEFC20ED31E3AE0C316D104BCF78E
:1013E000B4019927ABD2B401C601C096A7D262C19D
:1013F000933631F0933799F0933509F061C025C0E9
:10140000A7014E5F5F4F5D874C87F701808189831D
:101410008E010F5F1F4F21E0C22ED12C12C0F701A9
:1014200000811181B6FC03C06FEF7FEF02C06A2D0F
:10143000772797012E5F3F4F3D872C87C80127D222
:101440006C019FE7F92EFB2015C0F7010081118187
:10145000B6FC03C06FEF7FEF02C06A2D77279701BC
:101460002E5F3F4F3D872C87C80106D26C0180E874
:10147000F82EFB28F3FE08C01FC0B40180E290E004
:101480005DD23E8531503E874E85842F9927C81600
:10149000D90698F311C0F801F7FC8591F7FE819108
:1014A0008F01B40199274AD2FE85FF2311F0F15034
:1014B000FE870894C108D108C114D10461F7FAC0AD
:1014C000943611F0993689F5B7FE0BC097012C5F61
:1014D0003F4F3D872C87F701608171818281938125
:1014E0000EC097012E5F3F4F3D872C87F70180810B
:1014F00091819C01B901882777FD8095982F0B2D4C
:101500000F7697FF08C090958095709561957F4FF5
:101510008F4F9F4F00682AE030E0AE014F5F5F4F72
:1015200081D2D82E3F85D31A46C0953729F41B2D7A
:101530001F7E2AE030E01DC01B2D197F9F3661F011
:10154000903720F4983509F0B9C00FC0903739F0C2
:10155000983709F0B3C004C028E030E00AC0106139
:1015600014FD146020E130E004C014FD166020E199
:1015700032E017FF0BC0A7014C5F5F4F5D874C87C0
:10158000F70160817181828193810CC0A7014E5F58
:101590005F4F5D874C87F70180819181AC01BA0173
:1015A00088279927AE014F5F5F4F3CD2D82E5F85C9
:1015B000D51A012F0F7706FF0BC00E7FDA1440F407
:1015C000802F992784FF06C082FD04C00F7E02C0D1
:1015D0001D2D01C01A2D202F332724FF0CC0FE0122
:1015E000ED0DF11D8081803311F4097E08C01F5F6D
:1015F00022FF05C003C0822F867809F01F5FE02E0E
:10160000FF24E3FC15C0E0FE0FC08E85181710F014
:10161000AD2C0AC0AE84AD0CA11A1E8505C0B40164
:1016200080E290E08BD11F5F9E851917C0F306C042
:10163000EE851E1718F4E11BEE8701C01E86E4FE3E
:101640000FC0B40180E390E079D1E2FE1CC0E1FE5E
:1016500003C088E590E002C088E790E0B4010CC0C8
:101660008E2D867881F0E1FE02C08BE201C080E21F
:1016700007FD8DE2B401992761D105C0B40180E373
:1016800090E05CD1AA94DA14C8F3DA94E1E0F0E0D7
:10169000EC0FFD1FED0DF11D8081B40199274ED196
:1016A000DD2041F0F2CFB40180E290E047D1FE8529
:1016B000F150FE872E852223B1F77ACCF401868182
:1016C0009781E2E1609693C3283008F027E0332742
:1016D000DA01990F311D87FD916000966105710552
:1016E00039F432602E5F3D9330E32A95E1F7089597
:1016F0009F3F30F080387105610509F03C5F3C5F29
:101700003D93913008F08068911DDF93CF931F9334
:101710000F93FF92EF92192F987F9695E92F969548
:101720009695E90FFF27E857FF4F99273327EE24B7
:10173000FF24A701E70105900894079428F4360FC9
:10174000E71EF81E491F511D660F771F881F991F3E
:101750000694A1F70590079428F4E70EF81E491F98
:10176000561FC11D770F881F991F661F0694A1F78A
:101770000590079428F4F80E491F561FC71FD11D66
:10178000880F991F661F771F0694A1F7059007948D
:1017900020F4490F561FC71FD81F990F661F771FC8
:1017A000881F0694A9F784911095177041F0D6957B
:1017B000C79557954795F794E7941A95C1F7EEE2C8
:1017C000F0E068941590159135916591959105908B
:1017D0007FE27395E118F10A430B560BC90BD00950
:1017E000C0F7E10CF11E431F561FC91FD01D7EF428
:1017F000703311F48A95E6CFE894015030F0080F69
:101800000AF40027021708F4202F2395022F7A33B9
:1018100028F079E37D932A95E9F710C07D932A9506
:1018200089F6069497956795379517951794E1185B
:10183000F10A430B560BC90BD00998F023957E9102
:1018400073957A3308F070E37C932013B8F77E9198
:1018500070617D9330F0839571E37D9370E32A95F9
:10186000E1F71124EF90FF900F911F91CF91DF913D
:10187000992787FD90950895FC010590615070406F
:101880000110D8F7809590958E0F9F1F0895FC0149
:101890006150704001900110D8F7809590958E0F9F
:1018A0009F1F0895EF92FF920F931F93CF93DF93A3
:1018B0008C017B01892B11F4672BC9F16EE070E07C
:1018C00081E090E00DD1FC01009789F1DC0180E816
:1018D0008383E114F10471F0F386E28681E8838367
:1018E0008091310390913203892B21F4F0933203DC
:1018F000E093310301151105E1F011870087838121
:10190000826083838091330390913403892B89F41F
:10191000F0933403E09333038091350390913603C1
:10192000892B39F4F0933603E093350302C0A0E02D
:10193000B0E0CD01E6E0CDB7DEB765C20F931F93EF
:10194000CF93DF938C01EB018B81992781FF1BC023
:1019500082FF0DC02E813F818C819D812817390720
:1019600064F4E881F9810193F983E88306C0E8858E
:10197000F985802F0995892B31F48E819F810196FD
:101980009F838E8302C00FEF1FEFC801DF91CF91BD
:101990001F910F910895A2E0B0E0E0EDFCE01BC2C2
:1019A000FE01379661917191FA83E983AF018091CD
:1019B000330390913403EBDAE2E0229628C20F93CE
:1019C0001F93CF93DF938C01E0913303F0913403A5
:1019D000838181FF1FC0C0E0D0E00AC0FD012085E7
:1019E0003185BD01F9010995892B11F0CFEFDFEFAA
:1019F000F80181918F01A0913303B09134038823C2
:101A000069F7FD0120853185BD018AE0F90109955D
:101A1000892B11F0CFEFDFEFCE01DF91CF911F9136
:101A20000F910895FA01AA27283051F1203181F150
:101A3000E8946F936E7F6E5F7F4F8F4F9F4FAF4FD6
:101A4000B1E03ED0B4E03CD0670F781F891F9A1FE9
:101A5000A11D680F791F8A1F911DA11D6A0F711D9D
:101A6000811D911DA11D20D009F468943F912AE0A9
:101A7000269F11243019305D3193DEF6CF01089591
:101A8000462F4770405D4193B3E00FD0C9F7F6CFC2
:101A9000462F4F70405D4A3318F0495D31FD40528A
:101AA000419302D0A9F7EACFB4E0A6959795879520
:101AB00077956795BA95C9F70097610571050895FF
:101AC0009B01AC010A2E06945795479537952795AB
:101AD000BA95C9F7620F731F841F951FA01D089543
:101AE0000F931F93CF93DF93689F8001699F100D21
:101AF000789F100D1124C8010DD0EC01009721F042
:101B0000A80160E070E003D1CE01DF91CF911F9179
:101B10000F910895CF93DF93AC01029710F442E048
:101B200050E0A0913903B0913A03FD01C0E0D0E04C
:101B300020E030E020C0808191818417950769F40E
:101B400082819381209719F09B838A8304C09093AC
:101B50003A03809339039F0132C04817590738F47C
:101B60002115310519F08217930708F49C01EF0144
:101B70000280F381E02D3097F1F62115310599F1BE
:101B8000C901841B950B049708F4A901E0E0F0E07B
:101B900028C08D919C91119782179307F9F44817EB
:101BA000590781F4ED018A819B81309719F0938365
:101BB000828304C090933A03809339039D012E5F82
:101BC0003F4F4BC0841B950BFD01E80FF91F41935C
:101BD000519302978D939C939F013FC0FD01A28179
:101BE000B3811097B1F68091370390913803892B18
:101BF00041F480913E0190913F019093380380938E
:101C0000370320914001309141012115310541F404
:101C10002DB73EB780913C0190913D01281B390BB7
:101C2000A0913703B09138032A1B3B0B24173507CB
:101C300090F0CA0102962817390768F09D012E5FBF
:101C40003F4FC901840F951F90933803809337034A
:101C50004D935C9302C020E030E0C901DF91CF9149
:101C60000895CF93DF93009709F44EC0EC012297BB
:101C70001B821A82A0913903B0913A03109711F197
:101C800040E050E001C0DC01AC17BD0700F1BB83B0
:101C9000AA83FE0121913191E20FF31FEA17FB079E
:101CA00071F48D919C911197280F391F2E5F3F4F32
:101CB00039832883FD01828193819B838A83411527
:101CC000510559F4D0933A03C09339031DC0FD0167
:101CD00082819381AD010097B1F6FA01D383C2836B
:101CE00021913191E20FF31FEC17FD0769F4888110
:101CF0009981280F391F2E5F3F4FFA0131832083CE
:101D00008A819B8193838283DF91CF910895DC0147
:101D100001C06D9341505040E0F70895629FD0019B
:101D2000739FF001829FE00DF11D649FE00DF11D96
:101D3000929FF00D839FF00D749FF00D659FF00D45
:101D40009927729FB00DE11DF91F639FB00DE11D32
:101D5000F91FBD01CF0111240895991B79E004C03A
:101D6000991F961708F0961B881F7A95C9F78095DA
:101D70000895A1E21A2EAA1BBB1BFD010DC0AA1FCC
:101D8000BB1FEE1FFF1FA217B307E407F50720F0E4
:101D9000A21BB30BE40BF50B661F771F881F991F5F
:101DA0001A9469F760957095809590959B01AC01A8
:101DB000BD01CF0108952F923F924F925F926F9293
:101DC0007F928F929F92AF92BF92CF92DF92EF92CB
:101DD000FF920F931F93CF93DF93CDB7DEB7CA1B4C
:101DE000DB0B0FB6F894DEBF0FBECDBF09942A8877
:101DF000398848885F846E847D848C849B84AA841F
:101E0000B984C884DF80EE80FD800C811B81AA81AB
:101E1000B981CE0FD11D0FB6F894DEBF0FBECDBF76
:101E2000ED010895EE0FFF1F0590F491E02D099448
:041E3000F894FFCF54
:101E34000D0A2077656C636F6D6520746F2074687C
:101E4400652061746D656C20626F617264210D0A96
:101E54000D0A00253032643A253032643A25303296
:101E640064000D0A0074696D653A20253032643AC5
:101E7400253032643A253032642074656D703A201E
:101E840025640D0A0020696E69743A2074696D65D1
:101E94002E6300696C6C6567616C2074696D657391
:101EA40077697463682069640020696E69743A20F4
:101EB40074696D657377697463682E630020696E55
:101EC40069743A20746C76353632302E630020699A
:101ED4006E69743A20706F72746D61702E630020A5
:101EE400696E69743A20746D703130312E6300204C
:101EF400696E69743A206932632E630020696E69E1
:101F0400743A206473313330372E630020003B036E
:021F14000000CB
:00000001FF
