:1000000093C02EC3ACC0ABC0AAC0A9C0A8C0A7C033
:10001000A6C0A5C0A4C0E7C110C2A1C0A0C09FC017
:100020009EC09DC09CC06E616E00696E66000040FF
:100030007A10F35A00A0724E18090010A5D4E800F7
:1000400000E87648170000E40B54020000CA9A3B0F
:10005000000000E1F5050000809698000000404295
:100060000F000000A0860100000010270000000023
:10007000E803000000006400000000000A00000027
:1000800000000100000000002C76D888DC674F08D3
:1000900023DFC1DFAE59E1B1B796E5E3E453C63AD9
:1000A000E651997696E8E6C28426EB898C9B62ED50
:1000B000407C6FFCEFBC9C9F40F2BAA56FA5F4900A
:1000C000055A2AF75C936B6CF9676DC11BFCE0E481
:1000D0000D47FEF520E6B500D0ED902E03009435D7
:1000E00077050080841E080000204E0A000000C82A
:1000F0000C333333330F986E12831141EF8D21147B
:10010000893BE65516CFFEE6DB18D1844B381BF74A
:100110007C1D901DA4BBE424203284725E228100E9
:10012000C9F124ECA1E53D2711241FBECFE5D4E0A1
:10013000DEBFCDBF10E0A0E6B0E0E4E5FDE102C027
:1001400005900D92A63DB107D9F711E0A6EDB0E0FC
:1001500001C01D92AE35B107E1F706D0F9CD50CF01
:10016000BDD180E090E008952F923F924F925F9230
:100170006F927F928F929F92AF92BF92CF92DF92B7
:10018000EF92FF920F931F93DF93CF93CDB7DEB71C
:100190002C970FB6F894DEBF0FBECDBF81E190E083
:1001A00071D180EB90E060E070E00FDB1BD58FEF4A
:1001B00081BB87BB84BB15BA8A98D2D17FD28BD43E
:1001C00083E066E041E020E003E077E0E72E53E0E3
:1001D000C52E35E0A32E80D480E04CE050E060E0F6
:1001E00070E00FE010E020E030E092E0E92E96D3DE
:1001F00082E043E050E060E070E009E010E020E0E1
:1002000030E08CD3789480E690E068DB25D56AD620
:1002100081E00BD588EE93E024E131E0F9013197DC
:10022000F1F70197D9F72224239480E0622D6CD452
:1002300081E0622D69D480E096E30197F1F731D136
:100240008C0121E08030920739F048D10D3021F443
:10025000FDD183E890E042DB8DD1882329F392D150
:1002600031D281E0D6D4382E609148017091490195
:1002700080914A0190914B01E0904801F090490132
:1002800000914A0110914B01409048015090490162
:1002900060904A0170904B01809048019090490114
:1002A000A0904A01B0904B01209148013091490142
:1002B00040914A0150914B0129873A874B875C87CF
:1002C000209148013091490140914A0150914B01E0
:1002D0002D833E834F8358872091480130914901F7
:1002E00040914A0150914B0129833A834B835C83AF
:1002F0004DB75EB74A5050400FB6F8945EBF0FBE80
:100300004DBFCDB6DEB60894C11CD11C26E830E046
:10031000EDB7FEB73283218320E13EE040E050E0BC
:10032000BEDCF60122831382C801B7012CE330E062
:1003300040E050E0B4DC122FC301B20120E13EE006
:1003400040E050E0ACDCCA01B9012CE330E040E011
:1003500050E07ADC161BF6011483158269857A85D4
:100360008B859C8520E13EE040E050E098DCCA01AE
:10037000B90120E13EE040E050E066DC861A6D8184
:100380007E818F8198852CE330E040E050E087DC6F
:1003900079018A0169817A818B819C8120E13EE02B
:1003A00040E050E07CDCCA01B9012CE330E040E0E1
:1003B00050E04ADCE61AF70A080B190BC801B7012E
:1003C00043DC861AF601868217823086118674DA3B
:1003D0002DB73EB7265F3F4F0FB6F8943EBF0FBE16
:1003E0002DBF22CF08951F920F920FB60F921124A6
:1003F0002F938F939F93EF93FF939BB12CB1E09139
:100400001801EF5FEF7180911901E81711F482E094
:1004100008C0892F8871E0931801F0E0EA50FF4F7F
:10042000208380931A01FF91EF919F918F912F91DB
:100430000F900FBE0F901F9018951F920F920FB63E
:100440000F9211248F939F93EF93FF939091160136
:1004500080911701981761F0E0911701EF5FEF713C
:10046000E0931701F0E0EA52FF4F80818CB901C0A0
:100470005598FF91EF919F918F910F900FBE0F9024
:100480001F901895109216011092170110921801E2
:100490001092190190BD89B988E98AB986E880BDB2
:1004A00008959091180180911901981719F420E08E
:1004B00031E012C0E0911901EF5FEF71E093190193
:1004C000F0E0EA50FF4F308120911A01922F80E036
:1004D000AC01430F511D9A01C9010895282F909135
:1004E00016019F5F9F71809117019817E1F3E92F23
:1004F000F0E0EA52FF4F208390931601559A089539
:10050000DC0111C0909116019F5F9F7180911701CE
:100510009817E1F31196E92FF0E0EA52FF4F20839C
:1005200090931601559A2C91222361F70895AC01FE
:1005300010C0209116012F5F2F718091170128178D
:10054000E1F3E22FF0E0EA52FF4F9083209316018F
:10055000559AFA014F5F5F4F9491992351F708958F
:100560008A9885B7836085BF8BB780648BBF1092F4
:100570001B01089580911B01882319F010921B0123
:1005800081E00895209148013091490140914A014C
:1005900050914B01B901CA010895CF92DF92EF92B9
:1005A000FF920F931F93F62EE72ED82EC92E20E12F
:1005B0003EE040E050E073DB022F10E06F2D7E2D17
:1005C0008D2D9C2D2CE330E040E050E068DB4CE3C7
:1005D00050E0049FC001059F900D149F900D1124C1
:1005E000281B30E08DB79EB708970FB6F8949EBFD2
:1005F0000FBE8DBFEDB7FEB7319686EA90E0ADB77E
:10060000BEB712969C938E93119713830283358302
:1006100024830295007FF01A249FC001259F900D2E
:10062000349F900D1124F81AF682178245D98DB7A0
:100630009EB708960FB6F8949EBF0FBE8DBF1F9150
:100640000F91FF90EF90DF90CF9008956091480157
:100650007091490180914A0190914B019EDF08956C
:100660001F920F920FB60F9211242F933F934F9327
:100670005F936F937F938F939F93AF93BF93EF930A
:10068000FF9381E080931B018CD3609348017093AA
:10069000490180934A0190934B01FF91EF91BF91E3
:1006A000AF919F918F917F916F915F914F913F910A
:1006B0002F910F900FBE0F901F90189581E080939F
:1006C0001C0108952F923F924F925F926F927F92FA
:1006D0008F929F92AF92BF92CF92DF92EF92FF9252
:1006E0000F931F93DF93CF93CDB7DEB728970FB645
:1006F000F894DEBF0FBECDBF6B017C0119821A8258
:100700001B821C821D821E821F8218869DE1A92EDB
:1007100091E0B92E00E010E085E0282E312C2C0E5F
:100720003D1EB1E04B2E512C3E010894611C711C02
:1007300088248394602F912EC801FC01A3E0EE0F62
:10074000FF1FAA95E1F7880F991FE80FF91FEA5DCF
:10075000FE4F808180FF6AC0F50180819181A28176
:10076000B381248135814681578182179307A4077D
:10077000B50788F4C816D906EA06FB0618F480E027
:1007800090E017C080E02C153D054E055F0508F48C
:1007900081E088250EC0C816D906EA06FB0638F4A3
:1007A00080E090E02C153D054E055F0510F081E0DE
:1007B00090E0782F862F992DFC0153E0EE0FFF1F5C
:1007C0005A95E1F7880F991FE80FF91FEB5DFE4F6F
:1007D00040814F7050E0862F992DFC0133E0EE0FE1
:1007E000FF1F3A95E1F7880F991FE80FF91FEB5D9E
:1007F000FE4F608162956F70F101E40FF51F920169
:10080000062E02C0220F331F0A94E2F78081822B4A
:100810008083F301E40FF51F872F90E002C0880F5B
:10082000991F6A95E2F72081282B20830F5F1F4FC5
:100830008AE090E0A80EB91E0430110509F07ACFC5
:10084000ACE4B1E060E070E095E0892E912C8C0E74
:100850009D1E5E010894A11CB11C81E0C82ED12C04
:1008600038C0C701042E02C0959587950A94E2F717
:1008700080FF24C0F801808190E0042E02C095958D
:1008800087950A94E2F7ED91FC91119780FF0BC0D8
:100890002081C601042E02C0880F991F0A94E2F736
:1008A000282B20830BC02081C601042E02C0880F94
:1008B000991F0A94E2F78095822380834F5F5F4FF0
:1008C0004830510571F66F5F7F4F129664307105A5
:1008D00061F0F401E60FF71F8081E82EFF2440E06D
:1008E00050E08501060F171FBCCF28960FB6F8946D
:1008F000DEBF0FBECDBFCF91DF911F910F91FF9053
:10090000EF90DF90CF90BF90AF909F908F907F90AF
:100910006F905F904F903F902F9008954F925F920D
:100920006F927F928F929F92AF92BF92CF92EF92EF
:10093000FF920F931F93F82E4A015B0128013901A2
:100940001E2D83E08F1518F485EB90E0C7D78F2D0F
:1009500090E0FC0133E0EE0FFF1F3A95E1F7880FBE
:10096000991FE80FF91FE35EFE4F80829182A282F9
:10097000B3828F2D90E0FC0103E0EE0FFF1F0A957C
:10098000E1F7880F991FE80FF91FE35EFE4F4482DD
:100990005582668277828F2D90E0FC01A3E0EE0FF6
:1009A000FF1FAA95E1F7880F991FE80FF91FEB5D6C
:1009B000FE4F1F708081807F812B80838F2D90E080
:1009C000FC0163E0EE0FFF1F6A95E1F7880F991FA6
:1009D000E80FF91FEB5DFE4FC29440EFC422808107
:1009E0008F708C2980838F2D90E0FC0133E0EE0F17
:1009F000FF1F3A95E1F7880F991FE80FF91FEA5D8D
:100A0000FE4F8081816080831F910F91FF90EF9056
:100A1000CF90BF90AF909F908F907F906F905F909E
:100A20004F90089520914601922F9F70A92FB0E01A
:100A3000FD01EE0FFF1FE45BFE4F0190F081E02D02
:100A4000908122952F7041E050E0BA0102C0660FFC
:100A5000771F2A95E2F79B01962B90838823B1F0AC
:100A600090914701E92FEF70F0E0EE0FFF1FE45B7C
:100A7000FE4F0190F081E02D808192959F7002C021
:100A8000440F551F9A95E2F7842B17C080914701B8
:100A9000E82FEF70F0E0EE0FFF1FE45BFE4F0190D8
:100AA000F081E02D908182958F7002C0440F551F18
:100AB0008A95E2F7842F8095892380830000AA0F0E
:100AC000BB1FA45BBE4FED91FC9180812095282334
:100AD0002083000008950895EF920F936295607F40
:100AE0008F70862B809345012295207F4F70422B7B
:100AF00040934601E29450EFE5220F700E290093D7
:100B000047010F91EF900895DF92EF92FF920F93BC
:100B10001F93E82EF62E80914601E82FEF70F0E04B
:100B20004CE451E0EE0FFF1FE40FF51F0190F08140
:100B3000E02D208182958F7061E070E0DB0102C0C2
:100B4000AA0FBB1F8A95E2F72A2B208390914501BB
:100B5000092F0F7010E0000F111F040F151FD8018F
:100B6000ED91FC91808192959F7002C0660F771F76
:100B70009A95E2F7D62E862B80838E2D827052DFD7
:100B80008E2D81704FDF80E04DDF8F2D80784ADF22
:100B90008F2D807447DF8F2D807244DF8F2D807101
:100BA00041DF8F2D88703EDF8F2D84703BDF8F2DCE
:100BB000827038DF8F2D817035DFD801ED91FC9187
:100BC000119790818D2D8095892380830000ED9170
:100BD000FC9180818D2980831F910F91FF90EF9070
:100BE000DF90089510924D0110924C0188E390E03F
:100BF00090934F0180934E0185E390E090935101D3
:100C00008093500182E390E09093530180935201CE
:100C100008951F93182F2ED0812F886434D052D07E
:100C2000182F2ED0812F1F9108951F93182F8BEC12
:100C300090E054D61FD0812F885B2ED081E03BD02E
:100C400080E639D01DD016D0812F886425D080E071
:100C500032D016D01F91089584B38F7C84BB85B3A6
:100C6000806385BB85E086BF8AE080B981B18C7FD7
:100C700081B9089584EA86BF06B607FEFDCF0895C0
:100C800084E986BF0895880F816083B984E886BFB0
:100C900006B607FEFDCF0895880F83B984E886BFA6
:100CA00006B607FEFDCF089583B984E886BF06B671
:100CB00007FEFDCF089583B984E886BF06B607FE18
:100CC000FDCF089584E886BF06B607FEFDCF83B149
:100CD000089584EC86BF06B607FEFDCF83B1089564
:100CE000982F84EA86BF06B607FEFDCF892F880FAE
:100CF00083B984E886BF06B607FEFDCF63B984E8F2
:100D000086BF06B607FEFDCF84E986BF84EA86BFAC
:100D100006B607FEFDCF990F916093B984E886BFB0
:100D200006B607FEFDCF089584EC86BF06B607FE23
:100D3000FDCF83B1089584E886BF06B607FEFDCFD8
:100D400083B194E996BF089584EA86BF06B607FE8C
:100D5000FDCF80ED83B984E886BF06B607FEFDCFE0
:100D6000089583B984E886BF06B607FEFDCF0895CF
:100D700083B984E886BF06B607FEFDCF84E986BF47
:100D80000895382F6AE07FD7282F2F7086EF9FEFC6
:100D9000289F802D1124830F8F702295207F820F32
:100DA0000895AF92BF92CF92DF92EF92FF920F938E
:100DB0001F9388E6C9DF80E0DBDF88E660E090DF34
:100DC000B3DFA82E82958F7090E09C01A3E0220FE4
:100DD000331FAA95E1F7880F991F280F391F4FE09D
:100DE000A422A20EBB24CC24DD249EDFE82EA3DFA8
:100DF0002E2D22952F7030E0A901E3E0440F551FFE
:100E0000EA95E1F7220F331F420F531F9FE0E922BB
:100E1000E40E2CE3E29E700111240027F7FC0095FC
:100E2000102F282F22952F7030E0A90163E0440F86
:100E3000551F6A95E1F7220F331F420F531F8F7022
:100E4000840F90E020E13EE0AC01429FC001439F4F
:100E5000900D529F900D1124AA2797FDA095BA2FAF
:100E6000E80EF91E0A1F1B1FEA0CFB1C0C1D1D1DA2
:100E7000B701C8011F910F91FF90EF90DF90CF90C5
:100E8000BF90AF900895FF920F931F93F82E062FF7
:100E9000142F88E659DF80E064DF812F72DF8F77BF
:100EA00060DF802F6EDF5DDF8F2D6BDF61DF1F91D5
:100EB0000F91FF900895FF920F931F93F82E062F26
:100EC000142F88E641DF84E04CDF812F5ADF49DFB1
:100ED000802F57DF46DF8F2D54DF4ADF1F910F91A0
:100EE000FF90089588E660E0FBDE25DF87FF14C0F1
:100EF00088E62ADF80E035DF80E033DF80E031DF25
:100F000080E02FDF80E02DDF80E02BDF80E029DF35
:100F100080E027DF80E12CDF0895A1E1B0E0E2E985
:100F2000F7E0DFC63C017F876E876A01FC0117820C
:100F30001682838181FD03C06FEF7FEF54C39E0152
:100F40002F5F3F4F398B288BF3012381EE85FF857F
:100F500023FD859123FF8191FF87EE87882309F484
:100F60003FC3853251F4EE85FF8523FD859123FF34
:100F70008191FF87EE87853221F490E0B30170D430
:100F8000E3CF982F10E0882499241032B0F49B32DC
:100F900069F09C3228F4903251F0933271F40BC016
:100FA0009D3239F0903349F4116028C0126014600A
:100FB00025C0186023C0106121C017FD2AC0892FE9
:100FC00080538A3078F416FF06C0FAE09F9E902C7A
:100FD0001124980E13C03AE0839E802C1124880EB1
:100FE00010620CC09E3221F416FDFAC2106406C0D5
:100FF0009C3611F4106802C0983659F4EE85FF85CE
:1010000023FD959123FF9191FF87EE87992309F0A6
:10101000BCCF892F8554833020F4812F8061905E6E
:1010200007C0892F8556833008F091C1812F8F7EAC
:1010300086FD02C076E0972E6FE3F62EF8229536F5
:1010400019F4F0E4FF2A07C0963619F420E8F22AD2
:1010500002C091109A94F7FE0BC03BE3391520F4BF
:1010600027E05CE3B52E0EC0B92CB39427E00AC08C
:1010700047E0491528F427E0BB2447E0942E02C03E
:10108000292DBB24C60104969D878C87F6016081BB
:10109000718182819381AE014F5F5F4F0B2DA7D28B
:1010A0006C010981202E332400FF04C003FD02C01F
:1010B0001DE209C0F1FE02C01BE205C0F2FC02C045
:1010C00010E001C010E2C1018C709070892BA1F179
:1010D000112311F483E001C084E0881510F0882406
:1010E00009C0881AF3FC06C080E290E0B301B8D3CF
:1010F0008A94D1F7112321F0812F90E0B301B0D36E
:1011000023FE03C006E210E00DC00AE210E00AC0B0
:10111000E114F10409F0805290E0B301A1D30F5F14
:101120001F4F05C0EF2CFF24F0E1EF22FF24F80150
:101130008491882369F708C1F7FE12C0BC0C24FE15
:1011400004C08A81813309F4BA941B141CF0BB24B7
:10115000B3942DC0F8E0FB1550F538E0B32E27C04E
:10116000F6FC25C0892D90E08C159D054CF02CEFE8
:10117000C2162FEFD20624F030E8F32A01C09A9469
:10118000992049F0E2E0F0E0EC0FFD1FE90DF11DC0
:1011900080818033A1F3F7FE0AC0B92CB394892D66
:1011A00090E0C816D90614F0992401C09C18F7FCE9
:1011B00003C025E030E009C01C141D041CF021E030
:1011C00030E003C096012F5F3F4F112311F02F5FD6
:1011D0003F4F992029F0892D90E00196280F391F63
:1011E000882D90E02817390714F0882401C0821A4E
:1011F0004F2C5524C20189709070892B31F007C0A3
:1012000080E290E0B3012CD38A948820C9F711239F
:1012100021F0812F90E0B30123D343FE06C007C025
:1012200080E390E0B3011CD38A948820C9F7F7FECD
:1012300044C08601D7FE02C000E010E076010894A9
:10124000E11CF11CE01AF10A41E050E04C0F5D1F77
:10125000E40EF51E26014B185108892D90E0AA24B2
:10126000BB24A81AB90A5FEF0F3F150721F48EE2DD
:1012700090E0B301F5D2C016D10634F04016510605
:101280001CF4F701808101C080E3015010400894F4
:10129000E11CF11C0A151B0524F090E0B301E0D21B
:1012A000E2CF0C151D0539F49A81963318F4953365
:1012B00011F424FE81E390E045C08A81813309F076
:1012C0000F7E90E0B301CCD2992091F08EE290E0B5
:1012D000B301C6D212E0E1E0F0E0EC0FFD1FE10F38
:1012E000F11D1F5F808190E0B301BAD29A9499F703
:1012F00044FC03C085E690E002C085E490E0B301C1
:10130000AFD2D7FC05C0C114D10441F404FF06C01C
:10131000D094C194D108D3948DE201C08BE290E0C7
:10132000B3019ED280E305C08F5F26EF3FEFC20E70
:10133000D31E3AE0C316D104BCF790E0B30190D2BB
:10134000C601C096B3018CD2CC84DD8446C19336ED
:1013500031F0933799F0933509F055C022C0F6016A
:10136000808189835E010894A11CB11C22E030E0D9
:10137000C20ED31E21E0E22EF12C11C0F601A08096
:10138000B18016FD03C06FEF7FEF02C0692D70E0E2
:1013900022E030E0C20ED31EC5010CD27C011F77C3
:1013A00012C0F601A080B18016FD03C06FEF7FEF81
:1013B00002C0692D70E022E030E0C20ED31EC501EC
:1013C000EED17C01106813FF06C019C080E290E0E6
:1013D000B30146D28A94882D90E0E816F906B0F35E
:1013E0000EC0F50117FD859117FF81915F0190E017
:1013F000B30136D281108A940894E108F108E1140F
:10140000F10479F7EAC0943611F0993681F517FFA7
:1014100008C0F601208131814281538184E090E04F
:101420000AC0F601808191819C01442737FD4095D7
:10143000542F82E090E0C80ED91E9FE6F92EF122CB
:1014400057FF09C050954095309521953F4F4F4F1C
:101450005F4F90E8F92ACA01B901AE014F5F5F4FB3
:101460002AE030E070D2E82EE889EE1A40C09537C5
:1014700021F41F7E2AE030E01CC0197F9F3661F006
:10148000903720F4983509F0ABC00FC0903739F091
:10149000983709F0A5C004C028E030E00AC0106108
:1014A00014FD146020E130E004C014FD166020E15A
:1014B00032E017FF08C0F60160817181828193815B
:1014C00044E050E008C0F60180819181BC0180E0D9
:1014D00090E042E050E0C40ED51EAE014F5F5F4F7A
:1014E00032D2E82E5889E51A8FE7F82EF122F6FE5F
:1014F0000BC08EEFF822E91438F4F4FE07C0F2FCBA
:1015000005C09FEEF92202C01E2D01C0192DF4FE68
:101510000DC0FE01EE0DF11D8081803319F4E9EE5E
:10152000FE2208C01F5FF2FE05C003C08F2D867823
:1015300009F01F5F0F2DF3FC13C0F0FE0EC018154D
:1015400010F09E2C0AC09E2C980C911A182D05C0E4
:1015500080E290E0B30184D11F5F1815C8F304C086
:10156000181510F4811A01C0882404FF0EC080E30E
:1015700090E0B30175D102FF1BC001FD03C088E7F5
:1015800090E00EC088E590E00BC0802F867881F057
:1015900001FF02C08BE201C080E2F7FC8DE290E027
:1015A000B3015ED105C080E390E0B30159D19A94B4
:1015B000E914C8F3EA94E1E0F0E0EC0FFD1FEE0D52
:1015C000F11D808190E0B3014BD1EE2099F705C069
:1015D00080E290E0B30144D18A948820C9F7B4CC6A
:1015E000F30166817781CB016196E2E196C32830F1
:1015F00008F027E03327DA01990F311D87FD91604C
:1016000000966105710539F432602E5F3D9330E339
:101610002A95E1F708959F3F30F080387105610504
:1016200009F03C5F3C5F3D93913008F08068911D6C
:10163000DF93CF931F930F93FF92EF92192F987F11
:101640009695E92F96959695E90FFF27E857FF4F56
:1016500099273327EE24FF24A701E701059008947A
:10166000079428F4360FE71EF81E491F511D660F18
:10167000771F881F991F0694A1F70590079428F4F7
:10168000E70EF81E491F561FC11D770F881F991FAF
:10169000661F0694A1F70590079428F4F80E491FD9
:1016A000561FC71FD11D880F991F661F771F0694ED
:1016B000A1F70590079420F4490F561FC71FD81FA4
:1016C000990F661F771F881F0694A9F784911095BC
:1016D000177041F0D695C79557954795F794E794BD
:1016E0001A95C1F7EEE2F0E06894159015913591E6
:1016F0006591959105907FE27395E118F10A430B8E
:10170000560BC90BD009C0F7E10CF11E431F561F41
:10171000C91FD01D7EF4703311F48A95E6CFE8948A
:10172000015030F0080F0AF40027021708F4202FA8
:101730002395022F7A3328F079E37D932A95E9F7F0
:1017400010C07D932A9589F60694979567953795ED
:1017500017951794E118F10A430B560BC90BD009E2
:1017600098F023957E9173957A3308F070E37C931B
:101770002013B8F77E9170617D9330F0839571E30B
:101780007D9370E32A95E1F71124EF90FF900F917C
:101790001F91CF91DF91992787FD90950895FC01C6
:1017A0000590615070400110D8F7809590958E0F8C
:1017B0009F1F0895FC016150704001900110D8F7FF
:1017C000809590958E0F9F1F08950F931F93CF9331
:1017D000DF938C01EB01009731F46115710519F469
:1017E00020E030E037C081E090E06EE070E009D1A9
:1017F000FC019C01009771F180E88383209771F0D0
:10180000D387C28781E883838091540190915501E9
:10181000892B21F4F0935501E09354010115110532
:10182000C9F011870087838182608383809156018C
:1018300090915701892B71F4F0935701E093560171
:101840008091580190915901892B21F4F09359010D
:10185000E0935801C901DF91CF911F910F91089535
:101860000F931F93CF93DF938C01EB018B8181FF4B
:101870001BC082FF0DC02E813F818C819D81281766
:10188000390764F4E881F9810193F983E88306C09C
:10189000E885F985802F0995892B31F48E819F8108
:1018A00001969F838E8302C00FEF1FEFC801DF9167
:1018B000CF911F910F910895A0E0B0E0E1E6FCE028
:1018C00020C2FE01359661917191809156019091EF
:1018D0005701AF0122DB2096E2E02FC20F931F9346
:1018E000CF93DF938C01E0915601F09157018381F2
:1018F00081FF21C0C0E0D0E00DC0E0915601F09121
:10190000570120853185BF01F9010995892B11F017
:10191000CFEFDFEFF80181918F01882371F7E0911C
:101920005601F0915701208531858AE0BF01F90108
:101930000995892B11F0CFEFDFEFCE01DF91CF9129
:101940001F910F910895FA01AA27283051F12031F3
:1019500081F1E8946F936E7F6E5F7F4F8F4F9F4F43
:10196000AF4FB1E03ED0B4E03CD0670F781F891F85
:101970009A1FA11D680F791F8A1F911DA11D6A0F53
:10198000711D811D911DA11D20D009F468943F9106
:101990002AE0269F11243019305D3193DEF6CF0105
:1019A0000895462F4770405D4193B3E00FD0C9F7CB
:1019B000F6CF462F4F70405D4A3318F0495D31FD38
:1019C0004052419302D0A9F7EACFB4E0A69597958B
:1019D000879577956795BA95C9F700976105710561
:1019E00008959B01AC010A2E0694579547953795AB
:1019F0002795BA95C9F7620F731F841F951FA01D05
:101A000008950F931F93CF93DF93689F8001699F81
:101A1000100D789F100D1124C8010DD0EC01009716
:101A200021F060E070E0A80108D1CE01DF91CF91F4
:101A30001F910F910895CF93DF93BC0182309105E0
:101A400010F462E070E0A0915C01B0915D01ED01E5
:101A5000E0E0F0E040E050E021C088819981861705
:101A6000970769F48A819B81309719F09383828369
:101A700004C090935D0180935C01FE0134C068173F
:101A8000790738F44115510519F08417950708F4C2
:101A9000AC01FE018A819B819C01E9012097E9F656
:101AA00041155105A9F1CA01861B970B049708F44B
:101AB000BA01E0E0F0E02AC08D919C911197841763
:101AC0009507F9F46417750781F412968D919C912E
:101AD0001397309719F09383828304C090935D012C
:101AE00080935C01FD0132964CC0CA01861B970BA6
:101AF000FD01E80FF91F6193719302978D939C93F9
:101B000040C0FD01828193819C01D9011097A1F60B
:101B100080915A0190915B01892B41F48091D20010
:101B20009091D30090935B0180935A014091D4002F
:101B30005091D5004115510541F44DB75EB78091E4
:101B4000D0009091D100481B590B20915A0130913F
:101B50005B01CA01821B930B8617970780F0AB01CC
:101B60004E5F5F4F8417950750F0420F531F5093FD
:101B70005B0140935A01F9016193719302C0E0E067
:101B8000F0E0CF01DF91CF910895CF93DF930097DD
:101B900009F450C0EC0122971B821A82A0915C01CB
:101BA000B0915D01109709F140E050E0AC17BD071E
:101BB00008F1BB83AA83FE0121913191E20FF31F4B
:101BC000AE17BF0779F48D919C911197280F391F9B
:101BD0002E5F3F4F3983288312968D919C911397E6
:101BE0009B838A834115510571F4D0935D01C093A5
:101BF0005C0120C012968D919C911397AD010097C6
:101C000011F0DC01D3CFFA01D383C283219131914A
:101C1000E20FF31FCE17DF0769F488819981280F3F
:101C2000391F2E5F3F4FFA01318320838A819B81C8
:101C300093838283DF91CF910895DC0101C06D937E
:101C400041505040E0F70895629FD001739FF0012A
:101C5000829FE00DF11D649FE00DF11D929FF00D3C
:101C6000839FF00D749FF00D659FF00D9927729F73
:101C7000B00DE11DF91F639FB00DE11DF91FBD01FE
:101C8000CF0111240895991B79E004C0991F96177C
:101C900008F0961B881F7A95C9F780950895A1E2F0
:101CA0001A2EAA1BBB1BFD010DC0AA1FBB1FEE1FD6
:101CB000FF1FA217B307E407F50720F0A21BB30B21
:101CC000E40BF50B661F771F881F991F1A9469F79D
:101CD00060957095809590959B01AC01BD01CF01F9
:101CE00008952F923F924F925F926F927F928F92C0
:101CF0009F92AF92BF92CF92DF92EF92FF920F939B
:101D00001F93CF93DF93CDB7DEB7CA1BDB0B0FB6A4
:101D1000F894DEBF0FBECDBF09942A883988488861
:101D20005F846E847D848C849B84AA84B984C884F7
:101D3000DF80EE80FD800C811B81AA81B981CE0FEE
:101D4000D11D0FB6F894DEBF0FBECDBFED010895D3
:041D5000F894FFCF35
:101D54000D0A2077656C636F6D6520746F2074685D
:101D6400652061746D656C20626F617264210D0A77
:101D74000D0A000D0A0074696D653A20253032643D
:101D84003A253032643A253032642074656D703AF5
:101D94002025640D0A00253032643A253032643A35
:101DA4002530326400696C6C6567616C2074696D00
:101DB400657377697463682069640061736466009D
:061DC40020005E0100009A
:00000001FF
