:10000000E0C096C203C102C101C100C1FFC0FEC071
:10001000FDC0FCC0FBC0CFC1F8C1F8C0F7C0F6C03E
:10002000F5C0F4C0F3C077726F6E67206F7574709F
:100030007574206E756D6265720D0A004F555450CF
:1000400055545F48454154494E475F4C414D50001F
:100050004F55545055545F48454154494E475F579A
:10006000495245004F55545055545F464F474745F8
:1000700052004F55545055545F4C32004F55545018
:1000800055545F4C310077726F6E67206F757470D6
:100090007574206E756D6265720D0A00000D0A00A0
:1000A0004F4B004641494C00207A657277617300DE
:1000B00048454C4C4F00474554005345540020558B
:1000C0004E4B4E4F574E20434F4D4D414E44004FE7
:1000D00055545055540048554D4944495459534579
:1000E00054504F494E540054454D50534554504F71
:1000F000494E540054494D45520044415954494DCC
:10010000450044415445005449544C450054494D20
:10011000450020554E4B4E4F574E20434F4D4D41BD
:100120004E44005465727261436F6E74726F6C203E
:10013000302E312C206D727520323030390D0A008E
:1001400056455253494F4E004F5554505554530045
:1001500048554D4944495459534554504F494E54BC
:100160000048554D49444954590054454D50534554
:1001700054504F494E540054454D500054494D453C
:1001800052530044415954494D450044415445009F
:100190005449544C450054494D45000D0A000D0A80
:1001A000000D0A000D0A002B20000D0A000D0A00A8
:1001B00020000D0A0020000D0A002030002B200036
:1001C000D70111241FBECFE5D4E0DEBFCDBF10E0C4
:1001D000A0E6B0E0E4E5FCE102C005900D92A8388D
:1001E000B107D9F711E0A8E8B0E001C01D92A0372F
:1001F000B107E1F711E0C2ECD1E003C02297FE01A4
:10020000ECDCC03CD107D1F7A5D022CDF9CE0F93BD
:100210001F93DF93CF93CDB7DEB729970FB6F8942E
:10022000DEBF0FBECDBF60911801709119018091A2
:100230001A0190911B0120911C0130911D014091E8
:100240001E0150911F018FD1182F8BDB8093170156
:100250008ADB8093880087D2113011F053E001C00F
:1002600054E0A12FB0E020E030E0FD01ED5FFE4F53
:10027000909117018081981710F421E030E0220F4F
:10028000331F220F331F40918900422B20E030E0C2
:10029000AF5FBE4F909188008C91981710F421E0C9
:1002A00030E002C0220F331F5A95E2F7842F822BD1
:1002B00080938900C6DBA9D6809188008E010F5FEC
:1002C0001F4FB80153DB95D680E690E092D680911F
:1002D0001701B8014BDB8DD683E690E08AD681E02A
:1002E00060E077D680918A00882319F0813039F553
:1002F00017C0609124017091250180912601909191
:100300002701A80170D175D680918B008F5F8093F3
:100310008B008150833099F481E080938A000DC076
:1003200085E091E066D680918B008F5F80938B0093
:100330008150833021F410928A0010928B0029960C
:100340000FB6F894DEBF0FBECDBFCF91DF911F91E6
:100350000F91089588EE93E024E131E0F90131979F
:10036000F1F70197D9F755D478943CD28FEF81BB40
:1003700087BB84BB15BAEDD0B9D1AFD20FD481E021
:1003800099D256D6FAD5A4DA5BDB80E060E021D6BC
:1003900085E690E02ED640DA6CD021E080309207DE
:1003A00009F0B1D67AD18823B9F331DFF5CF81E1F5
:1003B00090E050D008951F920F920FB60F92112423
:1003C0002F938F939F93EF93FF939BB12CB1E09169
:1003D000CE00EF5FEF718091CF00E81711F482E05B
:1003E00008C0892F8871E093CE00F0E0E455FF4FFC
:1003F00020838093D000FF91EF919F918F912F9157
:100400000F900FBE0F901F9018951F920F920FB66E
:100410000F9211248F939F93EF93FF939091CC00B1
:100420008091CD00981761F0E091CD00EF5FEF7102
:10043000E093CD00F0E0E457FF4F80818CB901C01C
:100440005598FF91EF919F918F910F900FBE0F9054
:100450001F9018951092CC001092CD001092CE00F3
:100460001092CF0090BD89B988E98AB986E880BD2D
:1004700008959091CE008091CF00981719F420E054
:1004800031E012C0E091CF00EF5FEF71E093CF0059
:10049000F0E0E455FF4F30812091D000922F80E0B2
:1004A000AC01430F511D9A01C9010895282F909165
:1004B000CC009F5F9F718091CD009817E1F3E92FE9
:1004C000F0E0E457FF4F20839093CC00559A0895B5
:1004D000DC0111C09091CC009F5F9F718091CD0095
:1004E0009817E1F31196E92FF0E0E457FF4F2083CE
:1004F0009093CC00559A2C91222361F70895AC017A
:1005000010C02091CC002F5F2F718091CD00281753
:10051000E1F3E22FF0E0E457FF4F90832093CC000B
:10052000559AFA014F5F5F4F9491992351F70895BF
:100530001F920F920FB60F9211248F938091D100CA
:100540008F5F8093D1008F910F900FBE0F901F90FF
:1005500018958A9885B7836085BF8BB780648BBFF9
:100560001092D1000895EF92FF920F931F9379019B
:100570008A01621773078407950711F480E02EC083
:1005800020912401309125014091260150912701AD
:100590006E157F058007910798F4261737074807DF
:1005A000590718F480E090E019C090E0E216F306D5
:1005B0000407150708F491E081E09827892F0EC001
:1005C000261737074807590738F480E090E0E2160D
:1005D000F3060407150710F081E090E01F910F91DA
:1005E000FF90EF900895CF92DF92EF92FF920F93DA
:1005F0001F937B018C016A01C801AA27BB27BA019E
:10060000EBD9BB27A12F902F8F2DB6016D5F7F4FA8
:10061000E3D9B6016A5F7F4F8E2DDED98AE3F601FA
:1006200082838583C6011F910F91FF90EF90DF9029
:10063000CF900895CF92DF92EF92FF920F931F9386
:10064000DF93CF9300D000D0CDB7DEB77B018C0114
:10065000AA27BB276E010894C11CD11CB601BCD9C6
:1006600037DF8EE223DFBB27A12F902F8F2DB6011E
:10067000B3D92EDF8EE21ADF8E2DB601ADD928DF79
:100680000F900F900F900F90CF91DF911F910F91CE
:10069000FF90EF90DF90CF9008958091D100882354
:1006A000C1F00FD26093240170932501809326013D
:1006B0009093270199D16093200170932101809339
:1006C0002201909323018091D10081508093D10029
:1006D00081E008959C01E199FECF3FBB2EBB6DBB2D
:1006E0000FB6F894E29AE19A0FBE08950895CF925A
:1006F000EF920F931F93A82FB0E0FD0193E0EE0F50
:10070000FF1F9A95E1F7EA0FFB1FE85DFE4F40835C
:100710005183628373830483158326833783CC20BC
:1007200011F490E001C090E89E29FD0123E0EE0F56
:10073000FF1F2A95E1F7EA0FFB1FE85DFE4F908748
:1007400069E0869FB0011124CB018B5E9F4F685DED
:100750007E4F49E050E02AE633E0F0D91F910F9137
:10076000EF90CF900895EF92FF920F931F93CF9346
:10077000DF931092890000E010E031E0E32EF12CCD
:10078000E80123E0CC0FDD1F2A95E1F7C00FD11F50
:10079000C85DDE4F888587FF19C0688179818A81AD
:1007A0009B812C813D814E815F81DDDE882371F04C
:1007B00088858F77970102C0220F331F8A95E2F751
:1007C000C90120918900282B209389000F5F1F4FBA
:1007D00008301105A9F6DF91CF911F910F91FF907D
:1007E000EF90089587B38E6387BB88B3817C88BB05
:1007F0000895823091F0833028F4882341F08130CD
:10080000A9F408C0833061F0843081F40CC08CE717
:1008100090E00EC082E790E00BC084E690E008C054
:1008200080E590E005C08CE390E002C086E290E0B5
:1008300066DE0895623071F0633028F46623A1F01B
:10084000613071F405C0633039F0643049F406C09A
:1008500034E00BC033E009C032E007C031E005C02E
:1008600086E890E04CDE089535E0882359F028B3FF
:1008700081E090E002C0880F991F3A95E2F7282B9B
:1008800028BB089528B381E090E002C0880F991F2B
:100890003A95E2F78095822388BB08951F93182F1D
:1008A0002AD0812F885B30D04ED0182F2AD0812FAC
:1008B0001F9108951F93182F185B1DD0812F2DD0E5
:1008C00081E03AD080E638D01CD015D0812F25D0D9
:1008D00080E032D016D01F91089584B38F7C84BB02
:1008E00085B3806385BB85E086BF8AE080B981B12E
:1008F0008C7F81B9089584EA86BF06B607FEFDCFD6
:10090000089584E986BF0895880F8F5F83B984E8CE
:1009100086BF06B607FEFDCF0895880F83B984E829
:1009200086BF06B607FEFDCF089583B984E886BF6B
:1009300006B607FEFDCF089583B984E886BF06B6E4
:1009400007FEFDCF089584E886BF06B607FEFDCFFB
:1009500083B1089584EC86BF06B607FEFDCF83B150
:100960000895382F6AE004D9282F2F7086EF9FEF63
:10097000289F802D1124830F8F702295207F820F56
:100980000895FF920F931F93F82E062F142FB3DFB5
:1009900088E6C3DF80E0D0DF812FE3DF8F77CCDF15
:1009A000802FDFDFC9DF8F2DDCDFC6DFAADF1F91DD
:1009B0000F91FF900895FF920F931F93F82E062F2B
:1009C000142F99DF88E6A9DF84E0B6DF812FC9DF25
:1009D000B3DF802FC6DFB0DF8F2DC3DFADDF91DF48
:1009E0001F910F91FF9008959F92AF92BF92CF9267
:1009F000DF92EF92FF920F931F937DDF88E68DDFEA
:100A000084E09ADF7EDF77DF88E67EDFA3DFE82EF3
:100A1000A1DFA82E98DF982E74DF8E2D82958F701F
:100A200090E09C01B3E0220F331FBA95E1F7880FE5
:100A3000991F280F391F8FE0E822E20EFF2400E003
:100A400010E08701FF24EE248A2D82958F7090E0BC
:100A50009C01E3E0220F331FEA95E1F7880F991F0D
:100A6000280F391F8FE0A822A20EBB24CC24DD243E
:100A7000DC2CCB2CBA2CAA24EA0CFB1C0C1D1D1D53
:100A8000892D82958F7090E09C0153E0220F331FD7
:100A90005A95E1F7880F991F280F391F8FE0982288
:100AA000920EE90CF11C011D111DB701C8011F9127
:100AB0000F91FF90EF90DF90CF90BF90AF909F90FD
:100AC00008959F92AF92BF92CF92DF92EF92FF92E2
:100AD0000F931F9310DF88E620DF80E02DDF11DF0A
:100AE0000ADF88E611DF36DF982E34DFA82E2BDFF1
:100AF000E82E07DF8E2D82958F7090E09C01B3E089
:100B0000220F331FBA95E1F7880F991F280F391F5D
:100B10008FE0E822E20EFF2400E010E08701FF24CE
:100B2000EE248A2D82958F7090E09C01E3E0220FE5
:100B3000331FEA95E1F7880F991F280F391F8FE0BF
:100B4000A822A20EBB24CC24DD24DC2CCB2CBA2C76
:100B5000AA24EA0CFB1C0C1D1D1D892D82958F708B
:100B600090E09C0153E0220F331F5A95E1F7880F64
:100B7000991F280F391F8FE09822920EE90CF11C63
:100B8000011D111DB701C8011F910F91FF90EF903A
:100B9000DF90CF90BF90AF909F9008951F93ABDEF2
:100BA00088E6BBDE80E0C8DEACDEA5DE88E6ACDE33
:100BB000CADE182FA6DE17FF16C09DDE88E6ADDE62
:100BC00080E0BADE80E0B8DE80E0B6DE80E0B4DE51
:100BD00080E0B2DE81E0B0DE81E0AEDE89E0ACDE56
:100BE00080E1AADE8EDE1F9108959C01E199FECF7F
:100BF0003FBB2EBBE09A8DB308959C01E199FECFD7
:100C00003FBB2EBB6DBB0FB6F894E29AE19A0FBEC4
:100C100008956F927F928F929F92AF92BF92CF92E0
:100C2000DF92EF92FF920F931F93DF93CF93CDB795
:100C3000DEB728970FB6F894DEBF0FBECDBFE1999F
:100C4000FECF5DE5652E50E0752E7FBA6EBAE09A54
:100C50008DB3853A09F4D8C080E090E0A8E0B0E018
:100C600089839A83AB83BC8380E090E0A4E1B0E009
:100C70008D839E83AF83B88748E1C42E41E0D42E94
:100C800000E010E0EE24FF245E010894A11CB11CDA
:100C900034E1832E2EE1922EF501EE0DFF1D8081B1
:100CA0009181A281B381F60180839183A283B38372
:100CB000F801EF5FFE4F8082E199FECFC8018050BE
:100CC00090409FBB8EBB8DBA0FB6F894E29AE19A22
:100CD0000FBEF801ED5FFE4F9082E199FECFC80193
:100CE0008E5F9F4F9FBB8EBB9DBA0FB6F894E29A62
:100CF000E19A0FBEC7018C5F9F4FB60144E050E000
:100D00002DEF35E01BD70F5F1F4F84E090E0E80E1A
:100D1000F91EC80ED91E0230110509F0BDCF80E0C2
:100D200040E050E06BE070E000E010E02DE030E0EB
:100D3000EE24CC24C394DBDC81E040E050E06AE0A8
:100D400070E000E010E02EE030E0EE24E394CFDC31
:100D500082E040E050E06AE070E000E010E02EE069
:100D600030E094E0E92EC3DC83E040E050E060E056
:100D700070E000E010E020E030E0EE24CC24B7DCAE
:100D800084E040E050E060E070E000E010E020E04F
:100D900030E0ADDC85E040E050E060E070E000E095
:100DA00010E020E030E0A3DC86E040E050E060E0CE
:100DB00070E000E010E020E030E099DC87E040E007
:100DC00050E060E070E000E010E020E030E08FDC18
:100DD000E199FECF7FBA6EBA85EA8DBB0FB6F89463
:100DE000E29AE19A0FBE85E091E06EE670E049E09C
:100DF00050E03FD68CE090E065E071E049E050E0E3
:100E00002DEF35E09BD64DC085E091E06CE070E0C1
:100E100049E050E025EF35E077D600E010E0EE2421
:100E2000FF24E199FECFC801805090409FBB8EBB4C
:100E3000E09A8DB3F801EF5FFE4F8083E199FECF1A
:100E4000C8018E5F9F4F9FBB8EBBE09A8DB3F801A8
:100E5000ED5FFE4F8083B7016C5F7F4FC701885EF7
:100E60009E4F44E050E025EF35E04ED60F5F1F4F18
:100E7000E4E0F0E0EE0EFF1E0230110591F600E016
:100E800010E0B8016B5E7F4FC801885D9E4F49E05E
:100E900050E025EF35E038D6075F1F4F08341105C5
:100EA00081F728960FB6F894DEBF0FBECDBFCF9165
:100EB000DF911F910F91FF90EF90DF90CF90BF9047
:100EC000AF909F908F907F906F90089594B39F60A4
:100ED00094BB95B3907F95BB9698882311F0959A13
:100EE00001C0959800000000979A0000000085B3AB
:100EF0006F70862B85BB00000000979800000000F3
:100F0000979A0000000008950F931F93182F062F43
:100F100062956F70DBDF00000000812F602FD6DF4D
:100F20000000000085B38F6085BB84B3807F84BBE5
:100F3000969A959800000000979A0000000093B3DD
:100F40000000000097980000000085B38F6085BB0B
:100F500084B3807F84BB969A959800000000979A8E
:100F60000000000083B3000000009798000000001C
:100F700093FDD8CF1F910F9108950F931F9380E099
:100F800063E0A4DF80E096E30197F1F780E063E09F
:100F90009DDF0CEC1AE0C8010197F1F780E063E0F7
:100FA00095DFC8010197F1F780E062E08FDF80E014
:100FB00068E2AADF80E06CE0A7DF80E061E0A4DF08
:100FC00080E066E0A1DF80E062E09EDF1F910F918C
:100FD0000895962F682F6295660F660F607C690FE3
:100FE000606880E091DF0895682F6F7781E08CDF83
:100FF0000895CF93DF93EC0102C02196F5DF88813D
:101000008823D9F7DF91CF91089580E061E07CDFFC
:1010100080E060E0DEDF08959C01E199FECF3FBBF8
:101020002EBB6DBB0FB6F894E29AE19A0FBE0895FD
:1010300083ED90E09093FC008093FB0008958F92E5
:101040009F92AF92BF92CF92DF92EF92FF920F9357
:101050001F93DF93CF9300D0CDB7DEB780E090E051
:1010600065E770E04BEF50E013D537E7E32E30E053
:10107000F32EB7018E010F5F1F4FA80109D55C0148
:1010800080E090E0B701A80103D56C0180E090E01A
:10109000B701A801FDD44C01C501B0D4E82EC601AA
:1010A000ADD4A82EC401AAD4FF2400E010E087012B
:1010B000FF24EE24BB24CC24DD24DC2CCB2CBA2C46
:1010C000AA24EA0CFB1C0C1D1D1DE80EF11C011DC1
:1010D000111DB701C8010F900F90CF91DF911F91A3
:1010E0000F91FF90EF90DF90CF90BF90AF909F90C7
:1010F0008F90089580E090E065E770E04BEF50E05E
:10110000C7D47CD408954F925F926F927F928F9252
:101110009F92AF92BF92CF92DF92EF92FF920F9386
:101120001F93DF93CF93CDB7DEB7AD970FB6F8948B
:10113000DEBF0FBECDBF8D3019F08A3009F03AC343
:10114000E091FB00F091FC0013EDC12E10E0D12ED8
:10115000EC15FD0509F449C31082D092FC00C09241
:10116000FB00D092FE00C092FD008CE990E09093CD
:1011700000018093FF00C601BDD41092D2001092EE
:1011800000011092FF0080E090E065E770E04BEF17
:1011900050E07ED47C01DC018C91882309F403C3E8
:1011A000D7010D900020E9F78D010E191F09C70125
:1011B0006AEB70E0A8014FD4892B09F050C180E0A0
:1011C00090E065E770E04BEF50E062D4F82EE92E36
:1011D000E82FF92FDF010D900020E9F78D010E1B9C
:1011E0001F0B6DE071E0A80136D4892B69F427DF6D
:1011F0009B01AC01AA27BB27E32EF42E052F112754
:101200006E2D422FBEDBBBC28F2D9E2D67E071E09D
:10121000A80121D4892BC1F46091FB007091FC00DE
:1012200085E091E049E050E024D46091FB007091AA
:10123000FC00FB01DF010D900020E9F7AE1BBF0BA6
:101240008CE090E0AD0185C08F2D9E2D62E071E0B5
:10125000A80101D4892B09F045C080E090E065E742
:1012600070E04BEF50E014D469E770E08E010F5F3F
:101270001F4FA8010DD47C0180E090E069E770E089
:10128000A80106D46C0180E090E069E770E0A80155
:10129000FFD34C01C701B2D3E82EC601AFD3A82EAD
:1012A000C401ACD3FF2400E010E08701FF24EE244A
:1012B000BB24CC24DD24DC2CCB2CBA2CAA24EA0CB5
:1012C000FB1C0C1D1D1DE80EF11C011D111DC8018C
:1012D000AA27BB275527412F302F2F2D622F4E2DA8
:1012E0006ADB4DC28F2D9E2D6AEF70E0A801B3D34B
:1012F000892B99F5A4DE6B877C878D879E879FDE7F
:101300007B018C016F87788B898B9A8B8B859C8571
:10131000AD85BE858093180190931901A0931A01A1
:10132000B0931B0184E090E068E171E044E050E09C
:101330002CE038E003D4E0921C01F0921D010093F0
:101340001E0110931F0188E090E06CE171E044E021
:1013500050E02CE038E0F2D312C28F2D9E2D64EFC6
:1013600070E0A80178D3892B99F4C4DE182F67DECA
:101370002B013C0164DE4B015C01BCDEE82EBADED1
:10138000C82E812FB301A20195018401B0D9F7C104
:101390008F2D9E2D67EE70E0A8015DD3892B21F57E
:1013A000A9DE8D831E82A6DE8B831C82DE0113964E
:1013B00020E030E04C91F901EF5FFE4F4083E1996E
:1013C000FECFC901805090409FBB8EBB4DBB0FB676
:1013D000F894E29AE19A0FBE2F5F3F4F12962230A7
:1013E000310509F4CCC1E6CF8F2D9E2D66ED70E05E
:1013F000A80131D3892B19F57DDE8D831E827ADE1B
:101400008B831C82DE01139620E030E04C91F901C1
:10141000ED5FFE4F4083E199FECFC9018E5F9F4F84
:101420009FBB8EBB4DBB0FB6F894E29AE19A0FBEFC
:101430002F5F3F4F12962230310541F7A0C18F2D0B
:101440009E2D6FEC70E0A80106D3892B11F452DEBB
:1014500096C181E08093D2008EEB90E084C1C701F9
:1014600066EB70E0A801F7D2892B09F073C180E028
:1014700090E065E770E04BEF50E00AD3F82EE92EDC
:10148000E82FF92FDF010D900020E9F78D010E1BE9
:101490001F0B66E971E0A801DED2892B81F460910F
:1014A0002401709125018091260190912701AE01C0
:1014B0004D5E5F4F98D80CD88BE991E043C18F2DDA
:1014C0009E2D60E971E0A801C6D2892B31F485E038
:1014D00091E0FED78EE991E035C18F2D9E2D6BE80E
:1014E00071E0A801B8D2892B51F46091200170916C
:1014F000210180912201909123019CD8D0C08F2D91
:101500009E2D63E871E0A801A6D2892B01F56091B8
:1015100018017091190180911A0190911B018E019F
:10152000045E1F4FA8015FD860911C0170911D01DE
:1015300080911E0190911F01AE014B5D5F4F53D80A
:1015400080E28CA3C801C4D781EA91E0FBC08F2D53
:101550009E2D6CE771E0A8017ED2892B09F063C053
:10156000EE24FF2453E1C52ED12CCC0EDD1E87EADC
:1015700091E0C5D7870143E0000F111F4A95E1F7BD
:101580000E0D1F1D085D1E4FF80160817181828163
:101590009381A60128D89CD785E790E099D7D801F8
:1015A00014966D917D918D919C911797A6011BD8F2
:1015B0008FD785E790E08CD7F80180858F77B601CB
:1015C000D5D186D785E790E083D7D80118968C913E
:1015D000881F8827881FB601C9D17AD785E790E090
:1015E00077D7F801808587FD02C080E00DC0D80163
:1015F0006D917D918D919C91139714962D913D91B4
:101600004D915C911797AFD7B601B0D161D784EAFD
:1016100091E075D70894E11CF11CB8E0EB16F104D9
:1016200009F0A5CFACC08F2D9E2D67E771E0A80112
:1016300012D2892B51F480918800BE01695F7F4FDF
:1016400095D146D78AEA91E07DC08F2D9E2D6AE61E
:1016500071E0A80100D2892B99F48E01095F1F4F18
:1016600080910201B80182D133D780EB91E047D756
:1016700080910101B8017AD12BD78DEA91E062C047
:101680008F2D9E2D61E671E0A801E5D1892B59F4DB
:1016900080911701BE01695F7F4F68D119D78BE731
:1016A00090E016D76CC08F2D9E2D60E571E0A801EB
:1016B000D2D1892B99F48E01095F1F4F80910401CB
:1016C000B80154D105D785EB91E019D7809103017A
:1016D000B8014CD1FDD682EB91E034C08F2D9E2D08
:1016E00068E471E0A801B7D1892B11F500E010E0A2
:1016F0008DEB91E004D7802F7CD88091890090E019
:10170000002E02C0959587950A94E2F780FF04C0E9
:101710008EE790E0DDD603C08AEB91E0F0D687EB50
:1017200091E0EDD60F5F1F4F0530110509F727C077
:101730008F2D9E2D60E471E0A8018DD1892B21F4BD
:1017400083E291E0DCD61BC081E08093D20082E18D
:1017500091E009C0C70160EB70E0A8017CD1892B42
:1017600039F488EA90E0909300018093FF0007C06D
:1017700081E08093D200D0920001C092FF0080915E
:10178000D200882319F083EA90E002C080EA90E05A
:10179000B6D68091FF0090910001009709F0AFD676
:1017A0008DE990E0ACD683ED90E09093FC008093BF
:1017B000FB001BC0883061F4E091FB00F091FC005D
:1017C00090E0E33DF90721F018F01082319709C04D
:1017D000E091FB00F091FC00A0E0EB3FFA0728F459
:1017E0008193F093FC00E093FB00AD960FB6F89464
:1017F000DEBF0FBECDBFCF91DF911F910F91FF9044
:10180000EF90DF90CF90BF90AF909F908F907F90A0
:101810006F905F904F900895CF92DF92EF92FF927A
:101820000F931F93DF93CF9300D000D0CDB7DEB7D7
:1018300010E06E010894C11CD11C84E1E82E81E007
:10184000F82E012F0F5F802FB60190D081E060E06D
:10185000C0DB81E890E0CDDBC601CBDB81E0612F0E
:10186000E9D788E893E1F7013197F1F70197D9F7C4
:1018700080E0612FDFD788E893E1F7013197F1F736
:101880000197D9F7053011F0102FDBCFBEDB0F9099
:101890000F900F900F90CF91DF911F910F91FF90BC
:1018A000EF90DF90CF900895939A949800000000F5
:1018B000939800000000949800000000949A0000A3
:1018C0000000939A00000000949800000000089522
:1018D00081B3886181BB939A82B3939A0000000020
:1018E00080E0949A000000009498000000008F5F50
:1018F0008930B9F7D9DFD8DF90E820E030E0892FD0
:10190000867011F0939A01C0939800000000949A99
:1019100000000000949800000000969596952F5FB7
:101920003F4F2430310559F7949A80B3949820E8BA
:1019300080E090E020FF02C0939A01C093980000DD
:101940000000949A00000000949800000000269582
:10195000269501968430910569F7949A80B39498FE
:10196000089582E2089581E099D708951F93482F42
:10197000FB0164E6FDD0182F282F30E08CE99FEFA3
:10198000B901689F9001699F300D789F300D112437
:10199000C901840F911D6AE070E0F6D0420F86EF16
:1019A0009FEF689F802D1124840F112341F0105D5B
:1019B0001083605D6183805D828313820AC0805DD5
:1019C000662329F0605D60838183128202C0808378
:1019D0001182CF011F910895482FFB016AE0C8D002
:1019E000805D80838053405D26EF3FEF829F802D96
:1019F0001124840F81831282CF010895FC0180E0BD
:101A00002AE005C0829F802D1124890F3196908194
:101A100090539A30B8F3089590E080538A3008F4D8
:101A200091E0892F0895FC01808180538A3010F065
:101A300080E00895319680818823B1F781E0089590
:101A400008951F93182F57D788E367D7812F74D72E
:101A500058D71F910895FB01DC014150504030F0F0
:101A60008D910590801919F40020B9F7881B990B06
:101A70000895FB01DC014150504048F001900D9267
:101A80000020C9F701C01D9241505040E0F7089571
:101A9000009731F4DA018D919C91009709F40EC002
:101AA000DC01FB013D912191222319F03217C9F38A
:101AB000FACF332331F4DA011D921C92882799273B
:101AC00008951197AF93BF93FB013D912191321778
:101AD00071F4332321F488279927119702C01E92AD
:101AE0001196FA01A193B0839F918F9108952223BB
:101AF00069F7EACFDC016C9161566A3108F0605EEB
:101B00006F5B6D93C1F70895A0E0B0E0E9E8FDE0F8
:101B100072C07C01EB018A01690109C0CE012196E6
:101B2000F6010995F70181937F01015010400115DD
:101B30001105A1F7CDB7DEB7E8E079C0A0E0B0E0CD
:101B4000E3EAFDE058C0EC017B018A01690109C0AC
:101B5000CE012196F70161917F01F60109950150AF
:101B6000104001151105A1F7CDB7DEB7E8E05FC061
:101B7000991B79E004C0991F961708F0961B881FDF
:101B80007A95C9F78095089597FB092E07260AD004
:101B900077FD04D00CD006D000201AF47095619522
:101BA0007F4F0895F6F7909581959F4F0895AA1B52
:101BB000BB1B51E107C0AA1FBB1FA617B70710F038
:101BC000A61BB70B881F991F5A95A9F7809590956A
:101BD000BC01CD010895EE0FFF1F0590F491E02D9B
:101BE00009942F923F924F925F926F927F928F92C1
:101BF0009F92AF92BF92CF92DF92EF92FF920F939C
:101C00001F93CF93DF93CDB7DEB7CA1BDB0B0FB6A5
:101C1000F894DEBF0FBECDBF09942A883988488862
:101C20005F846E847D848C849B84AA84B984C884F8
:101C3000DF80EE80FD800C811B81AA81B981CE0FEF
:101C4000D11D0FB6F894DEBF0FBECDBFED010895D4
:041C5000F894FFCF36
:101C540060200025005374617274696E67004E4FF2
:101C64004E414D450020003A002E000D0A0020315F
:081C740000504F535420000002
:00000001FF
