:10000000C4C09AC2E7C0E6C0E5C0E4C0E3C0E2C035
:10001000E1C0E0C0DFC0D3C1FCC1DCC0DBC0DAC0DE
:10002000D9C0D8C0D7C04865697A4C616D70650089
:100030004865697A4472616874004E65626C6572E5
:10004000004C616D706532004C616D70653100006F
:100050000D0A004F4B004641494C00207A657277EB
:1000600061730048454C4C4F00474554005345547C
:100070000020554E4B4E4F574E20434F4D4D414E55
:1000800044004F55545055540048554D4944495427
:1000900059534554504F494E540054454D505345C3
:1000A00054504F494E540054494D45520044415913
:1000B00054494D450044415445005449544C450071
:1000C00054494D450020554E4B4E4F574E20434FFF
:1000D0004D4D414E44005465727261436F6E7472AF
:1000E0006F6C20302E312C206D72752032303039FB
:1000F0000D0A0056455253494F4E004F5554505526
:1001000054530048554D4944495459534554504F50
:10011000494E540048554D49444954590054454DA1
:1001200050534554504F494E540054454D5000547F
:10013000494D45525300495344415954494D450096
:1001400044415954494D4500444154450054495493
:100150004C450054494D45000D0A000D0A000D0A9A
:10016000000D0A00300031000D0A002B20000D0A9E
:10017000000D0A0020000D0A0020000D0A002030AA
:10018000002031002B200000DB0111241FBECFE531
:10019000D4E0DEBFCDBF10E0A0E6B0E0E4EBFBE1D1
:1001A00002C005900D92A63AB107D9F711E0A6EA70
:1001B000B0E001C01D92AF38B107E1F711E0CAE825
:1001C000D1E003C02297FE01B8DCC838D107D1F7CF
:1001D000AFD0EECC15CF0F931F93DF93CF93CDB756
:1001E000DEB729970FB6F894DEBF0FBECDBF609182
:1001F0003701709138018091390190913A01209135
:100200003B0130913C0140913D0150913E01AFD105
:10021000182F22DB8093360121DB8093A600A7D222
:10022000113011F053E001C054E0A12FB0E020E004
:1002300030E0FD01EE5DFE4F909136018081981710
:1002400010F421E030E0220F331F220F331F4091C2
:10025000A700422B20E030E0A05EBE4F9091A600A8
:100260008C91981710F421E030E002C0220F331F68
:100270005A95E2F7842F822B8093A7009BDB88D6C8
:100280008091A6008E010F5F1F4FB80128DB74D646
:1002900080E690E071D680913601B80120DB6CD603
:1002A00083E690E069D681E060E057D68091A900AE
:1002B000882319F0813089F521C08091A80090E051
:1002C00083709070892B19F085E690E00AC06091E8
:1002D0004301709144018091450190914601A8012C
:1002E00086D14AD68091AA008F5F8093AA00815060
:1002F000833099F481E08093A9000DC084E291E0FD
:100300003BD68091AA008F5F8093AA0081508330F2
:1003100021F41092A9001092AA0029960FB6F89421
:10032000DEBF0FBECDBFCF91DF911F910F9108951A
:1003300088EE93E024E131E0F9013197F1F701977C
:10034000D9F784B78093A80040D478944FD28FEF28
:1003500081BB87BB84BB15BA00D1CCD186D2E6D392
:1003600081E070D228D6CDD5A1DA23DB80E060E031
:10037000F4D58FE690E000D635DA2FE088E190E002
:100380000FB6F894A89581BD0FBE21BD85B78F78B3
:1003900085BF73D021E08030920709F077D681D1F4
:1003A000811119DF85B7806885BF889585B78F77FC
:1003B00085BFA895EECF81E190E050D008951F92BF
:1003C0000F920FB60F9211242F938F939F93EF9359
:1003D000FF939BB12CB1E091ED00EF5FEF71809145
:1003E000EE00E81711F482E008C0892F8871E093CD
:1003F000ED00F0E0E553FF4F20838093EF00FF9185
:10040000EF919F918F912F910F900FBE0F901F90A2
:1004100018951F920F920FB60F9211248F939F93EE
:10042000EF93FF939091EB008091EC00981761F0AF
:10043000E091EC00EF5FEF71E093EC00F0E0E55548
:10044000FF4F80818CB901C05598FF91EF919F912A
:100450008F910F900FBE0F901F9018951092EB0088
:100460001092EC001092ED001092EE0090BD89B950
:1004700088E98AB986E880BD08959091ED00809161
:10048000EE00981719F420E031E012C0E091EE0080
:10049000EF5FEF71E093EE00F0E0E553FF4F308146
:1004A0002091EF00922F80E0AC01430F511D9A0183
:1004B000C9010895282F9091EB009F5F9F71809153
:1004C000EC009817E1F3E92FF0E0E555FF4F2083AA
:1004D0009093EB00559A0895DC0111C09091EB00C8
:1004E0009F5F9F718091EC009817E1F31196E92FBF
:1004F000F0E0E555FF4F20839093EB00559A2C9147
:10050000222361F70895AC0110C02091EB002F5F0A
:100510002F718091EC002817E1F3E22FF0E0E55510
:10052000FF4F90832093EB00559AFA014F5F5F4F86
:100530009491992351F708951F920F920FB60F923D
:1005400011248F938091F0008F5F8093F0008F9142
:100550000F900FBE0F901F9018958A9885B78360F3
:1005600085BF8BB780648BBF1092F0000895EF9227
:10057000FF920F931F9379018A0162177307840713
:10058000950711F480E02EC0209143013091440181
:1005900040914501509146016E157F0580079107F6
:1005A00098F4261737074807590718F480E090E0B9
:1005B00019C090E0E216F3060407150708F491E06D
:1005C00081E09827892F0EC026173707480759075B
:1005D00038F480E090E0E216F3060407150710F007
:1005E00081E090E01F910F91FF90EF900895CF92DE
:1005F000DF92EF92FF920F931F937B018C016A01B0
:10060000C801AA27BB27BA01A0D9BB27A12F902FC9
:100610008F2DB6016D5F7F4F98D9B6016A5F7F4F0E
:100620008E2D93D98AE3F60182838583C6011F91BB
:100630000F91FF90EF90DF90CF900895CF92DF92CF
:10064000EF92FF920F931F93DF93CF9300D000D0D0
:10065000CDB7DEB77B018C01AA27BB276E010894BA
:10066000C11CD11CB60171D937DF8EE223DFBB2755
:10067000A12F902F8F2DB60168D92EDF8EE21ADFC1
:100680008E2DB60162D928DF0F900F900F900F903A
:10069000CF91DF911F910F91FF90EF90DF90CF905E
:1006A00008958091F0008823C1F0D3D16093430175
:1006B0007093440180934501909346015DD160930E
:1006C0003F017093400180934101909342018091DA
:1006D000F00081508093F00081E008959C01E19941
:1006E000FECF3FBB2EBB6DBB0FB6F894E29AE19AEA
:1006F0000FBE08950895CF92EF920F931F93A82FE6
:10070000B0E0FD0193E0EE0FFF1F9A95E1F7EA0FCD
:10071000FB1FE95BFE4F4083518362837383048335
:10072000158326833783CC2011F490E001C090E834
:100730009E29FD0123E0EE0FFF1F2A95E1F7EA0F46
:10074000FB1FE95BFE4F908769E0869FB001112493
:10075000CB018B5E9F4F695B7E4F49E050E02EE6F8
:1007600033E09CD91F910F91EF90CF900895EF92B5
:10077000FF920F931F93CF93DF931092A70000E097
:1007800010E031E0E32EF12CE80123E0CC0FDD1F77
:100790002A95E1F7C00FD11FC95BDE4F888587FF1F
:1007A00019C0688179818A819B812C813D814E812C
:1007B0005F81DDDE882371F088858F77970102C025
:1007C000220F331F8A95E2F7C9012091A700282B39
:1007D0002093A7000F5F1F4F08301105A9F6DF9186
:1007E000CF911F910F91FF90EF900895089582305F
:1007F00091F0833028F4882341F08130B1F408C0AF
:10080000833061F0843089F40DC088E490E008C042
:1008100081E490E005C08AE390E002C080E390E0CC
:1008200072DE089586E290E06EDE08951F93182F21
:100830002AD0812F885B30D04ED0182F2AD0812F1C
:100840001F9108951F93182F185B1DD0812F2DD055
:1008500081E03AD080E638D01CD015D0812F25D049
:1008600080E032D016D01F91089584B38F7C84BB72
:1008700085B3806385BB85E086BF8AE080B981B19E
:100880008C7F81B9089584EA86BF06B607FEFDCF46
:10089000089584E986BF0895880F8F5F83B984E83F
:1008A00086BF06B607FEFDCF0895880F83B984E89A
:1008B00086BF06B607FEFDCF089583B984E886BFDC
:1008C00006B607FEFDCF089583B984E886BF06B655
:1008D00007FEFDCF089584E886BF06B607FEFDCF6C
:1008E00083B1089584EC86BF06B607FEFDCF83B1C1
:1008F0000895382F6AE0ECD8282F2F7086EF9FEFED
:10090000289F802D1124830F8F702295207F820FC6
:100910000895FF920F931F93F82E062F142FB3DF25
:1009200088E6C3DF80E0D0DF812FE3DF8F77CCDF85
:10093000802FDFDFC9DF8F2DDCDFC6DFAADF1F914D
:100940000F91FF900895FF920F931F93F82E062F9B
:10095000142F99DF88E6A9DF84E0B6DF812FC9DF95
:10096000B3DF802FC6DFB0DF8F2DC3DFADDF91DFB8
:100970001F910F91FF9008959F92AF92BF92CF92D7
:10098000DF92EF92FF920F931F937DDF88E68DDF5A
:1009900084E09ADF7EDF77DF88E67EDFA3DFE82E64
:1009A000A1DFA82E98DF982E74DF8E2D82958F7090
:1009B00090E09C01B3E0220F331FBA95E1F7880F56
:1009C000991F280F391F8FE0E822E20EFF2400E074
:1009D00010E08701FF24EE248A2D82958F7090E02D
:1009E0009C01E3E0220F331FEA95E1F7880F991F7E
:1009F000280F391F8FE0A822A20EBB24CC24DD24AF
:100A0000DC2CCB2CBA2CAA24EA0CFB1C0C1D1D1DC3
:100A1000892D82958F7090E09C0153E0220F331F47
:100A20005A95E1F7880F991F280F391F8FE09822F8
:100A3000920EE90CF11C011D111DB701C8011F9197
:100A40000F91FF90EF90DF90CF90BF90AF909F906D
:100A500008959F92AF92BF92CF92DF92EF92FF9252
:100A60000F931F9310DF88E620DF80E02DDF11DF7A
:100A70000ADF88E611DF36DF982E34DFA82E2BDF61
:100A8000E82E07DF8E2D82958F7090E09C01B3E0F9
:100A9000220F331FBA95E1F7880F991F280F391FCE
:100AA0008FE0E822E20EFF2400E010E08701FF243F
:100AB000EE248A2D82958F7090E09C01E3E0220F56
:100AC000331FEA95E1F7880F991F280F391F8FE030
:100AD000A822A20EBB24CC24DD24DC2CCB2CBA2CE7
:100AE000AA24EA0CFB1C0C1D1D1D892D82958F70FC
:100AF00090E09C0153E0220F331F5A95E1F7880FD5
:100B0000991F280F391F8FE09822920EE90CF11CD3
:100B1000011D111DB701C8011F910F91FF90EF90AA
:100B2000DF90CF90BF90AF909F9008951F93ABDE62
:100B300088E6BBDE80E0C8DEACDEA5DE88E6ACDEA3
:100B4000CADE182FA6DE17FF16C09DDE88E6ADDED2
:100B500080E0BADE80E0B8DE80E0B6DE80E0B4DEC1
:100B600080E0B2DE81E0B0DE81E0AEDE89E0ACDEC6
:100B700080E1AADE8EDE1F9108959C01E199FECFEF
:100B80003FBB2EBBE09A8DB308959C01E199FECF47
:100B90003FBB2EBB6DBB0FB6F894E29AE19A0FBE35
:100BA0000895E199FECF2DE530E03FBB2EBBE09AE2
:100BB0008DB3E199FECF3FBB2EBB8F5F8DBB0FB6D0
:100BC000F894E29AE19A0FBE08956F927F928F9205
:100BD0009F92AF92BF92CF92DF92EF92FF920F93CC
:100BE0001F93DF93CF93CDB7DEB728970FB6F89456
:100BF000DEBF0FBECDBFE199FECF5EE5652E50E0B2
:100C0000752E7FBA6EBAE09A8DB3853A09F4E4C0C6
:100C100080E090E0A8E0B0E089839A83AB83BC8356
:100C200080E090E0A4E1B0E08D839E83AF83B8873D
:100C300047E3C42E41E0D42E00E010E0EE24FF2470
:100C40005E010894A11CB11C34E1832E2EE1922E8A
:100C5000F501EE0DFF1D80819181A281B381F60126
:100C600080839183A283B383F801E05EFE4F80828C
:100C7000E199FECFC801805090409FBB8EBB8DBADA
:100C80000FB6F894E29AE19A0FBEF801EE5DFE4FBE
:100C90009082E199FECFC8018E5F9F4F9FBB8EBBB4
:100CA0009DBA0FB6F894E29AE19A0FBEC7018C5F25
:100CB0009F4FB60144E050E025EC35E0EFD60F5FE2
:100CC0001F4F84E090E0E80EF91EC80ED91E0230D6
:100CD000110509F0BDCF80E040E050E06BE070E02E
:100CE00000E010E02DE030E0EE24CC24C39403DDDE
:100CF00081E040E050E06AE070E000E010E02EE0CB
:100D000030E0EE24E394F7DC82E040E050E06AE07B
:100D100070E000E010E02EE030E094E0E92EEBDC43
:100D200083E040E050E060E070E000E010E020E0B0
:100D300030E0EE24CC24DFDC84E040E050E060E0F2
:100D400070E000E010E020E030E0D5DC85E040E03D
:100D500050E060E070E000E010E020E030E0CBDC4C
:100D600086E040E050E060E070E000E010E020E06D
:100D700030E0C1DC87E040E050E060E070E000E09F
:100D800010E020E030E0B7DCE199FECF7FBA6EBA28
:100D900085EA8DBB0FB6F894E29AE19A0FBE84E221
:100DA00091E068E770E049E050E013D68CE090E015
:100DB00064E271E049E050E025EC35E06FD6E1995E
:100DC000FECF8DE590E09FBB8EBB1DBA0FB6F894A9
:100DD000E29AE19A0FBE4DC084E291E06CE070E0CF
:100DE00049E050E02DEB35E03FD600E010E0EE2486
:100DF000FF24E199FECFC801805090409FBB8EBB7D
:100E0000E09A8DB3F801E05EFE4F8083E199FECF5A
:100E1000C8018E5F9F4F9FBB8EBBE09A8DB3F801D8
:100E2000EE5DFE4F8083B7016C5F7F4FC701895C29
:100E30009E4F44E050E02DEB35E016D60F5F1F4F7C
:100E4000E4E0F0E0EE0EFF1E0230110591F600E046
:100E500010E0B8016B5E7F4FC801895B9E4F49E08F
:100E600050E02DEB35E000D6075F1F4F0834110529
:100E700081F728960FB6F894DEBF0FBECDBFCF9195
:100E8000DF911F910F91FF90EF90DF90CF90BF9077
:100E9000AF909F908F907F906F90089594B39F60D4
:100EA00094BB95B3907F95BB9698882311F0959A43
:100EB00001C0959800000000979A0000000085B3DB
:100EC0006F70862B85BB0000000097980000000023
:100ED000979A0000000008950F931F93182F062F74
:100EE00062956F70DBDF00000000812F602FD6DF7E
:100EF0000000000086E690E20197F1F71F910F9144
:100F000008950F931F9380E063E0C8DF80E096E3CD
:100F10000197F1F780E063E0C1DF0CEC1AE0C80153
:100F20000197F1F780E063E0B9DFC8010197F1F7BD
:100F300080E062E0B3DF80E06CE2CEDF80E06CE076
:100F4000CBDF80E061E0C8DF80E066E0C5DF80E005
:100F500062E0C2DF1F910F910895962F682F62956E
:100F6000660F660F607C690F606880E0B5DF0895EA
:100F7000682F81E0B1DF0895CF93DF93EC0102C0C9
:100F80002196F6DF88818823D9F7DF91CF910895E4
:100F900080E061E0A1DF80E060E0DFDF08959C0198
:100FA000E199FECF3FBB2EBB6DBB0FB6F894E29A22
:100FB000E19A0FBE089582EF90E090931B01809319
:100FC0001A0108958F929F92AF92BF92CF92DF92B3
:100FD000EF92FF920F931F93DF93CF9300D0CDB783
:100FE000DEB780E090E06FE770E04AE151E000D5C5
:100FF00031E8E32E30E0F32EB7018E010F5F1F4F73
:10100000A801F6D45C0180E090E0B701A801F0D41B
:101010006C0180E090E0B701A801EAD44C01C50161
:10102000A6D4E82EC601A3D4A82EC401A0D4FF24C0
:1010300000E010E08701FF24EE24BB24CC24DD2453
:10104000DC2CCB2CBA2CAA24EA0CFB1C0C1D1D1D7D
:10105000E80EF11C011D111DB701C8010F900F9082
:10106000CF91DF911F910F91FF90EF90DF90CF9084
:10107000BF90AF909F908F90089580E090E06FE7D1
:1010800070E04AE151E0B4D472D408954F925F9277
:101090006F927F928F929F92AF92BF92CF92DF9288
:1010A000EF92FF920F931F93DF93CF93CDB7DEB7ED
:1010B000AD970FB6F894DEBF0FBECDBF8D3019F0DF
:1010C0008A3009F05DC3E0911A01F0911B0112EF23
:1010D000C12E10E0D12EEC15FD0509F46CC3108271
:1010E000D0921B01C0921A01D0921D01C0921C0126
:1010F0008FE490E090931F0180931E01C601AAD453
:101100001092F10010921F0110921E0180E090E0F9
:101110006FE770E04AE151E06BD47C01DC018C9117
:10112000882309F426C3D7010D900020E9F78D012B
:101130000E191F09C7016DE670E0A8013CD4892B88
:1011400009F050C180E090E06FE770E04AE151E0C3
:101150004FD4F82EE92EE82FF92FDF010D90002053
:10116000E9F78D010E1B1F0B60EC70E0A80123D482
:10117000892B69F427DF9B01AC01AA27BB27E32E4B
:10118000F42E052F11276E2D422FC3DBDEC28F2DCB
:101190009E2D6AEB70E0A8010ED4892BC1F46091FA
:1011A0001A0170911B0184E291E049E050E011D4F2
:1011B00060911A0170911B01FB01DF010D9000206D
:1011C000E9F7AE1BBF0B8CE090E0AD0185C08F2D21
:1011D0009E2D65EB70E0A801EED3892B09F045C088
:1011E00080E090E06FE770E04AE151E001D463E80D
:1011F00070E08E010F5F1F4FA801FAD37C0180E0E1
:1012000090E063E870E0A801F3D36C0180E090E027
:1012100063E870E0A801ECD34C01C701A8D3E82E25
:10122000C601A5D3A82EC401A2D3FF2400E010E07C
:101230008701FF24EE24BB24CC24DD24DC2CCB2C22
:10124000BA2CAA24EA0CFB1C0C1D1D1DE80EF11C77
:10125000011D111DC801AA27BB275527412F302F7B
:101260002F2D622F4E2D6FDB70C28F2D9E2D6DEABC
:1012700070E0A801A0D3892B99F5A4DE6B877C8749
:101280008D879E879FDE7B018C016F87788B898B92
:101290009A8B8B859C85AD85BE8580933701909315
:1012A0003801A0933901B0933A0184E090E067E3FC
:1012B00071E044E050E02FEC37E0F0D3E0923B01E6
:1012C000F0923C0100933D0110933E0188E090E0D4
:1012D0006BE371E044E050E02FEC37E0DFD335C240
:1012E0008F2D9E2D67EA70E0A80165D3892B99F4B4
:1012F000C4DE182F67DE2B013C0164DE4B015C016C
:10130000BCDEE82EBADEC82E812FB301A201950102
:101310008401F1D91AC28F2D9E2D6AE970E0A801CF
:101320004AD3892B21F5A9DE8D831E82A6DE8B830D
:101330001C82DE01139620E030E04C91F901E05E62
:10134000FE4F4083E199FECFC901805090409FBB82
:101350008EBB4DBB0FB6F894E29AE19A0FBE2F5F99
:101360003F4F12962230310509F4EFC1E6CF8F2DA1
:101370009E2D69E870E0A8011ED3892B19F57DDE4A
:101380008D831E827ADE8B831C82DE01139620E021
:1013900030E04C91F901EE5DFE4F4083E199FECFC4
:1013A000C9018E5F9F4F9FBB8EBB4DBB0FB6F8949C
:1013B000E29AE19A0FBE2F5F3F4F1296223031051D
:1013C00041F7C3C18F2D9E2D62E870E0A801F3D2D2
:1013D000892B11F452DEB9C181E08093F10081E7DD
:1013E00090E0A7C1C70169E670E0A801E4D2892BAB
:1013F00009F096C180E090E06FE770E04AE151E0CB
:10140000F7D2F82EE92EE82FF92FDF010D900020FA
:10141000E9F78D010E1B1F0B63E571E0A801CBD22C
:10142000892B81F4609143017091440180914501C1
:1014300090914601AE014D5E5F4FD9D84DD888E5F9
:1014400091E066C18F2D9E2D6DE471E0A801B3D2AD
:10145000892B31F484E291E03FD88BE591E058C1CB
:101460008F2D9E2D68E471E0A801A5D2892B51F43F
:1014700060913F0170914001809141019091420142
:10148000DDD8F4C08F2D9E2D60E471E0A80193D2C9
:10149000892B01F5609137017091380180913901F4
:1014A00090913A018E01045E1F4FA801A0D860916F
:1014B0003B0170913C0180913D0190913E01AE0154
:1014C0004B5D5F4F94D880E28CA3C80105D88EE5B0
:1014D00091E01EC18F2D9E2D66E371E0A8016BD2B5
:1014E000892BE1F4609137017091380180913901C5
:1014F00090913A0120913B0130913C0140913D0196
:1015000050913E0134D8882319F086E691E002C05C
:1015100084E691E0F8D781E691E0FAC08F2D9E2D08
:101520006FE271E0A80147D2892B09F063C0EE2475
:10153000FF2453E1C52ED12CCC0EDD1E8BE691E0AD
:10154000E2D7870143E0000F111F4A95E1F70E0D26
:101550001F1D095B1E4FF80160817181828193819B
:10156000A60145D8B9D78FE790E0B6D7D801149631
:101570006D917D918D919C911797A60138D8ACD72C
:101580008FE790E0A9D7F80180858F77B601A7D1C2
:10159000A3D78FE790E0A0D7D80118968C91881F29
:1015A0008827881FB6019BD197D78FE790E094D703
:1015B000F801808587FD02C080E00DC0D8016D91E3
:1015C0007D918D919C91139714962D913D914D9104
:1015D0005C911797CCD7B60182D17ED788E691E08F
:1015E00092D70894E11CF11CB8E0EB16F10409F065
:1015F000A5CFABC08F2D9E2D6AE271E0A801DBD193
:10160000892B51F48091A600BE01695F7F4F67D19D
:1016100063D78EE691E07CC08F2D9E2D6DE171E049
:10162000A801C9D1892B99F48E01095F1F4F8091C0
:101630002101B80154D150D784E791E064D780915B
:101640002001B8014CD148D781E791E061C08F2DCE
:101650009E2D64E171E0A801AED1892B59F48091EF
:101660003601BE01695F7F4F3AD136D785E890E0F9
:1016700033D76BC08F2D9E2D63E071E0A8019BD105
:10168000892B99F48E01095F1F4F80912301B801C6
:1016900026D122D789E791E036D780912201B8017F
:1016A0001ED11AD786E791E033C08F2D9E2D6BEFA8
:1016B00070E0A80180D1892B09F500E010E084E8F2
:1016C00091E021D7802F93D88091A70090E0002E41
:1016D00002C0959587950A94E2F780FF03C081E8E0
:1016E00091E002C08EE791E00ED78BE791E00BD737
:1016F0000F5F1F4F0530110511F727C08F2D9E2D4D
:1017000063EF70E0A80157D1892B21F486ED90E0BA
:10171000FAD61BC081E08093F10085EC90E009C00F
:10172000C70163E670E0A80146D1892B39F48BE547
:1017300090E090931F0180931E0107C081E0809389
:10174000F100D0921F01C0921E018091F100882308
:1017500019F086E590E002C083E590E0D4D6809150
:101760001E0190911F01009709F0CDD680E590E011
:10177000CAD682EF90E090931B0180931A011BC0A0
:10178000883061F4E0911A01F0911B0190E0E23F92
:10179000F90721F018F01082319709C0E0911A0181
:1017A000F0911B01A1E0EA31FA0728F48193F0934C
:1017B0001B01E0931A01AD960FB6F894DEBF0FBE81
:1017C000CDBFCF91DF911F910F91FF90EF90DF90F0
:1017D000CF90BF90AF909F908F907F906F905F90D1
:1017E0004F900895EF92FF921F93DF93CF9300D015
:1017F00000D0CDB7DEB710E07E010894E11CF11CEB
:101800001F5F812FB7016BD081E060E0A6DB88E825
:1018100090E0B2DBC701B0DB153091F70F900F906D
:101820000F900F90CF91DF911F91FF90EF9008954F
:10183000939A9498000000009398000000009498F8
:1018400000000000949A00000000939A000000003D
:10185000949800000000089582E2089581E0E6D7A0
:101860000895482F90E820E030E0892F842311F07C
:10187000939A01C0939800000000949A0000000021
:10188000949800000000969596952F5F3F4F243066
:10189000310559F7949A80B3949890E083709070D2
:1018A000892B19F08EE890E017D6089581B38861EE
:1018B00081BB939A82B3939A0000000080E0949ACF
:1018C000000000009498000000008F5F8930B9F795
:1018D000AFDFAEDF86E0C5DF81E0C3DF08951F9391
:1018E000482FFB0164E6F4D0182F282F30E08CE954
:1018F0009FEFB901689F9001699F300D789F300D6F
:101900001124C901840F911D6AE070E0EDD0420FEF
:1019100086EF9FEF689F802D1124840F112341F0E3
:10192000105D1083605D6183805D828313820AC0D5
:10193000805D662329F0605D60838183128202C02E
:1019400080831182CF011F910895482FFB016AE027
:10195000BFD0805D80838053405D26EF3FEF829F44
:10196000802D1124840F81831282CF010895FC0100
:1019700080E02AE005C0829F802D1124890F3196D6
:10198000908190539A30B8F3089590E080538A3054
:1019900008F491E0892F0895FC01808180538A30FA
:1019A00010F080E00895319680818823B1F781E0BE
:1019B000089508950895FB01DC014150504030F036
:1019C0008D910590801919F40020B9F7881B990BA7
:1019D0000895FB01DC014150504048F001900D9208
:1019E0000020C9F701C01D9241505040E0F7089512
:1019F000009731F4DA018D919C91009709F40EC0A3
:101A0000DC01FB013D912191222319F03217C9F32A
:101A1000FACF332331F4DA011D921C9288279927DB
:101A200008951197AF93BF93FB013D912191321718
:101A300071F4332321F488279927119702C01E924D
:101A40001196FA01A193B0839F918F91089522235B
:101A500069F7EACFDC016C9161566A3108F0605E8B
:101A60006F5B6D93C1F70895A0E0B0E0E9E3FDE09E
:101A700072C07C01EB018A01690109C0CE01219687
:101A8000F6010995F70181937F010150104001157E
:101A90001105A1F7CDB7DEB7E8E079C0A0E0B0E06E
:101AA000E3E5FDE058C0EC017B018A01690109C052
:101AB000CE012196F70161917F01F6010995015050
:101AC000104001151105A1F7CDB7DEB7E8E05FC002
:101AD000991B79E004C0991F961708F0961B881F80
:101AE0007A95C9F78095089597FB092E07260AD0A5
:101AF00077FD04D00CD006D000201AF470956195C3
:101B00007F4F0895F6F7909581959F4F0895AA1BF2
:101B1000BB1B51E107C0AA1FBB1FA617B70710F0D8
:101B2000A61BB70B881F991F5A95A9F7809590950A
:101B3000BC01CD010895EE0FFF1F0590F491E02D3B
:101B400009942F923F924F925F926F927F928F9261
:101B50009F92AF92BF92CF92DF92EF92FF920F933C
:101B60001F93CF93DF93CDB7DEB7CA1BDB0B0FB646
:101B7000F894DEBF0FBECDBF09942A883988488803
:101B80005F846E847D848C849B84AA84B984C88499
:101B9000DF80EE80FD800C811B81AA81B981CE0F90
:101BA000D11D0FB6F894DEBF0FBECDBFED01089575
:041BB000F894FFCFD7
:101BB400DF20002500574454205245534554005318
:101BC40074617274696E67004E4F4E414D4500203A
:101BD400003A002E000D0A00504F53542000206696
:101BE40061696C656420746F2072656365697665EC
:061BF4002061636B00009C
:00000001FF
