:1000000013C049C136C035C034C033C032C031C05E
:1000100030C02FC02EC06DC096C02BC02AC029C0D2
:1000200028C027C026C06C0011241FBECFE5D4E035
:10003000DEBFCDBF11E0A0E6B0E0E4E2FAE102C02D
:1000400005900D92AC3AB107D9F712E0ACEAB1E0F5
:1000500001C01D92AD34B107E1F710E0C8E2D0E075
:1000600003C02297FE018DDCC632D107D1F702D042
:10007000D7CCC6CFD7D6789426D28FEF81BB87BB9B
:1000800084BB15BAF3D080E690E076D840D149D24F
:100090003CD381E033D260D388EE93E024E131E0B9
:1000A000F9013197F1F70197D9F781D021E080303C
:1000B000920709F01CD4E4D08823B9F381E012D26E
:1000C0008093AC0160911B0270911C0280911D0213
:1000D00090911E0276D1E9CF81E190E059D085E779
:1000E00090E060E070E0EBD708957ED080E090E093
:1000F00008951F920F920FB60F9211242F938F9392
:100100009F93EF93FF939BB12CB1E091EF01EF5FD1
:10011000EF718091F001E81711F482E008C0892F97
:100120008871E093EF01F0E0E353FE4F208380936A
:10013000F101FF91EF919F918F912F910F900FBE41
:100140000F901F9018951F920F920FB60F921124C7
:100150008F939F93EF93FF939091ED018091EE0128
:10016000981761F0E091EE01EF5FEF71E093EE011F
:10017000F0E0E355FE4F80818CB901C05598FF91A6
:10018000EF919F918F910F900FBE0F901F90189538
:100190001092ED011092EE011092EF011092F00119
:1001A00090BD89B988E98AB986E880BD08959091A3
:1001B000EF018091F001981719F420E031E012C0AE
:1001C000E091F001EF5FEF71E093F001F0E0E353B5
:1001D000FE4F30812091F101922F80E0AC01430F5E
:1001E000511D9A01C9010895282F9091ED019F5F3B
:1001F0009F718091EE019817E1F3E92FF0E0E3554C
:10020000FE4F20839093ED01559A0895DC0111C0B3
:100210009091ED019F5F9F718091EE019817E1F33E
:100220001196E92FF0E0E355FE4F20839093ED0106
:10023000559A2C91222361F70895AC0110C02091AA
:10024000ED012F5F2F718091EE012817E1F3E22F6E
:10025000F0E0E355FE4F90832093ED01559AFA01AB
:100260004F5F5F4F9491992351F708958A9885B70E
:10027000836085BF8BB780648BBF1092F2010895B5
:100280008091F201882331F08091F20181508093B6
:10029000F20181E008951F920F920FB60F92112480
:1002A0002F933F934F935F936F937F938F939F937E
:1002B000AF93BF93EF93FF938091F2018F5F809391
:1002C000F201B6D160931B0270931C0280931D0251
:1002D00090931E02FF91EF91BF91AF919F918F91EB
:1002E0007F916F915F914F913F912F910F900FBE32
:1002F0000F901F9018959C01E199FECF3FBB2EBB3C
:100300006DBB0FB6F894E29AE19A0FBE0895089576
:100310004F925F926F927F928F929F92AF92BF9215
:10032000CF92EF92FF920F931F93F82E4A015B0139
:100330002801390183E08F1518F483E890E01CD779
:100340008F2D90E0FC0143E0EE0FFF1F4A95E1F78F
:10035000E80FF91FE15EFD4F80829182A282B38295
:100360004482558266827782CC2011F420E001C05D
:1003700020E8FC0133E0EE0FFF1F3A95E1F7E80FAC
:10038000F91FE15EFD4F2E29208769E0F69EB0013E
:100390001124CB018E5F9F4F615E7D4F49E050E09D
:1003A0002BE731E04BD61F910F91FF90EF90CF904C
:1003B000BF90AF909F908F907F906F905F904F9085
:1003C0000895CF92DF92EF92FF920F931F93CF93F6
:1003D000DF937B018C01EFE1F2E0DD2460E0C1E01E
:1003E000D0E0CC24C394708577FF40C02081318158
:1003F0004281538184819581A681B781281739076D
:100400004A075B0788F4E216F3060407150718F499
:1004100020E030E017C020E08E159F05A007B1074F
:1004200008F421E02C250EC0E216F3060407150798
:1004300038F420E030E08E159F05A007B10710F0DA
:1004400021E030E0422F872F90E08F779E01082E29
:1004500002C0220F331F0A94E2F7622B242F30E0F0
:1004600002C0220F331F8A95E2F7D22A399682E022
:10047000E334F80709F0B7CFC0E0D0E0062F10E072
:1004800051E0E52EF12CC8010C2E02C09595879500
:100490000A94E2F780FF0AC0C7010C2E02C0880F41
:1004A000991F0A94E2F78D216C2F0FD02196C83046
:1004B000D10549F7DF91CF911F910F91FF90EF90F8
:1004C000DF90CF900895A29A0895662319F48823A7
:1004D00039F004C089E990E04FD60895AB9A0895A9
:1004E000AB9808951F93182F2AD0812F885B30D0A6
:1004F0004ED0182F2AD0812F1F9108951F93182FA7
:10050000185B1DD0812F2DD081E03AD080E638D005
:100510001CD015D0812F25D080E032D016D01F916D
:10052000089584B38F7C84BB85B3806385BB85E0ED
:1005300086BF8AE080B981B18C7F81B9089584EA51
:1005400086BF06B607FEFDCF089584E986BF0895ED
:10055000880F8F5F83B984E886BF06B607FEFDCF9C
:100560000895880F83B984E886BF06B607FEFDCFDD
:10057000089583B984E886BF06B607FEFDCF0895C7
:1005800083B984E886BF06B607FEFDCF089584E8E8
:1005900086BF06B607FEFDCF83B1089584EC86BF03
:1005A00006B607FEFDCF83B10895382F6AE0DBD988
:1005B000282F2F7086EF9FEF289F802D1124830F07
:1005C0008F702295207F820F0895FF920F931F93C3
:1005D000F82E062F142FB3DF88E6C3DF80E0D0DFCC
:1005E000812FE3DF8F77CCDF802FDFDFC9DF8F2D17
:1005F000DCDFC6DFAADF1F910F91FF900895FF9205
:100600000F931F93F82E062F142F99DF88E6A9DF8A
:1006100084E0B6DF812FC9DFB3DF802FC6DFB0DF14
:100620008F2DC3DFADDF91DF1F910F91FF900895F4
:100630009F92AF92BF92CF92DF92EF92FF920F9371
:100640001F937DDF88E68DDF80E09ADF7EDF77DF36
:1006500088E67EDFA3DF982EA1DFA82E98DFE82EA4
:1006600074DF8E2D82958F7090E09C01B3E0220F95
:10067000331FBA95E1F7880F991F280F391F8FE0B4
:10068000E822E20EFF2400E010E08701FF24EE24C0
:100690008A2D82958F7090E09C01E3E0220F331F3A
:1006A000EA95E1F7880F991F280F391F8FE0A822DC
:1006B000A20EBB24CC24DD24DC2CCB2CBA2CAA2407
:1006C000EA0CFB1C0C1D1D1D892D82958F7090E07E
:1006D0009C0153E0220F331F5A95E1F7880F991FB1
:1006E000280F391F8FE09822920EE90CF11C011D92
:1006F000111DB701C8011F910F91FF90EF90DF907E
:10070000CF90BF90AF909F9008951F9318DF88E619
:1007100028DF80E035DF19DF12DF88E619DF37DFF9
:10072000182F13DF17FF16C00ADF88E61ADF80E0F4
:1007300027DF80E025DF80E023DF80E021DF80E02D
:100740001FDF80E01DDF80E01BDF80E019DF80E13C
:1007500017DFFBDE1F91089586EF91E0909315025D
:10076000809314020895CF92DF92EF92FF920F933D
:100770001F93DF93CF9300D0CDB7DEB780E090E03A
:1007800063EA71E044E152E003D49C01009749F42C
:1007900081E08093F5018DEA90E09093F4018093DD
:1007A000F3018091F5018823E1F5C90162ED70E064
:1007B0008E010F5F1F4FA801EBD36C0180E090E02A
:1007C00062ED70E0A801E4D37C0180E090E062ED8E
:1007D00070E0A801DDD38C01F60104C080538A309B
:1007E000B8F4319680818823C9F7F70104C080539B
:1007F0008A3070F4319680818823C9F7F80104C0EB
:1008000080538A3028F4319680818823C9F759C0F3
:1008100081E08093F50184ED90E09093F401809362
:10082000F30120E030E040E050E03EC00894C11CFD
:10083000D11CF7018081803319F40894E11CF11C6C
:10084000F8018081803311F40F5F1F4FC6017AD306
:10085000D82EC70177D3F82EC80174D3682FF7E1DB
:10086000FD1528F08BE38F1510F06C3330F081E02C
:100870008093F50186EF90E0D0CF8D2D90E0A0E041
:10088000B0E0AC01332722278F2D90E0A0E0B0E04C
:10089000BA2FA92F982F8827280F391F4A1F5B1FAF
:1008A000260F311D411D511DB901CA010F900F9036
:1008B000CF91DF911F910F91FF90EF90DF90CF903C
:1008C0000895F6018081803309F0B3CFAFCF80E087
:1008D00090E063EA71E044E152E05AD39C01009752
:1008E00019F481E08093F501C9012CD308956F922A
:1008F0007F928F929F92AF92BF92CF92DF92EF92B0
:10090000FF920F931F93DF93CF93CDB7DEB7E4979A
:100910000FB6F894DEBF0FBECDBF8A3009F465C2B2
:100920008D3009F043C2E0911402F091150210825B
:1009300086EF91E090931502809314029093170232
:10094000809316022AE931E03093F4012093F301F9
:1009500051D31092F50180E090E063EA71E044E148
:1009600052E016D38C01009749F481E08093F501A1
:100970008DEA90E09093F4018093F3018091F5016A
:10098000882309F00CC2D8018C91882309F407C28E
:10099000C8016BE071E0F3D2009709F0A2C080E0DB
:1009A00090E063EA71E044E152E0F2D28C010097FA
:1009B00049F481E08093F5018DEA90E09093F40191
:1009C0008093F3018091F501882309F0C1C1C8012A
:1009D0006FE071E0D4D2009799F4C5DE7B018C0101
:1009E0008091F501882309F0B3C1C801AA27BB276C
:1009F0005527412F302F2F2D622F4E2DE6DDA8C118
:100A0000C80164E171E0BBD2009791F560DF882EE8
:100A10008091F501882309F09BC1B3E0B81508F473
:100A200094C1A1DE5B016C018091F501882309F07E
:100A30008FC199DE7B018C018091F501882309F03B
:100A400087C145DF982E8091F501882309F080C188
:100A50003EDF982F8091F501882309F079C1882D18
:100A6000B601A50198018701E92CC92E51DC70C19E
:100A7000C8016AE171E083D2009771F428DF282F62
:100A80008091F501882309F063C120931802E19950
:100A9000FECF80E090E013C0C80167E271E06FD242
:100AA0000097B1F414DF282F8091F501882309F015
:100AB0004FC120931902E199FECF81E090E09FBBE6
:100AC0008EBB2DBB0FB6F894E29AE19A0FBE40C1DF
:100AD000C80168E371E053D2009709F036C1F7DE30
:100AE00037C1C8016FE371E04AD2009709F027C10E
:100AF00080E090E063EA71E044E152E049D28C0189
:100B0000009749F481E08093F5018DEA90E090939D
:100B1000F4018093F3018091F501882309F018C155
:100B2000C8016FE071E02BD20097B1F520911B0254
:100B300030911C0240911D0250911E02EDB7FEB78C
:100B40003A970FB6F894FEBF0FBEEDBF31968E01F7
:100B50000F5F1F4FADB7BEB712961C930E93119740
:100B600083E491E093838283CA01AA27BB2784830D
:100B70001582BB27A52F942F832F8683178220876A
:100B800011862FD3EDB7FEB73A960FB6F894FEBF95
:100B90000FBEEDBFC801D1C0C80162E571E0EFD161
:100BA000009709F08EC00FE112E0BAE08B2E912C75
:100BB0008C0E9D1EA3E4AA2EA1E0BA2EF3E1CF2E47
:100BC000D12CCC0EDD1EECE1EE2EF12CEC0EFD1E38
:100BD00079E5672E71E0772ED8012D913D914D91E9
:100BE0005C91EDB7FEB73A970FB6F894FEBF0FBE13
:100BF000EDBF3196ADB7BEB712969C928E9211970B
:100C0000B382A282CA01AA27BB2784831582BB278D
:100C1000A52F942F832F8683178220871186E1D2F8
:100C2000F8012481358146815781EDB7FEB73196B1
:100C3000ADB7BEB71296DC92CE921197B382A28264
:100C4000CA01AA27BB2784831582BB27A52F942F0F
:100C5000832F8683178220871186C3D2F8012085CF
:100C600000D0EDB7FEB73196ADB7BEB71296FC9285
:100C7000EE9211977382628295828482D782C682B5
:100C8000822F90E08F7791878087332727FD3095DB
:100C90002227330F221F332733872287A2D2EDB7B3
:100CA000FEB73C960FB6F894FEBF0FBEEDBFC7016E
:100CB00063D2075F1F4FF2E003341F0709F08CCFA8
:100CC00047C0C80165E671E05AD1009719F48091D8
:100CD000AC011AC0C8016AE171E051D1009719F462
:100CE0008091180211C0C8016AE671E048D10097EE
:100CF00019F480911A0208C0C80167E271E03FD17F
:100D0000009751F48091190290E0BE016F5F7F4F10
:100D10004AE050E0ADD111C0C80163E771E02FD1C6
:100D2000009719F48BE791E008C0C80168E871E00A
:100D300026D1009751F480E991E01ED209C0C80184
:100D400064E971E01CD1009719F081E08093F5010E
:100D5000E0911402F09115028081882319F081E05E
:100D60008093F5018091F501882351F000D08BE943
:100D700091E0ADB7BEB712969C938E93119707C0C2
:100D800000D080EA91E0EDB7FEB792838183E2D193
:100D90000F900F908091F3019091F401EDD186EFC7
:100DA00091E090931502809314021FC0883081F463
:100DB0002091140230911502F1E0263F3F0741F0E7
:100DC00038F02150304030931502209314020DC0AA
:100DD000E0911402F091150292E0E431F90728F451
:100DE0008193F0931502E0931402E4960FB6F89401
:100DF000DEBF0FBECDBFCF91DF911F910F91FF904E
:100E0000EF90DF90CF90BF90AF909F908F907F90AA
:100E10006F9008959C01E199FECF3FBB2EBBE09AF5
:100E20008DB30895CF92EF920F931F93CF93DF93DB
:100E3000E199FECFC6E2D0E0DFBBCEBBE09A8DB336
:100E4000853A09F452C010921802E199FECF80E071
:100E500090E09FBB8EBB1DBA0FB6F894E29AE19A60
:100E60000FBE10921902E199FECF81E090E09FBB86
:100E70008EBB1DBA0FB6F894E29AE19A0FBE80E0DD
:100E800040E050E060E070E000E010E020E030E0A2
:100E9000EE24CC243DDA81E040E050E060E070E0F8
:100EA00000E010E020E030E033DA82E040E050E0A3
:100EB00060E070E000E010E020E030E029DA83E05C
:100EC00040E050E060E070E000E010E020E030E062
:100ED0001FDAE199FECFDFBBCEBB85EA8DBB0FB633
:100EE000F894E29AE19A0FBE26C0E199FECF80E025
:100EF00090E09FBB8EBBE09A8DB380931802E1997E
:100F0000FECF81E090E09FBB8EBBE09A8DB38093D3
:100F1000190200E010E0B8016E5F7F4FC801815EEA
:100F20009D4F49E050E02AE037E06ED0075F1F4F49
:100F30000432110581F7DF91CF911F910F91EF904E
:100F4000CF900895FC0188279927E89421912032B9
:100F5000E9F3293010F02E30C8F32B3239F02D325E
:100F600031F4689403C0A3D0820F911D21912053C6
:100F70002A30C8F31EF4909581959F4F0895FB0188
:100F8000DC018D91019080190110D9F3990B08951E
:100F9000009731F4DA018D919C91009709F40EC00D
:100FA000DC01FB013D912191222319F03217C9F395
:100FB000FACF332331F4DA011D921C928827992746
:100FC00008951197AF93BF93FB013D912191321783
:100FD00071F4332321F488279927119702C01E92B8
:100FE0001196FA01A193B0839F918F9108952223C6
:100FF00069F7EACFDC016C9161566A3108F0605EF6
:101000006F5B6D93C1F70895A0E0B0E0E9E0F8E010
:10101000DAC47C01EB018A01690109C0CE01219685
:10102000F6010995F70181937F01015010400115E8
:101030001105A1F7CDB7DEB7E8E0E1C4A0E0B0E06C
:10104000E3E2F8E0C0C4EC017B018A01690109C058
:10105000CE012196F70161917F01F60109950150BA
:10106000104001151105A1F7CDB7DEB7E8E0C7C400
:10107000FB019F01E8944230BCF04532ACF44A30A9
:1010800029F497FB1EF4909581959F4F642F772745
:101090007CD4805D8A330CF0895D8193CB0100970D
:1010A000A9F716F45DE251931082C901C2C37AE038
:1010B000979F902D879F802D910D112408950F9358
:1010C0001F93CF93DF938C01EB01009731F46115EF
:1010D000710519F420E030E037C081E090E06EE067
:1010E00070E06ED2FC019C01009771F180E883836F
:1010F000209771F0D387C28781E883838091430270
:1011000090914402892B21F4F0934402E09343022E
:1011100001151105C9F011870087838182608383DF
:101120008091450290914602892B71F4F09346021A
:10113000E09345028091470290914802892B21F467
:10114000F0934802E0934702C901DF91CF911F91CC
:101150000F910895A0E0B0E0EFEAF8E03AC4FE0194
:101160003596619171918091450290914602AF014F
:1011700059D02096E2E049C40F931F93CF93DF9399
:101180008C01E0914502F0914602838181FF21C0EC
:10119000C0E0D0E00DC0E0914502F091460220850C
:1011A0003185BF01F9010995892B11F0CFEFDFEFF0
:1011B000F80181918F01882371F7E0914502F09148
:1011C0004602208531858AE0BF01F9010995892B06
:1011D00011F0CFEFDFEFCE01DF91CF911F910F9193
:1011E0000895AEE0B0E0E6EFF8E0F1C30D891E89A6
:1011F00086E08C831A8309838FEF9FE79E838D831C
:101200009E01275E3F4FCE0101966F89788DA9011F
:1012100009D02F813885020F131FF80110822E96F6
:10122000E4E0F1C3ABE0B0E0E7E1F9E0C2C33C01C8
:101230002B015A01FC0117821682838181FD03C0B4
:101240006FEF7FEFB9C19AE0892E1E010894211C2F
:10125000311CF3012381F20123FD859123FF81914C
:101260002F01882309F4A5C1853239F423FD859126
:1012700023FF81912F01853221F490E0B301E9D25F
:10128000E8CF982FFF24EE249924FFE1FF15D0F03A
:101290009B3269F09C3228F4903259F0933291F4E9
:1012A0000EC09D3249F0903369F441E024C052E011
:1012B000F52A84E0F82A28C098E0F92A25C0E0E160
:1012C000FE2A22C0F7FC29C0892F80538A3070F48F
:1012D000F6FE05C0989C902C1124980E15C0E89C31
:1012E000E02C1124E80EF0E2FF2A0EC09E3229F411
:1012F000F6FC5FC140E4F42A07C09C3619F450E8BC
:10130000F52A02C0983649F4F20123FD959123FF96
:1013100091912F01992309F0B8CF892F85548330FB
:1013200018F08052833038F444E050E0A40EB51E2B
:101330005FE359830FC0933631F0933779F09335DB
:1013400009F052C01FC0F5018081898342E050E05E
:10135000A40EB51E610101E010E011C0F501C080CE
:10136000D180F6FC03C06FEF7FEF02C0692D70E003
:1013700042E050E0A40EB51EC60150D28C015FE7DA
:10138000F52213C0F501C080D180F6FC03C06FEFD9
:101390007FEF02C0692D70E042E050E0A40EB51E60
:1013A000C6012AD28C0150E8F52AF3FE06C018C007
:1013B00080E290E0B3014DD2EA948E2D90E00817C0
:1013C0001907B0F30DC0F601F7FC8591F7FE819186
:1013D0006F0190E0B3013DD2E110EA94015010405A
:1013E0000115110581F7E2C0943611F0993661F5C7
:1013F000F7FE08C0F501208131814281538184E0EC
:1014000090E00AC0F501808191819C01442737FD5D
:101410004095542F82E090E0A80EB91E9FE6F92275
:1014200057FF09C050954095309521953F4F4F4F3C
:101430005F4FE0E8FE2ACA01B901A1012AE030E0CD
:1014400034D2D82ED2183FC0953729F41F2D1F7ED5
:101450002AE030E01DC01F2D197F9F3661F09037C4
:1014600020F4983509F0A5C00FC0903739F09837AF
:1014700009F09FC004C028E030E00AC0106114FDEC
:10148000146020E130E004C014FD166020E132E079
:1014900017FF08C0F501608171818281938144E06A
:1014A00050E008C0F50180819181BC0180E090E0AE
:1014B00042E050E0A40EB51EA101F7D1D82ED218FB
:1014C0008FE7F82EF122F6FE0BC05EEFF522D9145D
:1014D00038F4F4FE07C0F2FC05C08FEEF82202C01B
:1014E0001D2D01C0192DF4FE0DC0FE01ED0DF11DE5
:1014F0008081803319F499EEF92208C01F5FF2FE53
:1015000005C003C08F2D867809F01F5F0F2DF3FCF7
:1015100013C0F0FE0EC01E1510F09D2C0AC09D2CAD
:101520009E0C911A1E2D05C080E290E0B30191D16E
:101530001F5F1E15C8F304C01E1510F4E11A01C088
:10154000EE2404FF0EC080E390E0B30182D102FFDD
:101550001BC001FD03C088E790E00EC088E590E065
:101560000BC0802F867881F001FF02C08BE201C0A2
:1015700080E2F7FC8DE290E0B3016BD105C080E31F
:1015800090E0B30166D19A94D914C8F3DA94F101CA
:10159000ED0DF11D808190E0B3015BD1DD20B1F74D
:1015A00005C080E290E0B30154D1EA94EE20C9F77F
:1015B00050CEF30166817781CB012B96E2E115C213
:1015C0000F931F93CF93DF93689F8001699F100D46
:1015D000789F100D1124C8010DD0EC01009721F067
:1015E00060E070E0A80113D1CE01DF91CF911F918F
:1015F0000F910895CF93DF93BC018230910510F4D1
:1016000062E070E0A0914B02B0914C02ED01E0E08D
:10161000F0E040E050E021C088819981861797076B
:1016200069F48A819B81309719F09383828304C087
:1016300090934C0280934B02FE0134C068177907E7
:1016400038F44115510519F08417950708F4AC01D9
:10165000FE018A819B819C01E9012097E9F64115F1
:101660005105A9F1CA01861B970B049708F4BA012A
:10167000E0E0F0E02AC08D919C91119784179507C6
:10168000F9F46417750781F412968D919C91139764
:10169000309719F09383828304C090934C02809317
:1016A0004B02FD0132964CC0CA01861B970BFD010F
:1016B000E80FF91F6193719302978D939C9340C03B
:1016C000FD01828193819C01D9011097A1F680913F
:1016D000490290914A02892B41F48091A70190918F
:1016E000A80190934A02809349024091A901509128
:1016F000AA014115510541F44DB75EB78091A5018E
:101700009091A601481B590B2091490230914A0241
:10171000CA01821B930B8617970780F0AB014E5FBF
:101720005F4F8417950750F0420F531F50934A02A2
:1017300040934902F9016193719302C0E0E0F0E047
:10174000CF01DF91CF910895CF93DF93009709F4F4
:1017500050C0EC0122971B821A82A0914B02B091DB
:101760004C02109709F140E050E0AC17BD0708F1BA
:10177000BB83AA83FE0121913191E20FF31FAE17C3
:10178000BF0779F48D919C911197280F391F2E5F17
:101790003F4F3983288312968D919C9113979B8399
:1017A0008A834115510571F4D0934C02C0934B02CA
:1017B00020C012968D919C911397AD01009711F066
:1017C000DC01D3CFFA01D383C28321913191E20F9F
:1017D000F31FCE17DF0769F488819981280F391F1D
:1017E0002E5F3F4FFA01318320838A819B8193834F
:1017F0008283DF91CF910895FC0105906150704084
:101800000110D8F7809590958E0F9F1F0895DC01E9
:1018100001C06D9341505040E0F70895FC016150C4
:10182000704001900110D8F7809590958E0F9F1F02
:101830000895DC01FC01672F71917723E1F732975E
:1018400004C07C916D9370836291AE17BF07C8F39B
:1018500008950F931F93CF93DF938C01EB018B813E
:1018600081FF1BC082FF0DC02E813F818C819D8135
:101870002817390764F4E881F9810193F983E88333
:1018800006C0E885F985802F0995892B31F48E8172
:101890009F8101969F838E8302C00FEF1FEFC801C7
:1018A000DF91CF911F910F910895FA01AA27283057
:1018B00051F1203181F1E8946F936E7F6E5F7F4F1D
:1018C0008F4F9F4FAF4FB1E03ED0B4E03CD0670F99
:1018D000781F891F9A1FA11D680F791F8A1F911DEC
:1018E000A11D6A0F711D811D911DA11D20D009F43C
:1018F00068943F912AE0269F11243019305D31937E
:10190000DEF6CF010895462F4770405D4193B3E066
:101910000FD0C9F7F6CF462F4F70405D4A3318F00D
:10192000495D31FD4052419302D0A9F7EACFB4E0BE
:10193000A6959795879577956795BA95C9F7009776
:101940006105710508959B01AC010A2E0694579517
:10195000479537952795BA95C9F7620F731F841F6E
:10196000951FA01D0895991B79E004C0991F961733
:1019700008F0961B881F7A95C9F780950895EE0F99
:10198000FF1F0590F491E02D0994AA1BBB1B51E1A8
:1019900007C0AA1FBB1FA617B70710F0A61BB70BDF
:1019A000881F991F5A95A9F780959095BC01CD0184
:1019B00008952F923F924F925F926F927F928F92F3
:1019C0009F92AF92BF92CF92DF92EF92FF920F93CE
:1019D0001F93CF93DF93CDB7DEB7CA1BDB0B0FB6D8
:1019E000F894DEBF0FBECDBF09942A883988488895
:1019F0005F846E847D848C849B84AA84B984C8842B
:101A0000DF80EE80FD800C811B81AA81B981CE0F21
:101A1000D11D0FB6F894DEBF0FBECDBFED01089506
:041A2000F894FFCF68
:101A24000D0A2077656C636F6D6520746F20746890
:101A3400652061746D656C20626F617264210D0AAA
:101A44000D0A00696C6C6567616C2074696D65735F
:101A540077697463682069640077726F6E67206FBA
:101A64007574707574206E756D62657200206661A0
:101A7400696C656420746F2070617273652073747F
:101A840072696E673B20696E70757420656D707441
:101A940079003A002074696D65206D757374206255
:101AA4006520696E2068683A6D6D3A737320666FBD
:101AB400726D6174210020696E76616C69642074B2
:101AC400696D6520666F726D6174005345540054EE
:101AD400494D450054494D45520054454D505345D8
:101AE40054504F494E540048554D49444954595354
:101AF4004554504F494E54004F5554505554004787
:101B0400455400253032643A253032643A25303267
:101B1400640054494D4552530025732025732025F4
:101B2400642025640054454D500048554D494449AE
:101B34005459004F55545055545300737475622DC5
:101B44006F7574707574730056455253494F4E0047
:101B5400302E310048454C4C4F00004641494C0062
:0C1B64004F4B00200020004D020000004C
:00000001FF
