:10000000CFC096C2F2C0F1C0F0C0EFC0EEC0EDC0EC
:10001000ECC0EBC0EAC0CFC1F8C1E7C0E6C0E5C0A4
:10002000E4C0E3C0E2C04865697A4C616D70650068
:100030004865697A4472616874004E65626C6572E5
:10004000004C616D706532004C616D706531000D62
:100050000A004F4B004641494C0020554E4B4E4F35
:10006000574E20434F4D4D414E4400434F4D4D4957
:10007000540048454C4C4F004745540053455400EC
:1000800020554E4B4E4F574E20434F4D4D414E4401
:10009000004F55545055540048554D494449545902
:1000A000534554504F494E540054454D50534554B8
:1000B000504F494E540054494D4552004441595403
:1000C000494D450044415445005449544C45005461
:1000D000494D450020554E4B4E4F574E20434F4DF6
:1000E0004D414E44005465727261436F6E74726F7D
:1000F0006C20302E312C206D727520323030390D4D
:100100000A0056455253494F4E004F5554505554CE
:10011000530048554D4944495459534554504F494B
:100120004E540048554D49444954590054454D508A
:10013000534554504F494E540054454D5000544976
:100140004D45525300495344415954494D4500448B
:10015000415954494D450044415445005449544C7B
:10016000450054494D45000D0A000D0A000D0A00D6
:100170000D0A00300031000D0A0020002000200090
:1001800020002B20000D0A000D0A0020000D0A009F
:1001900020000D0A002030002031002B2000D70164
:1001A00011241FBECFE5D4E0DEBFCDBF10E0A0E636
:1001B000B0E0ECE0F9E102C005900D92AA39B10778
:1001C000D9F711E0AAE9B0E001C01D92AC38B1073F
:1001D000E1F711E0C0EAD1E003C02297FE0159DB4C
:1001E000CE39D107D1F7A9D08FCB0ACF0F931F9368
:1001F000DF93CF93CDB7DEB729970FB6F894DEBF64
:100200000FBECDBF6091190170911A0180911B0141
:1002100090911C0120911D0130911E0140911F0100
:1002200050912001A0D1182FC3D980938301C2D946
:1002300080939A007DD2113011F053E001C054E058
:10024000A12FB0E020E030E0FD01ED5EFE4F909187
:1002500083018481981710F421E030E0220F331FCE
:10026000220F331F40919B00422B20E030E0AD5E17
:10027000BE4F90919A0011968C91981710F421E03E
:1002800030E002C0220F331F5A95E2F7842F822BF1
:1002900080939B003BDAA7D580919A008E010F5F77
:1002A0001F4FB801C8D993D580E690E090D58091D2
:1002B0008301B801C0D98BD585E285D580919C009A
:1002C000805D81D581E060E073D580919D008823B9
:1002D00019F0813039F517C060918801709189015A
:1002E00080918A0190918B01A8017DD170D5809178
:1002F0009E008F5F80939E008150833099F481E04F
:1003000080939D000DC089E291E061D580919E00AF
:100310008F5F80939E008150833021F410929D0066
:1003200010929E0029960FB6F894DEBF0FBECDBF87
:10033000CF91DF911F910F91089588EE93E024E112
:1003400031E0F9013197F1F70197D9F784B780933C
:100350009C0014BE10D478941BD28FEF81BB87BB56
:1003600084BB15BAF6D0B6D152D2B2D381E03CD21A
:1003700041D5F2D447D9C9D980E060E019D583E6E8
:1003800090E025D5DBD82FE088E190E00FB6F89417
:10039000A89581BD0FBE21BD6CD021E080309207B1
:1003A00009F093D57AD1811121DFA895F5CF81E1AC
:1003B00090E050D008951F920F920FB60F92112423
:1003C0002F938F939F93EF93FF939BB12CB1E09169
:1003D000E100EF5FEF718091E200E81711F482E035
:1003E00008C0892F8871E093E100F0E0E154FF4FED
:1003F00020838093E300FF91EF919F918F912F9144
:100400000F900FBE0F901F9018951F920F920FB66E
:100410000F9211248F939F93EF93FF939091DF009E
:100420008091E000981761F0E091E000EF5FEF71DC
:10043000E093E000F0E0E156FF4F80818CB901C00D
:100440005598FF91EF919F918F910F900FBE0F9054
:100450001F9018951092DF001092E0001092E100BA
:100460001092E20090BD89B988E98AB986E880BD1A
:1004700008959091E1008091E200981719F420E02E
:1004800031E012C0E091E200EF5FEF71E093E20033
:10049000F0E0E154FF4F30812091E300922F80E0A3
:1004A000AC01430F511D9A01C9010895282F909165
:1004B000DF009F5F9F718091E0009817E1F3E92FC3
:1004C000F0E0E156FF4F20839093DF00559A0895A6
:1004D000DC0111C09091DF009F5F9F718091E0006F
:1004E0009817E1F31196E92FF0E0E156FF4F2083D2
:1004F0009093DF00559A2C91222361F70895AC0167
:1005000010C02091DF002F5F2F718091E00028172D
:10051000E1F3E22FF0E0E156FF4F90832093DF00FC
:10052000559AFA014F5F5F4F9491992351F70895BF
:100530001F920F920FB60F9211248F938091E400B7
:100540008F5F8093E4008F910F900FBE0F901F90EC
:1005500018958A9885B7836085BF8BB780648BBFF9
:100560001092E4000895EF92FF920F931F93790188
:100570008A01621773078407950711F480E02EC083
:10058000209188013091890140918A0150918B011D
:100590006E157F058007910798F4261737074807DF
:1005A000590718F480E090E019C090E0E216F306D5
:1005B0000407150708F491E081E09827892F0EC001
:1005C000261737074807590738F480E090E0E2160D
:1005D000F3060407150710F081E090E01F910F91DA
:1005E000FF90EF900895CF92DF92EF92FF920F93DA
:1005F0001F937B018C016A01C801AA27BB27BA019E
:1006000050D8BB27A12F902F8F2DB6016D5F7F4F44
:1006100048D8B6016A5F7F4F8E2D43D88AE3F60132
:1006200082838583C6011F910F91FF90EF90DF9029
:10063000CF900895CF92DF92EF92FF920F931F9386
:10064000DF93CF9300D000D0CDB7DEB77B018C0114
:10065000AA27BB276E010894C11CD11CB60121D862
:1006600037DF8EE223DFBB27A12F902F8F2DB6011E
:1006700018D82EDF8EE21ADF8E2DB60112D828DFB1
:100680000F900F900F900F90CF91DF911F910F91CE
:10069000FF90EF90DF90CF9008958091E400882341
:1006A000C1F0A9D1609388017093890180938A0178
:1006B00090938B0133D16093840170938501809373
:1006C0008601909387018091E40081508093E4003B
:1006D00081E008950895CF92EF920F931F9390E0D9
:1006E000FC01A3E0EE0FFF1FAA95E1F7E80FF91F49
:1006F000ED5EFE4F40A751A762A773A704A715A7F9
:1007000026A737A7CC2011F420E001C020E8FC0187
:1007100033E0EE0FFF1F3A95E1F7E80FF91FED5EAA
:10072000FE4F2E2920AB1F910F91EF90CF9008958F
:100730000F931F93CF93DF9310929B00CBE3D1E0F5
:1007400001E010E0888587FF19C0688179818A817E
:100750009B812C813D814E815F8105DF882371F073
:1007600088858F77980102C0220F331F8A95E2F7A0
:10077000C90120919B00282B20939B00299631E0F2
:10078000C338D307F9F6DF91CF911F910F910895E8
:100790000895823091F0833028F4882341F081302D
:1007A000B1F408C0833061F0843089F40DC088E46E
:1007B00090E008C081E490E005C08AE390E002C0C8
:1007C00080E390E09CDE089586E290E098DE089554
:1007D0001F93182F2AD0812F885B30D04ED0182F2E
:1007E0002AD0812F1F9108951F93182F185B1DD0B9
:1007F000812F2DD081E03AD080E638D01CD015D0A2
:10080000812F25D080E032D016D01F91089584B377
:100810008F7C84BB85B3806385BB85E086BF8AE01F
:1008200080B981B18C7F81B9089584EA86BF06B60C
:1008300007FEFDCF089584E986BF0895880F8F5F76
:1008400083B984E886BF06B607FEFDCF0895880FFA
:1008500083B984E886BF06B607FEFDCF089583B945
:1008600084E886BF06B607FEFDCF089583B984E805
:1008700086BF06B607FEFDCF089584E886BF06B69C
:1008800007FEFDCF83B1089584EC86BF06B607FE50
:10089000FDCF83B10895382F6AE0C6D7282F2F7077
:1008A00086EF9FEF289F802D1124830F8F70229554
:1008B000207F820F0895FF920F931F93F82E062F2B
:1008C000142FB3DF88E6C3DF80E0D0DF812FE3DFC2
:1008D0008F77CCDF802FDFDFC9DF8F2DDCDFC6DF36
:1008E000AADF1F910F91FF900895FF920F931F931E
:1008F000F82E062F142F99DF88E6A9DF84E0B6DFF3
:10090000812FC9DFB3DF802FC6DFB0DF8F2DC3DFBC
:10091000ADDF91DF1F910F91FF9008959F92AF92ED
:10092000BF92CF92DF92EF92FF920F931F937DDFE2
:1009300088E68DDF84E09ADF7EDF77DF88E67EDF82
:10094000A3DFE82EA1DFA82E98DF982E74DF8E2D6E
:1009500082958F7090E09C01B3E0220F331FBA950F
:10096000E1F7880F991F280F391F8FE0E822E20E68
:10097000FF2400E010E08701FF24EE248A2D8295F9
:100980008F7090E09C01E3E0220F331FEA95E1F7BE
:10099000880F991F280F391F8FE0A822A20EBB24B1
:1009A000CC24DD24DC2CCB2CBA2CAA24EA0CFB1C96
:1009B0000C1D1D1D892D82958F7090E09C0153E0C8
:1009C000220F331F5A95E1F7880F991F280F391FFF
:1009D0008FE09822920EE90CF11C011D111DB70148
:1009E000C8011F910F91FF90EF90DF90CF90BF90C3
:1009F000AF909F9008959F92AF92BF92CF92DF9257
:100A0000EF92FF920F931F9310DF88E620DF80E0C4
:100A10002DDF11DF0ADF88E611DF36DF982E34DFA5
:100A2000A82E2BDFE82E07DF8E2D82958F7090E0A9
:100A30009C01B3E0220F331FBA95E1F7880F991F8D
:100A4000280F391F8FE0E822E20EFF2400E010E0BB
:100A50008701FF24EE248A2D82958F7090E09C01FF
:100A6000E3E0220F331FEA95E1F7880F991F280F63
:100A7000391F8FE0A822A20EBB24CC24DD24DC2C5D
:100A8000CB2CBA2CAA24EA0CFB1C0C1D1D1D892D95
:100A900082958F7090E09C0153E0220F331F5A958E
:100AA000E1F7880F991F280F391F8FE09822920EC7
:100AB000E90CF11C011D111DB701C8011F910F9117
:100AC000FF90EF90DF90CF90BF90AF909F900895F0
:100AD0001F93ABDE88E6BBDE80E0C8DEACDEA5DEC1
:100AE00088E6ACDECADE182FA6DE17FF16C09DDE34
:100AF00088E6ADDE80E0BADE80E0B8DE80E0B6DE1B
:100B000080E0B4DE80E0B2DE81E0B0DE81E0AEDE27
:100B100089E0ACDE80E1AADE8EDE1F9108959C01A3
:100B2000E199FECF3FBB2EBBE09A8DB308959C01A7
:100B3000E199FECF3FBB2EBB6DBB0FB6F894E29A96
:100B4000E19A0FBE0895089581E090E063E171E0BD
:100B500040E750E027E935E04DD6E199FECF80E04F
:100B600090E09FBB8EBB85EA8DBB0FB6F894E29AEE
:100B7000E19A0FBE0895CF92EF920F931F93DF93E8
:100B8000CF93CDB7DEB728970FB6F894DEBF0FBE70
:100B9000CDBFE199FECF80E090E09FBB8EBBE09A95
:100BA0008DB3853A09F48FC080E090E0A8E0B0E012
:100BB00089839A83AB83BC8320E030E044E150E03A
:100BC0002D833E834F8358878093190190931A0198
:100BD000A0931B01B0931C0194E1909314018EE14A
:100BE0008093170120931D0130931E0140931F0134
:100BF00050932001909315018093180180E040E00C
:100C000050E06BE070E000E010E02DE030E0EE241A
:100C1000CC24C39460DD81E040E050E06AE070E005
:100C200000E010E02EE030E0EE24E39454DD82E0BA
:100C300040E050E06AE070E000E010E02EE030E0DC
:100C400094E0E92E48DD83E040E050E060E070E0B1
:100C500000E010E020E030E0EE24CC243CDD84E035
:100C600040E050E060E070E000E010E020E030E0C4
:100C700032DD85E040E050E060E070E000E010E050
:100C800020E030E028DD86E040E050E060E070E009
:100C900000E010E020E030E01EDD87E040E050E0C2
:100CA00060E070E000E010E020E030E014DD89E278
:100CB00091E06CE670E049E050E037D581E0809348
:100CC000E50042DF09C083E191E061E070E040E7C8
:100CD00050E02FE835E074D528960FB6F894DEBFC3
:100CE0000FBECDBFCF91DF911F910F91EF90CF90AD
:100CF000089594B39F6094BB95B3907F95BB9698ED
:100D0000882311F0959A01C0959800000000979AE9
:100D10000000000085B36F70862B85BB00000000CB
:100D2000979800000000979A0000000008950F9324
:100D30001F93182F062F62956F70DBDF00000000F5
:100D4000812F602FD6DF0000000086E690E2019739
:100D5000F1F71F910F9108950F931F9380E063E0C7
:100D6000C8DF80E096E30197F1F780E063E0C1DF40
:100D70000CEC1AE0C8010197F1F780E063E0B9DFFD
:100D8000C8010197F1F780E062E0B3DF80E068E23C
:100D9000CEDF80E06CE0CBDF80E061E0C8DF80E0A8
:100DA00066E0C5DF80E062E0C2DF1F910F91089529
:100DB000962F682F6295660F660F607C690F6068DA
:100DC00080E0B5DF0895682F81E0B1DF0895CF930B
:100DD000DF93EC0102C02196F6DF88818823D9F7E2
:100DE000DF91CF91089580E061E0A1DF80E060E0D5
:100DF000DFDF089587EE90E09093100180930F015C
:100E000008958F929F92AF92BF92CF92DF92EF920E
:100E1000FF920F931F93DF93CF9300D0CDB7DEB730
:100E200080E090E063E770E04FE051E08DD435E77B
:100E3000E32E30E0F32EB7018E010F5F1F4FA801A4
:100E400083D45C0180E090E0B701A8017DD46C01FF
:100E500080E090E0B701A80177D44C01C50133D4FC
:100E6000E82EC60130D4A82EC4012DD4FF2400E002
:100E700010E08701FF24EE24BB24CC24DD24DC2CED
:100E8000CB2CBA2CAA24EA0CFB1C0C1D1D1DE80E51
:100E9000F11C011D111DB701C8010F900F90CF91DA
:100EA000DF911F910F91FF90EF90DF90CF90BF9057
:100EB000AF909F908F90089580E090E063E770E09E
:100EC0004FE051E041D4FFD308954F925F926F926B
:100ED0007F928F929F92AF92BF92CF92DF92EF92CA
:100EE000FF920F931F93DF93CF93CDB7DEB7A197F8
:100EF0000FB6F894DEBF0FBECDBF8D3019F08A302B
:100F000009F0EAC2E0910F01F091100187EE90E044
:100F1000E817F90709F4FBC210829093100180933F
:100F20000F01909312018093110140D41092E600BA
:100F300080E090E063E770E04FE051E005D48C0181
:100F4000DC018C91882309F4C0C2D8010D900020E7
:100F5000E9F77D01E01AF10AC8016CE770E0A7012A
:100F6000D6D3892B09F0FBC080E090E063E770E006
:100F70004FE051E0E9D3F82EE92EE82FF92FDF01F9
:100F80000D900020E9F78D010E1B1F0B6FEC70E038
:100F9000A801BDD3892B69F434DF9B01AC01AA27DA
:100FA000BB27E32EF42E052F11276E2D422F83DC55
:100FB0007FC28F2D9E2D69EC70E0A801A8D3892BEC
:100FC000D9F460910F017091100189E291E049E03C
:100FD00050E0ABD380910F0190911001FC01019082
:100FE0000020E9F73197E81BF90B8E0F9F1F9093B4
:100FF000100180930F015CC28F2D9E2D64EC70E078
:10100000A80185D3892B09F045C080E090E063E713
:1010100070E04FE051E098D367E770E08E010F5F1A
:101020001F4FA80191D37C0180E090E067E770E05A
:10103000A8018AD36C0180E090E067E770E0A80126
:1010400083D34C01C7013FD3E82EC6013CD3A82E61
:10105000C40139D3FF2400E010E08701FF24EE240F
:10106000BB24CC24DD24DC2CCB2CBA2CAA24EA0C07
:10107000FB1C0C1D1D1DE80EF11C011D111DC801DE
:10108000AA27BB275527412F302F2F2D622F4E2DFA
:101090002CDC0EC28F2D9E2D6CEB70E0A80137D397
:1010A000892B99F4AEDE6093190170931A01809335
:1010B0001B0190931C01A5DE60931D0170931E011E
:1010C00080931F0190932001F3C18F2D9E2D66EB1D
:1010D00070E0A8011CD3892B99F4EEDE182F91DE65
:1010E0002B013C018EDE4B015C01E6DEE82EE4DEE6
:1010F000C82E812FB301A20195018401ECDAD8C179
:101100008F2D9E2D69EA70E0A80101D3892B41F44F
:10111000D3DE182FD1DE8093140110931501C8C1BE
:101120008F2D9E2D68E970E0A801F1D2892B39F44A
:10113000C3DE80931801C0DE80931701B9C18F2DE3
:101140009E2D61E970E0A801E2D2892B11F4B4DE92
:10115000AFC181E08093E60080E890E0A8C1C801BB
:1011600068E770E0A701D3D2892B09F08BC180E03A
:1011700090E063E770E04FE051E0E6D2F82EE92E10
:10118000E82FF92FDF010D900020E9F78D010E1BEC
:101190001F0B62E671E0A801BAD2892B81F460913D
:1011A00088017091890180918A0190918B01AE0133
:1011B000495F5F4F18DA8CD987E691E078C18F2DAF
:1011C0009E2D6CE571E0A801A2D2892B31F489E251
:1011D00091E07ED98AE691E06AC18F2D9E2D67E568
:1011E00071E0A80194D2892B51F46091840170912F
:1011F000850180918601909187011CDAEAC08F2DCC
:101200009E2D6FE471E0A80182D2892B01F56091D7
:10121000190170911A0180911B0190911C018E019E
:10122000005F1F4FA801DFD960911D0170911E0161
:1012300080911F0190912001AE01475E5F4FD3D98D
:1012400080E2888FC80144D98DE691E030C18F2DAE
:101250009E2D65E471E0A8015AD2892BE1F46091DA
:10126000190170911A0180911B0190911C0120912C
:101270001D0130911E0140911F015091200173D931
:10128000882319F085E791E002C083E791E037D920
:1012900080E791E00CC18F2D9E2D6EE371E0A801D7
:1012A00036D2892B09F059C00BE311E047E0E42E58
:1012B000F12CEC0EFD1E82E891E021D9F80160814D
:1012C000718182819381A7018ED902D980E891E052
:1012D00016D9D80114966D917D918D919C91179797
:1012E000A70181D9F5D88EE791E009D9F801808569
:1012F0008F77B701A0D1ECD88CE791E000D990E0CE
:10130000D80118968C9187FD91E0892FB70193D170
:10131000DFD88AE791E0F3D8F801808587FD02C025
:1013200080E00DC0D8016D917D918D919C911397B6
:1013300014962D913D914D915C91179714D9B70159
:101340007AD1C6D887E791E0DAD8075F1F4FB1E0BE
:1013500003381B0709F0AFCFABC08F2D9E2D69E37B
:1013600071E0A801D4D1892B51F480919A00BE017B
:101370006D5F7F4F60D1ACD885E891E098C08F2D2C
:101380009E2D6CE271E0A801C2D1892B99F48E01E7
:101390000D5F1F4F80911501B8014DD199D88BE891
:1013A00091E0ADD880911401B80145D191D888E879
:1013B00091E07DC08F2D9E2D63E271E0A801A7D141
:1013C000892B59F480918301BE016D5F7F4F33D12A
:1013D0007FD889E790E07CD86BC08F2D9E2D62E18D
:1013E00071E0A80194D1892B99F48E010D5F1F4FF4
:1013F00080911801B8011FD16BD880E991E07FD8A6
:1014000080911701B80117D163D88DE891E04FC0E2
:101410008F2D9E2D6AE071E0A80179D1892B09F505
:1014200000E010E08BE991E06AD8802FB2D980917A
:101430009B0090E0002E02C0959587950A94E2F7F4
:1014400080FF03C088E991E002C085E991E057D8A8
:1014500082E991E054D80F5F1F4F0530110511F755
:1014600027C08F2D9E2D62E071E0A80150D1892BFD
:1014700019F485EE90E01BC081E08093E60084EDD6
:1014800090E015C0C80162E770E0A70140D1892B48
:1014900079F0C8016BE670E0A70139D1892B11F40E
:1014A00053DB06C081E08093E6008AE590E027D810
:1014B0008091E600882319F085E590E002C082E57E
:1014C00090E01DD88FE490E01AD887EE90E09093DA
:1014D000100180930F011BC0883061F4E0910F016F
:1014E000F091100120E0E73EF20721F018F01082A1
:1014F000319709C0E0910F01F091100191E0EF30B8
:10150000F90728F48193F0931001E0930F01A1965D
:101510000FB6F894DEBF0FBECDBFCF91DF911F9104
:101520000F91FF90EF90DF90CF90BF90AF909F9082
:101530008F907F906F905F904F900895EF92FF9201
:101540001F93DF93CF9300D000D0CDB7DEB710E06C
:101550007E010894E11CF11C1F5F812FB7016BD045
:1015600081E060E025DC8CE790E031DCC7012FDC16
:10157000153091F70F900F900F900F90CF91DF9152
:101580001F91FF90EF900895939A949800000000A7
:10159000939800000000949800000000949A0000C6
:1015A0000000939A00000000949800000000089545
:1015B00082E2089581E00CD90895482F90E820E058
:1015C00030E0892F842311F0939A01C09398000092
:1015D0000000949A00000000949800000000969586
:1015E00096952F5F3F4F2430310559F7949A80B379
:1015F000949890E083709070892B19F082E890E0C5
:1016000067D7089581B3886181BB939A82B3939A17
:101610000000000080E0949A000000009498000010
:1016200000008F5F8930B9F7AFDFAEDF86E0C5DF3E
:1016300081E0C3DF08951F93482FFB0164E6F4D0D7
:10164000182F282F30E08CE99FEFB901689F900197
:10165000699F300D789F300D1124C901840F911DB1
:101660006AE070E0EDD0420F86EF9FEF689F802D1B
:101670001124840F112341F0105D1083605D61839C
:10168000805D828313820AC0805D662329F0605DDD
:1016900060838183128202C080831182CF011F91F7
:1016A0000895482FFB016AE0BFD0805D808380539E
:1016B000405D26EF3FEF829F802D1124840F8183B0
:1016C0001282CF010895FC0180E02AE005C0829FCC
:1016D000802D1124890F3196908190539A30B8F360
:1016E000089590E080538A3008F491E0892F08959E
:1016F000FC01808180538A3010F080E0089531969B
:1017000080818823B1F781E0089508950895FB0151
:10171000DC014150504030F08D910590801919F452
:101720000020B9F7881B990B0895FB01DC0141509B
:10173000504048F001900D920020C9F701C01D9261
:1017400041505040E0F70895009731F4DA018D914F
:101750009C91009709F40EC0DC01FB013D912191A1
:10176000222319F03217C9F3FACF332331F4DA0107
:101770001D921C928827992708951197AF93BF93C4
:10178000FB013D912191321771F4332321F4882715
:101790009927119702C01E921196FA01A193B08366
:1017A0009F918F910895222369F7EACFDC016C9114
:1017B00061566A3108F0605E6F5B6D93C1F7089502
:1017C000A0E0B0E0E5EEFBE072C07C01EB018A0135
:1017D000690109C0CE012196F6010995F7018193AF
:1017E0007F010150104001151105A1F7CDB7DEB7FB
:1017F000E8E079C0A0E0B0E0EFEFFBE058C0EC011A
:101800007B018A01690109C0CE012196F70161912E
:101810007F01F60109950150104001151105A1F74E
:10182000CDB7DEB7E8E05FC0991B79E004C0991F2F
:10183000961708F0961B881F7A95C9F7809508952A
:1018400097FB092E07260AD077FD04D00CD006D0CE
:1018500000201AF4709561957F4F0895F6F79095E2
:1018600081959F4F0895AA1BBB1B51E107C0AA1F7A
:10187000BB1FA617B70710F0A61BB70B881F991F31
:101880005A95A9F780959095BC01CD010895EE0F6A
:10189000FF1F0590F491E02D09942F923F924F92F3
:1018A0005F926F927F928F929F92AF92BF92CF92F0
:1018B000DF92EF92FF920F931F93CF93DF93CDB7F9
:1018C000DEB7CA1BDB0B0FB6F894DEBF0FBECDBF71
:1018D00009942A88398848885F846E847D848C8442
:1018E0009B84AA84B984C884DF80EE80FD800C814B
:1018F0001B81AA81B981CE0FD11D0FB6F894DEBF2E
:0C1900000FBECDBFED010895F894FFCF9D
:10190C00DF20005374617274696E67004E4F4E4154
:10191C004D450020003A002E000D0A00504F535444
:10192C002000206661696C656420746F20726563A9
:0A193C00656976652061636B0000A9
:00000001FF
