:10000000CFC0B4C2F2C0F1C0F0C0EFC0EEC0EDC0CE
:10001000ECC0EBC0EAC0EDC116C2E7C0E6C0E5C067
:10002000E4C0E3C0E2C04865697A4C616D70650068
:100030004865697A4472616874004E65626C6572E5
:10004000004C616D706532004C616D706531000A65
:10005000004F4B004641494C0020554E4B4E4F57E8
:100060004E20434F4D4D414E4400434F4D4D49545A
:100070000048454C4C4F0047455400534554002020
:10008000554E4B4E4F574E20434F4D4D414E440021
:100090004F55545055540048554D494449545953AF
:1000A0004554504F494E540054454D5053455450BB
:1000B0004F494E540054494D45520044415954490A
:1000C0004D450044415445005449544C4500544961
:1000D0004D450020554E4B4E4F574E20434F4D4DF2
:1000E000414E44005465727261436F6E74726F6C5E
:1000F00020302E312C204275696C642032342C2043
:100100006D727520323031300A0056455253494FD6
:100110004E004F5554505554530048554D4944498D
:100120005459534554504F494E540048554D494435
:100130004954590054454D50534554504F494E541D
:100140000054454D500054494D45525300495344C5
:10015000415954494D450044415954494D45004485
:10016000415445005449544C450054494D45000AFA
:10017000000A000A000A00300031000A00200020B6
:1001800000200020002B20000A000A0020000A00A6
:1001900020000A002030002031002B200000F50153
:1001A00011241FBECFE5D4E0DEBFCDBF10E0A0E636
:1001B000B0E0EEE3F9E102C005900D92A238B1077C
:1001C000D9F711E0A2E8B0E001C01D92A537B10750
:1001D000E1F711E0C0EAD1E003C02297FE0172DB33
:1001E000CE39D107D1F7B7D0A8CB0ACF0F931F9341
:1001F000DF93CF93CDB7DEB729970FB6F894DEBF64
:100200000FBECDBF60910201709103018091040186
:10021000909105012091060130910701409108015C
:1002200050910901BFD1182F12DA80936C0111DAB5
:10023000809382009CD2113011F053E001C054E051
:10024000A12FB0E020E030E0FD01E450FF4F90919D
:100250006C018481981710F421E030E0220F331FE5
:10026000220F331F40918300422B20E030E0A45046
:10027000BF4F9091820011968C91981710F421E055
:1002800030E002C0220F331F5A95E2F7422B409311
:1002900083008091870080FD02C080E001C08FEF65
:1002A00045DA809186008F5F8093860082D580E05A
:1002B00060E064D5809182008E010F5F1F4FB8010E
:1002C000CAD96BD580E690E068D580916C01B80101
:1002D000C2D963D585E25DD580918400805D59D512
:1002E00081E060E04BD580918500882319F0813052
:1002F00039F517C06091710170917201809173019D
:1003000090917401A8018ED148D5809187008F5FAC
:10031000809387008150833099F481E08093850039
:100320000DC082E191E039D5809187008F5F809385
:1003300087008150833021F410928500109287004D
:1003400029960FB6F894DEBF0FBECDBFCF91DF91D7
:100350001F910F91089588EE93E023E331E0F901B6
:100360003197F1F70197D9F784B78093840014BED1
:10037000FBD378942CD28FEF81BB87BB84BB15BA9B
:1003800006D1C7D144D29DD31BD5CCD448D9CDD921
:1003900080E060E0F3D483E690E0FFD4B5D82FE0AE
:1003A00088E190E00FB6F894A89581BD0FBE21BDFD
:1003B0007ED021E08030920709F06DD58DD1882361
:1003C00011F0A89513DF829B02C0C09A01C0C098AB
:1003D00080918400883029F480B38695869580FFCB
:1003E00002C0C19AE5CFC198E3CF83E190E050D03D
:1003F00008951F920F920FB60F9211242F938F938F
:100400009F93EF93FF939BB12CB1E091CA00EF5FF4
:10041000EF718091CB00E81711F482E008C0892FBA
:100420008871E093CA00F0E0E855FF4F2083809385
:10043000CC00FF91EF919F918F912F910F900FBE64
:100440000F901F9018951F920F920FB60F921124C4
:100450008F939F93EF93FF939091C8008091C90071
:10046000981761F0E091C900EF5FEF71E093C90068
:10047000F0E0E857FF4F80818CB901C05598FF919B
:10048000EF919F918F910F900FBE0F901F90189535
:100490001092C8001092C9001092CA001092CB00AE
:1004A00090BD89B988E98AB986E880BD08959091A0
:1004B000CA008091CB00981719F420E031E012C0F7
:1004C000E091CB00EF5FEF71E093CB00F0E0E855F7
:1004D000FF4F30812091CC00922F80E0AC01430F80
:1004E000511D9A01C9010895282F9091C8009F5F5E
:1004F0009F718091C9009817E1F3E92FF0E0E85768
:10050000FF4F20839093C800559A0895DC0111C0D5
:100510009091C8009F5F9F718091C9009817E1F387
:100520001196E92FF0E0E857FF4F20839093C80021
:10053000559A2C91222361F70895AC0110C02091A7
:10054000C8002F5F2F718091C9002817E1F3E22FB7
:10055000F0E0E857FF4F90832093C800559AFA01C6
:100560004F5F5F4F9491992351F708951F920F9217
:100570000FB60F9211248F938091CD008F5F8093DF
:10058000CD008F910F900FBE0F901F9018958A98F5
:10059000929885B7836085BF8BB780648BBF1092BC
:1005A000CD000895EF92FF920F931F9379018A0176
:1005B000621773078407950711F480E02EC020911D
:1005C00071013091720140917301509174016E1567
:1005D0007F058007910798F42617370748075907C2
:1005E00018F480E090E019C090E0E216F3060407EA
:1005F000150708F491E081E09827892F0EC026178F
:1006000037074807590738F480E090E0E216F30610
:100610000407150710F081E090E01F910F91FF9003
:10062000EF900895CF92DF92EF92FF920F931F9376
:100630007B018C016A01C801AA27BB27BA0141D8F6
:10064000BB27A12F902F8F2DB6016D5F7F4F39D81B
:10065000B6016A5F7F4F8E2D34D88AE3F60182831C
:100660008583C6011F910F91FF90EF90DF90CF908F
:100670000895CF92DF92EF92FF920F931F93DF9333
:10068000CF9300D000D0CDB7DEB77B018C01AA2775
:10069000BB276E010894C11CD11CB60112D836DFED
:1006A0008EE222DFBB27A12F902F8F2DB60109D814
:1006B0002DDF8EE219DF8E2DB60103D827DF0F90D4
:1006C0000F900F900F90CF91DF911F910F91FF909E
:1006D000EF90DF90CF9008958091CD008823C1F0F6
:1006E00083D1609371017093720180937301909331
:1006F00074010DD160936D0170936E0180936F0151
:10070000909370018091CD0081508093CD0081E065
:1007100008950895CF92EF920F931F9390E0FC01FC
:10072000A3E0EE0FFF1FAA95E1F7E80FF91FE450D1
:10073000FF4F40A751A762A773A704A715A726A735
:1007400037A7CC2011F420E001C020E8FC0133E001
:10075000EE0FFF1F3A95E1F7E80FF91FE450FF4F46
:100760002E2920AB1F910F91EF90CF9008950F93FA
:100770001F93CF93DF9310928300C4E2D1E001E096
:1007800010E0888587FF19C0688179818A819B8103
:100790002C813D814E815F8105DF882371F0888542
:1007A0008F77980102C0220F331F8A95E2F7C901A3
:1007B00020918300282B20938300299631E0CC36AA
:1007C000D307F9F6DF91CF911F910F910895089506
:1007D000823091F0833028F4882341F08130B1F4E5
:1007E00008C0833061F0843089F40DC088E490E063
:1007F00008C081E490E005C08AE390E002C080E395
:1008000090E09BDE089586E290E097DE089585E013
:1008100086BF8AE080B982E081B9089584EA86BF04
:1008200006B607FEFDCF089584E986BF0895880FB8
:100830008F5F83B984E886BF06B607FEFDCF0895B3
:10084000880F83B984E886BF06B607FEFDCF0895FA
:1008500083B984E886BF06B607FEFDCF089583B945
:1008600084E886BF06B607FEFDCF089584E886BFFC
:1008700006B607FEFDCF83B1089584EC86BF06B6A9
:1008800007FEFDCF83B10895382F6AE0E6D7282F01
:100890002F7086EF9FEF289F802D1124830F8F707C
:1008A0002295207F820F0895FF920F931F93F82EB9
:1008B000062F142FB3DF88E6C3DF80E0D0DF812F5F
:1008C000E3DF8F77CCDF802FDFDFC9DF8F2DDCDF29
:1008D000C6DFAADF1F910F91FF900895FF920F933B
:1008E0001F93F82E062F142F99DF88E6A9DF84E0E6
:1008F000B6DF812FC9DFB3DF802FC6DFB0DF8F2DDA
:10090000C3DFADDF91DF1F910F91FF9008959F929C
:10091000AF92BF92CF92DF92EF92FF920F931F930D
:100920007DDF88E68DDF84E09ADF7EDF77DF88E693
:100930007EDFA3DFE82EA1DFA82E98DF982E74DFDC
:100940008E2D82958F7090E09C01B3E0220F331FB3
:10095000BA95E1F7880F991F280F391F8FE0E82219
:10096000E20EFF2400E010E08701FF24EE248A2D30
:1009700082958F7090E09C01E3E0220F331FEA958F
:10098000E1F7880F991F280F391F8FE0A822A20EC8
:10099000BB24CC24DD24DC2CCB2CBA2CAA24EA0CDE
:1009A000FB1C0C1D1D1D892D82958F7090E09C01F4
:1009B00053E0220F331F5A95E1F7880F991F280F34
:1009C000391F8FE09822920EE90CF11C011D111DB8
:1009D000B701C8011F910F91FF90EF90DF90CF906A
:1009E000BF90AF909F9008959F92AF92BF92CF9289
:1009F000DF92EF92FF920F931F9310DF88E620DFC4
:100A000080E02DDF11DF0ADF88E611DF36DF982E68
:100A100034DFA82E2BDFE82E07DF8E2D82958F7016
:100A200090E09C01B3E0220F331FBA95E1F7880FE5
:100A3000991F280F391F8FE0E822E20EFF2400E003
:100A400010E08701FF24EE248A2D82958F7090E0BC
:100A50009C01E3E0220F331FEA95E1F7880F991F0D
:100A6000280F391F8FE0A822A20EBB24CC24DD243E
:100A7000DC2CCB2CBA2CAA24EA0CFB1C0C1D1D1D53
:100A8000892D82958F7090E09C0153E0220F331FD7
:100A90005A95E1F7880F991F280F391F8FE0982288
:100AA000920EE90CF11C011D111DB701C8011F9127
:100AB0000F91FF90EF90DF90CF90BF90AF909F90FD
:100AC00008951F93ABDE88E6BBDE80E0C8DEACDEB7
:100AD000A5DE88E6ACDECADE182FA6DE17FF16C03C
:100AE0009DDE88E6ADDE80E0BADE80E0B8DE80E044
:100AF000B6DE80E0B4DE80E0B2DE81E0B0DE81E030
:100B0000AEDE89E0ACDE80E1AADE8EDE1F910895C4
:100B10009C01E199FECF3FBB2EBBE09A8DB30895B7
:100B20009C01E199FECF3FBB2EBB6DBB0FB6F89485
:100B3000E29AE19A0FBE0895089581E090E06CEF8B
:100B400070E040E750E020E935E06DD6E199FECF56
:100B500080E090E09FBB8EBB85EA8DBB0FB6F8941A
:100B6000E29AE19A0FBE0895CF92EF920F931F93EE
:100B7000E199FECF80E090E09FBB8EBBE09A8DB301
:100B8000853A09F489C080E090E0A8E0B0E0809365
:100B9000020190930301A0930401B093050180E04A
:100BA00090E0A4E1B0E08093060190930701A09348
:100BB0000801B093090184E18093FD0089E18093ED
:100BC000FE0082E38093000187E38093010180E0CF
:100BD00040E050E06BE070E000E010E02DE030E03D
:100BE000EE24CC24C39496DD81E040E050E06AE03E
:100BF00070E000E010E02EE030E0EE24E3948ADDC7
:100C000082E040E050E06AE070E000E010E02EE0BA
:100C100030E094E0E92E7EDD83E040E050E060E0EB
:100C200070E000E010E020E030E0EE24CC2472DD43
:100C300084E040E050E060E070E000E010E020E0A0
:100C400030E068DD85E040E050E060E070E000E02A
:100C500010E020E030E05EDD86E040E050E060E063
:100C600070E000E010E020E030E054DD87E040E09C
:100C700050E060E070E000E010E020E030E04ADDAD
:100C800082E191E06CE670E049E050E067D581E0F8
:100C90008093CE0052DF09C08CEF90E061E070E0FD
:100CA00040E750E028E835E0A4D51F910F91EF9080
:100CB000CF90089594B39F6094BB95B3907F95BBFC
:100CC0009698882311F0959A01C09598000000002D
:100CD000979A0000000085B36F70862B85BB0000DB
:100CE0000000979884E08A95F1F7979A0000000039
:100CF0000895FF920F931F93082FF62E62956F7041
:100D0000D9DF14E0812F8A95F1F7802F6F2DD2DF84
:100D10001A95F1F780E098E10197F1F71F910F9193
:100D2000FF9008950F931F9380E063E0C3DF80E09E
:100D30009CE30197F1F780E063E0BCDF00E01CE09A
:100D4000C8010197F1F780E063E0B4DFC8010197C3
:100D5000F1F780E062E0AEDF80E068E2CADF80E0C9
:100D60006CE0C7DF80E061E0C4DF80E066E0C1DF07
:100D700080E062E0BEDF1F910F910895962F682FEB
:100D80006295660F660F607C690F606880E0B1DF76
:100D90000895682F81E0ADDF0895CF93DF93EC01D4
:100DA00002C02196F6DF88818823D9F7DF91CF91A1
:100DB000089580E061E09DDF80E060E0DFDF08957E
:100DC00080ED90E09093F9008093F80008958F9261
:100DD0009F92AF92BF92CF92DF92EF92FF920F93CA
:100DE0001F93DF93CF9300D0CDB7DEB780E090E0C4
:100DF00063E770E048EF50E0C0D435E7E32E30E021
:100E0000F32EB7018E010F5F1F4FA801B6D45C010E
:100E100080E090E0B701A801B0D46C0180E090E0E0
:100E2000B701A801AAD44C01C5015DD4E82EC601C2
:100E30005AD4A82EC40157D4FF2400E010E0870143
:100E4000FF24EE24BB24CC24DD24DC2CCB2CBA2CB8
:100E5000AA24EA0CFB1C0C1D1D1DE80EF11C011D33
:100E6000111DB701C8010F900F90CF91DF911F9115
:100E70000F91FF90EF90DF90CF90BF90AF909F9039
:100E80008F90089580E090E063E770E048EF50E0D5
:100E900074D429D408954F925F926F927F928F926B
:100EA0009F92AF92BF92CF92DF92EF92FF920F93F9
:100EB0001F93DF93CF93CDB7DEB7A1970FB6F8940A
:100EC000DEBF0FBECDBF8D3019F08A3009F0EAC207
:100ED000E091F800F091F90080ED90E0E817F90753
:100EE00009F4FBC210829093F9008093F80090936C
:100EF000FB008093FA0073D41092CF0080E090E062
:100F000063E770E048EF50E038D48C01DC018C914D
:100F1000882309F4C0C2D8010D900020E9F77D01B3
:100F2000E01AF10AC8016BE770E0A70109D4892B28
:100F300009F0FBC080E090E063E770E048EF50E02C
:100F40001CD4F82EE92EE82FF92FDF010D90002098
:100F5000E9F78D010E1B1F0B6EEC70E0A801F0D3BA
:100F6000892B69F434DF9B01AC01AA27BB27E32E50
:100F7000F42E052F11276E2D422F96DC7FC28F2D68
:100F80009E2D68EC70E0A801DBD3892BD9F4609129
:100F9000F8007091F90082E191E049E050E0DED381
:100FA0008091F8009091F900FC0101900020E9F790
:100FB0003197E81BF90B8E0F9F1F9093F9008093D8
:100FC000F8005CC28F2D9E2D63EC70E0A801B8D3B1
:100FD000892B09F045C080E090E063E770E048EFBE
:100FE00050E0CBD367E770E08E010F5F1F4FA80181
:100FF000C4D37C0180E090E067E770E0A801BDD336
:101000006C0180E090E067E770E0A801B6D34C0186
:10101000C70169D3E82EC60166D3A82EC40163D3E5
:10102000FF2400E010E08701FF24EE24BB24CC2441
:10103000DD24DC2CCB2CBA2CAA24EA0CFB1C0C1DC6
:101040001D1DE80EF11C011D111DC801AA27BB279B
:101050005527412F302F2F2D622F4E2D3FDC0EC2F2
:101060008F2D9E2D6BEB70E0A8016AD3892B99F42C
:10107000AEDE6093020170930301809304019093AC
:101080000501A5DE609306017093070180930801B6
:1010900090930901F3C18F2D9E2D65EB70E0A8019F
:1010A0004FD3892B99F4EEDE182F91DE2B013C01F2
:1010B0008EDE4B015C01E6DEE82EE4DEC82E812FD9
:1010C000B301A2019501840125DBD8C18F2D9E2D8E
:1010D00068EA70E0A80134D3892B41F4D3DE182FDD
:1010E000D1DE8093FD001093FE00C8C18F2D9E2D90
:1010F00067E970E0A80124D3892B39F4C3DE80931B
:101100000101C0DE80930001B9C18F2D9E2D60E9E1
:1011100070E0A80115D3892B11F4B4DEAFC181E0D2
:101120008093CF008FE790E0A8C1C80167E770E027
:10113000A70106D3892B09F08BC180E090E063E71B
:1011400070E048EF50E019D3F82EE92EE82FF92F80
:10115000DF010D900020E9F78D010E1B1F0B6AE6E1
:1011600071E0A801EDD2892B81F460917101709139
:1011700072018091730190917401AE01495F5F4FDC
:1011800051DAC4D98FE691E078C18F2D9E2D64E6A7
:1011900071E0A801D5D2892B31F482E191E0B6D972
:1011A00081E791E06AC18F2D9E2D6FE571E0A80166
:1011B000C7D2892B51F460916D0170916E018091BD
:1011C0006F019091700155DAEAC08F2D9E2D67E571
:1011D00071E0A801B5D2892B01F5609102017091EF
:1011E000030180910401909105018E01005F1F4F62
:1011F000A80118DA60910601709107018091080139
:1012000090910901AE01475E5F4F0CDA80E2888F52
:10121000C8017CD983E791E030C18F2D9E2D6DE40C
:1012200071E0A8018DD2892BE1F4609102017091E7
:1012300003018091040190910501209106013091F4
:1012400007014091080150910901ACD9882319F098
:1012500089E791E002C087E791E06FD985E791E0E7
:101260000CC18F2D9E2D66E471E0A80169D2892BF7
:1012700009F059C004E211E047E0E42EF12CEC0E35
:10128000FD1E85E891E059D9F80160817181828164
:101290009381A701C7D93AD983E891E04ED9D80103
:1012A00014966D917D918D919C911797A701BAD954
:1012B0002DD981E891E041D9F80180858F77B70178
:1012C000CAD124D98FE791E038D990E0D801189697
:1012D0008C9187FD91E0892FB701BDD117D98DE79A
:1012E00091E02BD9F801808587FD02C080E00DC018
:1012F000D8016D917D918D919C91139714962D91AC
:101300003D914D915C9117974DD9B701A4D1FED86D
:101310008BE791E012D9075F1F4FB1E00C361B0736
:1013200009F0AFCFABC08F2D9E2D61E471E0A80115
:1013300007D2892B51F480918200BE016D5F7F4FEF
:101340008AD1E4D888E891E098C08F2D9E2D64E37F
:1013500071E0A801F5D1892B99F48E010D5F1F4F23
:101360008091FE00B80177D1D1D88CE891E0E5D822
:101370008091FD00B8016FD1C9D88AE891E07DC0A5
:101380008F2D9E2D6BE271E0A801DAD1892B59F4E3
:1013900080916C01BE016D5F7F4F5DD1B7D889E749
:1013A00090E0B4D86BC08F2D9E2D6AE171E0A8014A
:1013B000C7D1892B99F48E010D5F1F4F80910101D8
:1013C000B80149D1A3D880E991E0B7D88091000154
:1013D000B80141D19BD88EE891E04FC08F2D9E2D52
:1013E00062E171E0A801ACD1892B09F500E010E0C1
:1013F0008AE991E0A2D8802FEBD98091830090E018
:10140000002E02C0959587950A94E2F780FF03C0ED
:1014100087E991E002C084E991E08FD882E991E008
:101420008CD80F5F1F4F0530110511F727C08F2D86
:101430009E2D6AE071E0A80183D1892B19F484EE16
:1014400090E01BC081E08093CF0083ED90E015C059
:10145000C80161E770E0A70173D1892B79F0C80159
:101460006AE670E0A7016CD1892B11F466DB06C037
:1014700081E08093CF0089E590E05FD88091CF0034
:10148000882319F084E590E002C081E590E055D80A
:101490008FE490E052D880ED90E09093F900809333
:1014A000F8001BC0883061F4E091F800F091F90079
:1014B00020E0E03DF20721F018F01082319709C0DA
:1014C000E091F800F091F90090E0E83FF90728F486
:1014D0008193F093F900E093F800A1960FB6F89489
:1014E000DEBF0FBECDBFCF91DF911F910F91FF9057
:1014F000EF90DF90CF90BF90AF909F908F907F90B4
:101500006F905F904F900895CF92DF92EF92FF928D
:101510000F931F93DF93CF9300D000D0CDB7DEB7EA
:1015200010E07E010894E11CF11C83E3C82E81E0E9
:10153000D82E012F0F5F802FB7018DD081E060E0A2
:101540001DDC8BE790E029DCC70127DC812FEED082
:1015500088E893E1F6013197F1F70197D9F7053063
:1015600011F0102FE6CF0F900F900F900F90CF91AA
:10157000DF911F910F91FF90EF90DF90CF90089532
:10158000582F90E820E030E044E0892F852319F0BF
:1015900093988B9802C093988B9A842F8A95F1F731
:1015A000949A842F8A95F1F79498842F8A95F1F76D
:1015B00093988B9896952F5F3F4F2830310529F7E8
:1015C000089593988B98949A84E0982F9A95F1F7C0
:1015D00093988B9A982F9A95F1F79498982F9A95BB
:1015E000F1F7949A982F9A95F1F793988B98982FF2
:1015F0009A95F1F794988A95F1F7089584E08A9581
:10160000F1F793988B9880E0949A000000009498EA
:10161000000000008F5F8930B9F7D3DF089580E0C4
:1016200098E70197F1F793988B988C9A94989398F0
:101630008B98E4DF80E094E80197F1F7DFDF8EE13B
:101640009FDFBFDF86E09CDF81E09ADF089582E2C2
:10165000089581E208951F93482FFB0164E6FDD0B1
:10166000182F282F30E08CE99FEFB901689F900177
:10167000699F300D789F300D1124C901840F911D91
:101680006AE070E0F6D0420F86EF9FEF689F802DF2
:101690001124840F112341F0105D1083605D61837C
:1016A000805D828313820AC0805D662329F0605DBD
:1016B00060838183128202C080831182CF011F91D7
:1016C0000895482FFB016AE0C8D0805D8083805375
:1016D000405D26EF3FEF829F802D1124840F818390
:1016E0001282CF010895FC0180E02AE005C0829FAC
:1016F000802D1124890F3196908190539A30B8F340
:10170000089590E080538A3008F491E0892F08957D
:10171000FC01808180538A3010F080E0089531967A
:1017200080818823B1F781E0089508951F93182FD1
:1017300075D880E285D8812F92D876D81F910895E8
:10174000FB01DC014150504030F08D910590801933
:1017500019F40020B9F7881B990B0895FB01DC01EF
:101760004150504048F001900D920020C9F701C04F
:101770001D9241505040E0F70895009731F4DA018E
:101780008D919C91009709F40EC0DC01FB013D9105
:101790002191222319F03217C9F3FACF332331F400
:1017A000DA011D921C928827992708951197AF930B
:1017B000BF93FB013D912191321771F4332321F442
:1017C00088279927119702C01E921196FA01A193BA
:1017D000B0839F918F910895222369F7EACFDC01AE
:1017E0006C9161566A3108F0605E6F5B6D93C1F772
:1017F0000895A0E0B0E0EEEFFBE072C07C01EB01E9
:101800008A01690109C0CE012196F6010995F70107
:1018100081937F010150104001151105A1F7CDB74B
:10182000DEB7E8E079C0A0E0B0E0E8E1FCE058C055
:10183000EC017B018A01690109C0CE012196F70103
:1018400061917F01F60109950150104001151105C4
:10185000A1F7CDB7DEB7E8E05FC0991B79E004C01F
:10186000991F961708F0961B881F7A95C9F78095DF
:10187000089597FB092E07260AD077FD04D00CD0D7
:1018800006D000201AF4709561957F4F0895F6F701
:10189000909581959F4F0895AA1BBB1B51E107C0EE
:1018A000AA1FBB1FA617B70710F0A61BB70B881FF0
:1018B000991F5A95A9F780959095BC01CD0108957F
:1018C000EE0FFF1F0590F491E02D09942F923F92A7
:1018D0004F925F926F927F928F929F92AF92BF9240
:1018E000CF92DF92EF92FF920F931F93CF93DF93EC
:1018F000CDB7DEB7CA1BDB0B0FB6F894DEBF0FBE49
:10190000CDBF09942A88398848885F846E847D8495
:101910008C849B84AA84B984C884DF80EE80FD8097
:101920000C811B81AA81B981CE0FD11D0FB6F8940D
:0E193000DEBF0FBECDBFED010895F894FFCFCE
:10193E00DF20005374617274696E67004E4F4E4122
:10194E004D450020003A002E000A00504F535420FF
:02195E00000087
:00000001FF
