:10000000F5C0B3C218C117C116C115C114C113C1BF
:1000100012C111C110C1ECC115C20DC10CC10BC17F
:100020000AC109C108C14865697A4C616D706500F3
:100030004865697A4472616874004E65626C6572E5
:10004000004C616D706532004C616D706531000D62
:100050000A004F4B004641494C0020554E4B4E4F35
:10006000574E20434F4D4D414E4400434F4D4D4957
:10007000540048454C4C4F004745540053455400EC
:1000800020554E4B4E4F574E20434F4D4D414E4401
:10009000004F55545055540048554D494449545902
:1000A000534554504F494E540054454D50534554B8
:1000B000504F494E540054494D4552004441595403
:1000C000494D450044415445005449544C45005461
:1000D000494D450020554E4B4E4F574E20434F4DF6
:1000E0004D414E44005465727261436F6E74726F7D
:1000F0006C20302E312C206D727520323030390D4D
:100100000A0056455253494F4E004F5554505554CE
:10011000530048554D4944495459534554504F494B
:100120004E540048554D49444954590054454D508A
:10013000534554504F494E540054454D5000544976
:100140004D45525300495344415954494D4500448B
:10015000415954494D450044415445005449544C7B
:10016000450054494D45000D0A000D0A000D0A00D6
:100170000D0A00300031000D0A0020002000200090
:1001800020002B20000D0A000D0A0020000D0A009F
:1001900020000D0A002030002031002B2000696C67
:1001A0006C6567616C20726561642063616C6C0DC5
:1001B0000A00646964206E6F7420726563656976F5
:1001C00065206D6561737572656D656E740D0A00ED
:1001D000206661696C656420746F2072656365696F
:1001E00076652061636B0D0A0000F40111241FBEC7
:1001F000CFE5D4E0DEBFCDBF10E0A0E6B0E0E6EC96
:10020000FAE102C005900D92A238B107D9F711E0CA
:10021000A2E8B0E001C01D92A437B107E1F711E0F8
:10022000CCEED1E003C02297FE0110DCCA3ED1071C
:10023000D1F7A9D046CCE4CE0F931F93DF93CF9391
:10024000CDB7DEB729970FB6F894DEBF0FBECDBF8E
:10025000609101017091020180910301909104016C
:10026000209105013091060140910701509108014C
:1002700097D1182FBADA80936B01B4DA8093820099
:1002800074D2113011F053E001C054E0A12FB0E05E
:1002900020E030E0FD01E550FF4F90916B0184813B
:1002A000981710F421E030E0220F331F220F331F84
:1002B00040918300422B20E030E0A550BF4F909149
:1002C000820011968C91981710F421E030E002C062
:1002D000220F331F5A95E2F7842F822B80938300DD
:1002E000F2DAC2D5809182008E010F5F1F4FB801F4
:1002F0007FDAAED580E690E0ABD580916B01B80196
:1003000077DAA6D585E2A0D580918400805D9CD562
:1003100081E060E08ED580918500882319F08130DE
:1003200039F517C06091700170917101809172016F
:1003300090917301A80174D18BD5809186008F5F55
:10034000809386008150833099F481E0809385000A
:100350000DC081E191E07CD5809186008F5F809314
:1003600086008150833021F410928500109286001F
:1003700029960FB6F894DEBF0FBECDBFCF91DF91A7
:100380001F910F91089588EE93E024E131E0F90187
:100390003197F1F70197D9F784B78093840014BEA1
:1003A00007D4789412D28FEF81BB87BB84BB15BA78
:1003B000EDD0ADD149D2A9D381E033D25CD50DD5F2
:1003C000AAD980DA80E060E034D583E690E040D5B9
:1003D000F6D86CD021E08030920709F0B7D57AD1F9
:1003E00081112ADFA895F5CF81E190E050D00895E2
:1003F0001F920F920FB60F9211242F938F939F93FA
:10040000EF93FF939BB12CB1E091C900EF5FEF71C7
:100410008091CA00E81711F482E008C0892F887122
:10042000E093C900F0E0E955FF4F20838093CB00B3
:10043000FF91EF919F918F912F910F900FBE0F9091
:100440001F9018951F920F920FB60F9211248F9341
:100450009F93EF93FF939091C7008091C8009817E6
:1004600061F0E091C800EF5FEF71E093C800F0E049
:10047000E957FF4F80818CB901C05598FF91EF91EA
:100480009F918F910F900FBE0F901F901895109213
:10049000C7001092C8001092C9001092CA0090BD07
:1004A00089B988E98AB986E880BD08959091C90024
:1004B0008091CA00981719F420E031E012C0E09151
:1004C000CA00EF5FEF71E093CA00F0E0E955FF4F1B
:1004D00030812091CB00922F80E0AC01430F511D61
:1004E0009A01C9010895282F9091C7009F5F9F71BD
:1004F0008091C8009817E1F3E92FF0E0E957FF4F2A
:1005000020839093C700559A0895DC0111C0909103
:10051000C7009F5F9F718091C8009817E1F3119603
:10052000E92FF0E0E957FF4F20839093C700559AD9
:100530002C91222361F70895AC0110C02091C700CF
:100540002F5F2F718091C8002817E1F3E22FF0E0B0
:10055000E957FF4F90832093C700559AFA014F5FE8
:100560005F4F9491992351F708951F920F920FB600
:100570000F9211248F938091CC008F5F8093CC00D9
:100580008F910F900FBE0F901F9018958A9885B786
:10059000836085BF8BB780648BBF1092CC000895B9
:1005A000EF92FF920F931F9379018A0162177307ED
:1005B0008407950711F480E02EC0209170013091DE
:1005C000710140917201509173016E157F05800792
:1005D000910798F4261737074807590718F480E061
:1005E00090E019C090E0E216F3060407150708F43E
:1005F00091E081E09827892F0EC02617370748071A
:10060000590738F480E090E0E216F3060407150776
:1006100010F081E090E01F910F91FF90EF9008950E
:10062000CF92DF92EF92FF920F931F937B018C0189
:100630006A01C801AA27BB27BA0110D9BB27A12F7D
:10064000902F8F2DB6016D5F7F4F08D9B6016A5F7D
:100650007F4F8E2D03D98AE3F60182838583C601FD
:100660001F910F91FF90EF90DF90CF900895CF9260
:10067000DF92EF92FF920F931F93DF93CF9300D0FF
:1006800000D0CDB7DEB77B018C01AA27BB276E0156
:100690000894C11CD11CB601E1D837DF8EE223DFFC
:1006A000BB27A12F902F8F2DB601D8D82EDF8EE239
:1006B0001ADF8E2DB601D2D828DF0F900F900F9041
:1006C0000F90CF91DF911F910F91FF90EF90DF90EE
:1006D000CF9008958091CC008823C1F0A9D1609378
:1006E000700170937101809372019093730133D103
:1006F00060936C0170936D0180936E0190936F0114
:100700008091CC0081508093CC0081E008950895C1
:10071000CF92EF920F931F9390E0FC01A3E0EE0FB6
:10072000FF1FAA95E1F7E80FF91FE550FF4F40A71B
:1007300051A762A773A704A715A726A737A7CC20A0
:1007400011F420E001C020E8FC0133E0EE0FFF1FB0
:100750003A95E1F7E80FF91FE550FF4F2E2920AB3E
:100760001F910F91EF90CF9008950F931F93CF9308
:10077000DF9310928300C3E2D1E001E010E08885AE
:1007800087FF19C0688179818A819B812C813D8195
:100790004E815F8105DF882371F088858F7798010E
:1007A00002C0220F331F8A95E2F7C901209183000E
:1007B000282B20938300299631E0CB36D307F9F616
:1007C000DF91CF911F910F9108950895823091F09C
:1007D000833028F4882341F08130B1F408C083309D
:1007E00061F0843089F40DC088E490E008C081E4B1
:1007F00090E005C08AE390E002C080E390E09CDED8
:10080000089586E290E098DE08951F93182F2AD06D
:10081000812F885B30D04ED0182F2AD0812F1F9186
:1008200008951F93182F185B1DD0812F2DD081E0C4
:100830003AD080E638D01CD015D0812F25D080E06A
:1008400032D016D01F91089584B38F7C84BB85B3BA
:10085000806385BB85E086BF8AE080B981B18C7FEB
:1008600081B9089584EA86BF06B607FEFDCF0895D4
:1008700084E986BF0895880F8F5F83B984E886BFB7
:1008800006B607FEFDCF0895880F83B984E886BFBA
:1008900006B607FEFDCF089583B984E886BF06B685
:1008A00007FEFDCF089583B984E886BF06B607FE2C
:1008B000FDCF089584E886BF06B607FEFDCF83B15D
:1008C000089584EC86BF06B607FEFDCF83B1089578
:1008D000382F6AE086D8282F2F7086EF9FEF289F49
:1008E000802D1124830F8F702295207F820F089511
:1008F000FF920F931F93F82E062F142FB3DF88E675
:10090000C3DF80E0D0DF812FE3DF8F77CCDF802F64
:10091000DFDFC9DF8F2DDCDFC6DFAADF1F910F917C
:10092000FF900895FF920F931F93F82E062F142F18
:1009300099DF88E6A9DF84E0B6DF812FC9DFB3DF66
:10094000802FC6DFB0DF8F2DC3DFADDF91DF1F91BA
:100950000F91FF9008959F92AF92BF92CF92DF9236
:10096000EF92FF920F931F937DDF88E68DDF84E087
:100970009ADF7EDF77DF88E67EDFA3DFE82EA1DF68
:10098000A82E98DF982E74DF8E2D82958F7090E0C0
:100990009C01B3E0220F331FBA95E1F7880F991F2E
:1009A000280F391F8FE0E822E20EFF2400E010E05C
:1009B0008701FF24EE248A2D82958F7090E09C01A0
:1009C000E3E0220F331FEA95E1F7880F991F280F04
:1009D000391F8FE0A822A20EBB24CC24DD24DC2CFE
:1009E000CB2CBA2CAA24EA0CFB1C0C1D1D1D892D36
:1009F00082958F7090E09C0153E0220F331F5A952F
:100A0000E1F7880F991F280F391F8FE09822920E67
:100A1000E90CF11C011D111DB701C8011F910F91B7
:100A2000FF90EF90DF90CF90BF90AF909F90089590
:100A30009F92AF92BF92CF92DF92EF92FF920F936D
:100A40001F9310DF88E620DF80E02DDF11DF0ADF53
:100A500088E611DF36DF982E34DFA82E2BDFE82E54
:100A600007DF8E2D82958F7090E09C01B3E0220FFE
:100A7000331FBA95E1F7880F991F280F391F8FE0B0
:100A8000E822E20EFF2400E010E08701FF24EE24BC
:100A90008A2D82958F7090E09C01E3E0220F331F36
:100AA000EA95E1F7880F991F280F391F8FE0A822D8
:100AB000A20EBB24CC24DD24DC2CCB2CBA2CAA2403
:100AC000EA0CFB1C0C1D1D1D892D82958F7090E07A
:100AD0009C0153E0220F331F5A95E1F7880F991FAD
:100AE000280F391F8FE09822920EE90CF11C011D8E
:100AF000111DB701C8011F910F91FF90EF90DF907A
:100B0000CF90BF90AF909F9008951F93ABDE88E683
:100B1000BBDE80E0C8DEACDEA5DE88E6ACDECADE89
:100B2000182FA6DE17FF16C09DDE88E6ADDE80E03A
:100B3000BADE80E0B8DE80E0B6DE80E0B4DE80E0E1
:100B4000B2DE81E0B0DE81E0AEDE89E0ACDE80E1E5
:100B5000AADE8EDE1F9108959C01E199FECF3FBB76
:100B60002EBBE09A8DB308959C01E199FECF3FBB67
:100B70002EBB6DBB0FB6F894E29AE19A0FBE0895B2
:100B8000089581E090E06BEF70E040E750E024EBE7
:100B900035E00DD7E199FECF80E090E09FBB8EBBA2
:100BA00085EA8DBB0FB6F894E29AE19A0FBE0895DC
:100BB000CF92EF920F931F93DF93CF93CDB7DEB712
:100BC00028970FB6F894DEBF0FBECDBFE199FECFD8
:100BD00080E090E09FBB8EBBE09A8DB3853A09F42C
:100BE0008FC080E090E0A8E0B0E089839A83AB8377
:100BF000BC8320E030E044E150E02D833E834F830E
:100C000058878093010190930201A0930301B09350
:100C1000040194E19093FC008EE18093FF00209307
:100C2000050130930601409307015093080190930A
:100C3000FD008093000180E040E050E06BE070E058
:100C400000E010E02DE030E0EE24CC24C39460DD21
:100C500081E040E050E06AE070E000E010E02EE06B
:100C600030E0EE24E39454DD82E040E050E06AE0BE
:100C700070E000E010E02EE030E094E0E92E48DD86
:100C800083E040E050E060E070E000E010E020E051
:100C900030E0EE24CC243CDD84E040E050E060E035
:100CA00070E000E010E020E030E032DD85E040E080
:100CB00050E060E070E000E010E020E030E028DD8F
:100CC00086E040E050E060E070E000E010E020E00E
:100CD00030E01EDD87E040E050E060E070E000E0E2
:100CE00010E020E030E014DD81E191E06CE670E09E
:100CF00049E050E0F7D581E08093CD0042DF09C0A4
:100D00008BEF90E061E070E040E750E02CEA35E0E6
:100D100034D628960FB6F894DEBF0FBECDBFCF9164
:100D2000DF911F910F91EF90CF90089594B39F6042
:100D300094BB95B3907F95BB9698882311F0959AB4
:100D400001C0959800000000979A0000000085B34C
:100D50006F70862B85BB0000000097980000000094
:100D6000979A0000000008950F931F93182F062FE5
:100D700062956F70DBDF00000000812F602FD6DFEF
:100D80000000000085B38F6085BB84B3807F84BB87
:100D9000969A959800000000979A0000000093B37F
:100DA0000000000097980000000085B38F6085BBAD
:100DB00084B3807F84BB969A959800000000979A30
:100DC0000000000083B300000000979800000000BE
:100DD00093FDD8CF1F910F9108950F931F9380E03B
:100DE00063E0A4DF80E096E30197F1F780E063E041
:100DF0009DDF0CEC1AE0C8010197F1F780E063E099
:100E000095DFC8010197F1F780E062E08FDF80E0B5
:100E100068E2AADF80E06CE0A7DF80E061E0A4DFA9
:100E200080E066E0A1DF80E062E09EDF1F910F912D
:100E30000895962F682F6295660F660F607C690F84
:100E4000606880E091DF0895682F81E08DDF08956C
:100E5000CF93DF93EC0102C02196F6DF88818823CF
:100E6000D9F7DF91CF91089580E061E07DDF80E0E8
:100E700060E0DFDF08958FEC90E09093F8008093BE
:100E8000F70008958F929F92AF92BF92CF92DF9218
:100E9000EF92FF920F931F93DF93CF9300D0CDB7C4
:100EA000DEB780E090E063E770E047EF50E029D5DF
:100EB00035E7E32E30E0F32EB7018E010F5F1F4FB1
:100EC000A8011FD55C0180E090E0B701A80119D509
:100ED0006C0180E090E0B701A80113D54C01C50179
:100EE000CFD4E82EC601CCD4A82EC401C9D4FF2487
:100EF00000E010E08701FF24EE24BB24CC24DD2495
:100F0000DC2CCB2CBA2CAA24EA0CFB1C0C1D1D1DBE
:100F1000E80EF11C011D111DB701C8010F900F90C3
:100F2000CF91DF911F910F91FF90EF90DF90CF90C5
:100F3000BF90AF909F908F90089580E090E063E71E
:100F400070E047EF50E0DDD49BD408954F925F925C
:100F50006F927F928F929F92AF92BF92CF92DF92C9
:100F6000EF92FF920F931F93DF93CF93CDB7DEB72E
:100F7000A1970FB6F894DEBF0FBECDBF8D3019F02C
:100F80008A3009F0EAC2E091F700F091F8008FECA6
:100F900090E0E817F90709F4FBC210829093F8007B
:100FA0008093F7009093FA008093F900DCD41092BC
:100FB000CE0080E090E063E770E047EF50E0A1D41E
:100FC0008C01DC018C91882309F4C0C2D8010D90FA
:100FD0000020E9F77D01E01AF10AC8016CE770E032
:100FE000A70172D4892B09F0FBC080E090E063E791
:100FF00070E047EF50E085D4F82EE92EE82FF92F66
:10100000DF010D900020E9F78D010E1B1F0B6FEC27
:1010100070E0A80159D4892B69F434DF9B01AC013D
:10102000AA27BB27E32EF42E052F11276E2D422F62
:101030005FDC7FC28F2D9E2D69EC70E0A80144D447
:10104000892BD9F46091F7007091F80081E191E06B
:1010500049E050E047D48091F7009091F800FC01FE
:1010600001900020E9F73197E81BF90B8E0F9F1FC5
:101070009093F8008093F7005CC28F2D9E2D64EC56
:1010800070E0A80121D4892B09F045C080E090E0F0
:1010900063E770E047EF50E034D467E770E08E011B
:1010A0000F5F1F4FA8012DD47C0180E090E067E71F
:1010B00070E0A80126D46C0180E090E067E770E062
:1010C000A8011FD44C01C701DBD3E82EC601D8D339
:1010D000A82EC401D5D3FF2400E010E08701FF242F
:1010E000EE24BB24CC24DD24DC2CCB2CBA2CAA246B
:1010F000EA0CFB1C0C1D1D1DE80EF11C011D111D31
:10110000C801AA27BB275527412F302F2F2D622F2B
:101110004E2D08DC0EC28F2D9E2D6CEB70E0A801C9
:10112000D3D3892B99F4AEDE609301017093020151
:101130008093030190930401A5DE609305017093F1
:1011400006018093070190930801F3C18F2D9E2D16
:1011500066EB70E0A801B8D3892B99F4EEDE182F66
:1011600091DE2B013C018EDE4B015C01E6DEE82EB8
:10117000E4DEC82E812FB301A20195018401C8DAF3
:10118000D8C18F2D9E2D69EA70E0A8019DD3892BCF
:1011900041F4D3DE182FD1DE8093FC001093FD00C4
:1011A000C8C18F2D9E2D68E970E0A8018DD3892BD1
:1011B00039F4C3DE80930001C0DE8093FF00B9C123
:1011C0008F2D9E2D61E970E0A8017ED3892B11F44B
:1011D000B4DEAFC181E08093CE0080E890E0A8C18A
:1011E000C80168E770E0A7016FD3892B09F08BC1B4
:1011F00080E090E063E770E047EF50E082D3F82EA4
:10120000E92EE82FF92FDF010D900020E9F78D017D
:101210000E1B1F0B62E671E0A80156D3892B81F4E7
:1012200060917001709171018091720190917301D0
:10123000AE01495F5F4FF4D968D987E691E078C184
:101240008F2D9E2D6CE571E0A8013ED3892B31F4E2
:1012500081E191E05AD98AE691E06AC18F2D9E2DF5
:1012600067E571E0A80130D3892B51F460916C01DE
:1012700070916D0180916E0190916F01F8D9EAC073
:101280008F2D9E2D6FE471E0A8011ED3892B01F5EF
:10129000609101017091020180910301909104011C
:1012A0008E01005F1F4FA801BBD9609105017091AD
:1012B00006018091070190910801AE01475E5F4FE2
:1012C000AFD980E2888FC80120D98DE691E030C186
:1012D0008F2D9E2D65E471E0A801F6D2892BE1F4F3
:1012E00060910101709102018091030190910401CC
:1012F00020910501309106014091070150910801AC
:101300004FD9882319F085E791E002C083E791E087
:1013100013D980E791E00CC18F2D9E2D6EE371E013
:10132000A801D2D2892B09F059C003E211E047E0AD
:10133000E42EF12CEC0EFD1E82E891E0FDD8F801C0
:101340006081718182819381A7016AD9DED880E8AA
:1013500091E0F2D8D80114966D917D918D919C9178
:101360001797A7015DD9D1D88EE791E0E5D8F801AC
:1013700080858F77B7013CD2C8D88CE791E0DCD864
:1013800090E0D80118968C9187FD91E0892FB701E4
:101390002FD2BBD88AE791E0CFD8F801808587FDAE
:1013A00002C080E00DC0D8016D917D918D919C911E
:1013B000139714962D913D914D915C911797F0D80C
:1013C000B70116D2A2D887E791E0B6D8075F1F4FC2
:1013D000B1E00B361B0709F0AFCFABC08F2D9E2DB0
:1013E00069E371E0A80170D2892B51F480918200E9
:1013F000BE016D5F7F4FFCD188D885E891E098C031
:101400008F2D9E2D6CE271E0A8015ED2892B99F49C
:101410008E010D5F1F4F8091FD00B801E9D175D895
:101420008BE891E089D88091FC00B801E1D16DD8BA
:1014300088E891E07DC08F2D9E2D63E271E0A801C8
:1014400043D2892B59F480916B01BE016D5F7F4FB0
:10145000CFD15BD889E790E058D86BC08F2D9E2DF7
:1014600062E171E0A80130D2892B99F48E010D5F01
:101470001F4F80910001B801BBD147D880E991E0AE
:101480005BD88091FF00B801B3D13FD88DE891E0DF
:101490004FC08F2D9E2D6AE071E0A80115D2892BD7
:1014A00009F500E010E08BE991E046D8802F8ED955
:1014B0008091830090E0002E02C0959587950A9454
:1014C000E2F780FF03C088E991E002C085E991E07E
:1014D00033D882E991E030D80F5F1F4F05301105F6
:1014E00011F727C08F2D9E2D62E071E0A801ECD18D
:1014F000892B19F485EE90E01BC081E08093CE002B
:1015000084ED90E015C0C80162E770E0A701DCD16E
:10151000892B79F0C8016BE670E0A701D5D1892B42
:1015200011F42FDB06C081E08093CE008AE590E0C5
:1015300003D88091CE00882319F085E590E002C0A1
:1015400082E590E0F9D78FE490E0F6D78FEC90E059
:101550009093F8008093F7001BC0883061F4E0910D
:10156000F700F091F80020E0EF3CF20721F018F0CE
:101570001082319709C0E091F700F091F80090E0F7
:10158000E73FF90728F48193F093F800E093F70020
:10159000A1960FB6F894DEBF0FBECDBFCF91DF91FD
:1015A0001F910F91FF90EF90DF90CF90BF90AF9081
:1015B0009F908F907F906F905F904F900895EF92E3
:1015C000FF921F93DF93CF9300D000D0CDB7DEB74B
:1015D00010E07E010894E11CF11C1F5F812FB70110
:1015E00007D181E060E025DC8CE790E031DCC701C9
:1015F0002FDC153091F70F900F900F900F90CF9137
:10160000DF911F91FF90EF900895E82F50E040E8A0
:1016100020E030E06CEC7AE0949A80B3949883FDFB
:10162000542BCB010197F1F746952F5F3F4F2830A0
:10163000310591F7EE2319F093988B9802C0939897
:101640008B9A8CEC9AE0FC013197F1F7949AFC01AB
:101650003197F1F794980197F1F793988B98852F2C
:10166000089593988B98949A8CEC9AE0FC013197AA
:10167000F1F793988B9AFC013197F1F79498FC015C
:101680003197F1F7949AFC013197F1F793988B9881
:10169000FC013197F1F794980197F1F708958CECDC
:1016A0009AE00197F1F793988B9880E0949A000064
:1016B00000009498000000008F5F8930B9F7D1DFF7
:1016C0000895782F60E820E030E04CEC5AE0862F57
:1016D000872319F093988B9802C093988B9ACA012C
:1016E0000197F1F7949ACA010197F1F79498CA010A
:1016F0000197F1F793988B9866952F5F3F4F2830AD
:10170000310529F7949A80B3949883FF03C080ED44
:1017100091E012D7089580E09CE60197F1F7939845
:101720008B988C9A949893988B98B9DF8CEC96E769
:101730000197F1F7B4DF8EE1C4DF93DF86E0C1DF0C
:1017400081E0BFDF0895FF920F931F93082F89DF79
:10175000802FB7DF2CEC3AE0C9010197F1F78399AC
:10176000FBCF839B03C082EB91E0E6D680E04DDFA8
:10177000F82E80E04ADF182F81E047DF0530E9F4DA
:101780001C3668F48FE8189F9001112482E0203005
:10179000380710F420E032E0205032400CC08FE6D1
:1017A000189F90011124235B344F84E621303807C1
:1017B00010F020E034E6832F11C0033061F49F2D38
:1017C00080E0212F30E0822B932B69E170E015D16E
:1017D000862F885203C08EE991E0AED61F910F91FB
:1017E000FF90089583E0AFDF089585E0ACDF0895B2
:1017F0001F93482FFB0164E6F4D0182F282F30E008
:101800008CE99FEFB901689F9001699F300D789F27
:10181000300D1124C901840F911D6AE070E001D1DF
:10182000420F86EF9FEF689F802D1124840F1123B4
:1018300041F0105D1083605D6183805D828313825F
:101840000AC0805D662329F0605D60838183128217
:1018500002C080831182CF011F910895482FFB01A0
:101860006AE0BFD0805D80838053405D26EF3FEF0C
:10187000829F802D1124840F81831282CF010895CD
:10188000FC0180E02AE005C0829F802D1124890F91
:101890003196908190539A30B8F3089590E0805338
:1018A0008A3008F491E0892F0895FC0180818053EB
:1018B0008A3010F080E00895319680818823B1F756
:1018C00081E0089508950895FB01DC0141505040E6
:1018D00030F08D910590801919F40020B9F7881B1C
:1018E000990B0895FB01DC014150504048F00190F4
:1018F0000D920020C9F701C01D9241505040E0F701
:101900000895009731F4DA018D919C91009709F4C4
:101910000EC0DC01FB013D912191222319F0321709
:10192000C9F3FACF332331F4DA011D921C928827D0
:10193000992708951197AF93BF93FB013D91219192
:10194000321771F4332321F488279927119702C0A5
:101950001E921196FA01A193B0839F918F910895E1
:10196000222369F7EACFDC016C9161566A3108F0F5
:10197000605E6F5B6D93C1F70895A0E0B0E0E2ECAC
:10198000FCE072C07C01EB018A01690109C0CE0153
:101990002196F6010995F70181937F0101501040CE
:1019A00001151105A1F7CDB7DEB7E8E079C0A0E0D9
:1019B000B0E0ECEDFCE058C0EC017B018A0169016C
:1019C00009C0CE012196F70161917F01F6010995C9
:1019D0000150104001151105A1F7CDB7DEB7E8E0C1
:1019E0005FC0991B79E004C0991F961708F0961BF9
:1019F000881F7A95C9F780950895AA1BBB1B51E1F2
:101A000007C0AA1FBB1FA617B70710F0A61BB70B6E
:101A1000881F991F5A95A9F780959095BC01CD0113
:101A2000089597FB092E07260AD077FD04D0E5DF3D
:101A300006D000201AF4709561957F4F0895F6F74F
:101A4000909581959F4F0895EE0FFF1F0590F4919B
:101A5000E02D09942F923F924F925F926F927F9266
:101A60008F929F92AF92BF92CF92DF92EF92FF92AE
:101A70000F931F93CF93DF93CDB7DEB7CA1BDB0B5A
:101A80000FB6F894DEBF0FBECDBF09942A883988FF
:101A900048885F846E847D848C849B84AA84B98406
:101AA000C884DF80EE80FD800C811B81AA81B98112
:101AB000CE0FD11D0FB6F894DEBF0FBECDBFED0126
:061AC0000895F894FFCF29
:101AC600DF20005374617274696E67004E4F4E4199
:101AD6004D450020003A002E000D0A00504F535489
:021AE6002000DE
:00000001FF
