:10000000E8C0CEC20BC10AC109C108C107C106C1FF
:1000100005C104C103C107C230C200C1FFC0FEC098
:10002000FDC0FCC0FBC04865697A4C616D7065001D
:100030004865697A4472616874004E65626C6572E5
:10004000004C616D706532004C616D706531000A65
:10005000004F4B004641494C0020554E4B4E4F57E8
:100060004E20434F4D4D414E4400434F4D4D49545A
:100070000048454C4C4F0047455400534554002020
:10008000554E4B4E4F574E20434F4D4D414E440A17
:10009000004F555450555400485953545F48554DDE
:1000A000494449545900485953545F54454D5000F0
:1000B00048554D4944495459534554504F494E545D
:1000C0000054454D50534554504F494E54005449E7
:1000D0004D45520044415954494D45004441544511
:1000E000005449544C450054494D450020554E4B51
:1000F0004E4F574E20434F4D4D414E440A005465DC
:10010000727261436F6E74726F6C20302E312C20CE
:100110004275696C642033312C206D727520323049
:1001200031300A0056455253494F4E004F555450F6
:1001300055545300485953545F48554D4944495408
:100140005900485953545F54454D500048554D4946
:1001500044495459534554504F494E540048554D05
:1001600049444954590054454D50534554504F4902
:100170004E540054454D500054494D45525300498A
:100180005344415954494D450044415954494D4502
:100190000044415445005449544C450054494D4590
:1001A000000A000A000A000A00300031000A00209C
:1001B000002000200020002B20000A000A00200060
:1001C0000A0020000A002030002031002B2000000F
:1001D0000F0211241FBECFE5D4E0DEBFCDBF10E07B
:1001E000A0E6B0E0E2E2FBE102C005900D92A23889
:1001F000B107D9F711E0A2E8B0E001C01D92A6371F
:10020000B107E1F711E0C2EDD1E003C02297FE0192
:100210004BDCC03DD107D1F702D081CCF1CECF92DB
:10022000DF92EF92FF920F931F93DF93CF93CDB79F
:10023000DEB729970FB6F894DEBF0FBECDBF88EEAC
:1002400093E023E331E0F9013197F1F70197D9F712
:1002500084B78093840014BEA1D47894D2D28FEF57
:1002600081BB87BB84BB15BAACD16DD2EAD243D473
:10027000F9D5AAD5C4DA4BDB80E060E0D1D580E6C1
:1002800090E0DDD5C1D92FE088E190E00FB6F89479
:10029000A89581BD0FBE21BD7E010894E11CF11C13
:1002A00041E0C42ED12C1DD121E08030920709F00D
:1002B00044D62CD2882309F49BC0A89560910101F3
:1002C0007091020180910301909104012091050138
:1002D0003091060140910701509108017DD1182FFE
:1002E000A6DA80936D01A6DA809382005AD211308B
:1002F00011F003E001C004E0A12FB0E060E070E085
:1003000020916D0130E0FD01E550FF4F848190E0C8
:1003100040912401841B91092817390714F461E0E6
:1003200070E0660F771F660F771F50918300562B82
:1003300060E070E08091820090E0A550BF4F119680
:100340002C9130E040912301241B3109821793073F
:1003500014F461E070E002C0660F771F0A95E2F7BF
:10036000852F862B80938300D3DA75D580E060E0FB
:1003700057D580918200B70160DA61D589E690E0B7
:100380005ED580916D01B70158DA59D585E253D514
:1003900081E060E045D580918500882319F08130A7
:1003A00039F517C0609172017091730180917401E9
:1003B00090917501A70150D142D5809186008F5F41
:1003C000809386008150833099F481E0809385008A
:1003D0000DC081E191E033D5809186008F5F8093DD
:1003E00086008150833021F410928500109286009F
:1003F000829902C0C09A01C0C09880918400883060
:1004000051F480B390E096958795969587958C25C5
:100410009D2580FF02C0C19A46CFC19844CF83E199
:1004200090E050D008951F920F920FB60F921124B2
:100430002F938F939F93EF93FF939BB12CB1E091F8
:10044000C900EF5FEF718091CA00E81711F482E0F4
:1004500008C0892F8871E093C900F0E0E955FF4F8B
:1004600020838093CB00FF91EF919F918F912F91EB
:100470000F900FBE0F901F9018951F920F920FB6FE
:100480000F9211248F939F93EF93FF939091C70046
:100490008091C800981761F0E091C800EF5FEF719C
:1004A000E093C800F0E0E957FF4F80818CB901C0AC
:1004B0005598FF91EF919F918F910F900FBE0F90E4
:1004C0001F9018951092C7001092C8001092C90092
:1004D0001092CA0090BD89B988E98AB986E880BDC2
:1004E00008959091C9008091CA00981719F420E0EE
:1004F00031E012C0E091CA00EF5FEF71E093CA00F3
:10050000F0E0E955FF4F30812091CB00922F80E041
:10051000AC01430F511D9A01C9010895282F9091F4
:10052000C7009F5F9F718091C8009817E1F3E92F82
:10053000F0E0E957FF4F20839093C700559A089544
:10054000DC0111C09091C7009F5F9F718091C8002E
:100550009817E1F31196E92FF0E0E957FF4F208358
:100560009093C700559A2C91222361F70895AC010E
:1005700010C02091C7002F5F2F718091C8002817ED
:10058000E1F3E22FF0E0E957FF4F90832093C7009B
:10059000559AFA014F5F5F4F9491992351F708954F
:1005A0001F920F920FB60F9211248F938091CC005F
:1005B0008F5F8093CC008F910F900FBE0F901F9094
:1005C00018958A98929885B7836085BF8BB78064A9
:1005D0008BBF1092CC000895EF92FF920F931F9360
:1005E00079018A01621773078407950711F480E087
:1005F0002EC020917201309173014091740150918D
:1006000075016E157F058007910798F42617370747
:100610004807590718F480E090E019C090E0E2160E
:10062000F3060407150708F491E081E09827892F65
:100630000EC0261737074807590738F480E090E0C6
:10064000E216F3060407150710F081E090E01F9111
:100650000F91FF90EF900895CF92DF92EF92FF926B
:100660000F931F937B018C016A01C801AA27BB2746
:10067000BA0119D9BB27A12F902F8F2DB6016D5F1D
:100680007F4F11D9B6016A5F7F4F8E2D0CD98AE357
:10069000F60182838583C6011F910F91FF90EF9031
:1006A000DF90CF900895CF92DF92EF92FF920F9359
:1006B0001F93DF93CF9300D000D0CDB7DEB77B017F
:1006C0008C01AA27BB276E010894C11CD11CB6015E
:1006D000EAD836DF8EE222DFBB27A12F902F8F2DA5
:1006E000B601E1D82DDF8EE219DF8E2DB601DBD801
:1006F00027DF0F900F900F900F90CF91DF911F91F8
:100700000F91FF90EF90DF90CF9008958091CC00F3
:100710008823C1F083D16093720170937301809339
:100720007401909375010DD160936E0170936F0108
:1007300080937001909371018091CC0081508093DF
:10074000CC0081E008950895CF92EF920F931F930C
:1007500090E0FC01A3E0EE0FFF1FAA95E1F7E80F80
:10076000F91FE550FF4F42A753A764A775A706A737
:1007700017A720AB31ABCC2011F420E001C020E85A
:10078000FC0133E0EE0FFF1F3A95E1F7E80FF91F88
:10079000E550FF4F2E2922AB1F910F91EF90CF9084
:1007A00008950F931F93CF93DF9310928300C5E2B8
:1007B000D1E001E010E0888587FF19C06881798168
:1007C0008A819B812C813D814E815F8105DF882359
:1007D00071F088858F77980102C0220F331F8A95A8
:1007E000E2F7C90120918300282B209383002996EA
:1007F00031E0CD36D307F9F6DF91CF911F910F91FC
:1008000008950895823091F0833028F4882341F0D0
:100810008130B1F408C0833061F0843089F40DC0B8
:1008200088E490E008C081E490E005C08AE390E0AD
:1008300002C080E390E09BDE089586E290E097DEC0
:10084000089585E086BF8AE080B982E081B9089585
:1008500084EA86BF06B607FEFDCF089584E986BF09
:100860000895880F8F5F83B984E886BF06B607FEB8
:10087000FDCF0895880F83B984E886BF06B607FECA
:10088000FDCF089583B984E886BF06B607FEFDCF85
:10089000089583B984E886BF06B607FEFDCF0895A4
:1008A00084E886BF06B607FEFDCF83B1089584ECC9
:1008B00086BF06B607FEFDCF83B10895382F6AE0E4
:1008C000BED8282F2F7086EF9FEF289F802D1124F0
:1008D000830F8F702295207F820F0895FF920F93D0
:1008E0001F93F82E062F142FB3DF88E6C3DF80E0B6
:1008F000D0DF812FE3DF8F77CCDF802FDFDFC9DF11
:100900008F2DDCDFC6DFAADF1F910F91FF900895C6
:10091000FF920F931F93F82E062F142F99DF88E66E
:10092000A9DF84E0B6DF812FC9DFB3DF802FC6DF08
:10093000B0DF8F2DC3DFADDF91DF1F910F91FF90EF
:1009400008959F92AF92BF92CF92DF92EF92FF9263
:100950000F931F937DDF88E68DDF84E09ADF7EDFD3
:1009600077DF88E67EDFA3DFE82EA1DFA82E98DF01
:10097000982E74DF8E2D82958F7090E09C01B3E0ED
:10098000220F331FBA95E1F7880F991F280F391FDF
:100990008FE0E822E20EFF2400E010E08701FF2450
:1009A000EE248A2D82958F7090E09C01E3E0220F67
:1009B000331FEA95E1F7880F991F280F391F8FE041
:1009C000A822A20EBB24CC24DD24DC2CCB2CBA2CF8
:1009D000AA24EA0CFB1C0C1D1D1D892D82958F700D
:1009E00090E09C0153E0220F331F5A95E1F7880FE6
:1009F000991F280F391F8FE09822920EE90CF11CE5
:100A0000011D111DB701C8011F910F91FF90EF90BB
:100A1000DF90CF90BF90AF909F9008959F92AF923C
:100A2000BF92CF92DF92EF92FF920F931F9310DF4E
:100A300088E620DF80E02DDF11DF0ADF88E611DFA6
:100A400036DF982E34DFA82E2BDFE82E07DF8E2D21
:100A500082958F7090E09C01B3E0220F331FBA950E
:100A6000E1F7880F991F280F391F8FE0E822E20E67
:100A7000FF2400E010E08701FF24EE248A2D8295F8
:100A80008F7090E09C01E3E0220F331FEA95E1F7BD
:100A9000880F991F280F391F8FE0A822A20EBB24B0
:100AA000CC24DD24DC2CCB2CBA2CAA24EA0CFB1C95
:100AB0000C1D1D1D892D82958F7090E09C0153E0C7
:100AC000220F331F5A95E1F7880F991F280F391FFE
:100AD0008FE09822920EE90CF11C011D111DB70147
:100AE000C8011F910F91FF90EF90DF90CF90BF90C2
:100AF000AF909F9008951F93ABDE88E6BBDE80E049
:100B0000C8DEACDEA5DE88E6ACDECADE182FA6DEC7
:100B100017FF16C09DDE88E6ADDE80E0BADE80E01D
:100B2000B8DE80E0B6DE80E0B4DE80E0B2DE81E0F8
:100B3000B0DE81E0AEDE89E0ACDE80E1AADE8EDEF2
:100B40001F9108959C01E199FECF3FBB2EBBE09A17
:100B50008DB308959C01E199FECF3FBB2EBB6DBBC9
:100B60000FB6F894E29AE19A0FBE0895089581E0D5
:100B700090E06BEF70E042E750E02AEA35E045D7BD
:100B8000E199FECF80E090E09FBB8EBB85EA8DBBF4
:100B90000FB6F894E29AE19A0FBE0895CF92EF92C1
:100BA0000F931F93E199FECF80E090E09FBB8EBB37
:100BB000E09A8DB3853A09F48EC080E090E0A8E019
:100BC000B0E08093010190930201A0930301B093E0
:100BD000040180E090E0A4E1B0E0809305019093EF
:100BE0000601A0930701B093080184E18093FC0003
:100BF00089E18093FD0082E38093FF0087E3809387
:100C0000000183E0809323018093240180E040E091
:100C100050E06BE070E000E010E02DE030E0EE240A
:100C2000CC24C39491DD81E040E050E06AE070E0C4
:100C300000E010E02EE030E0EE24E39485DD82E079
:100C400040E050E06AE070E000E010E02EE030E0CC
:100C500094E0E92E79DD83E040E050E060E070E070
:100C600000E010E020E030E0EE24CC246DDD84E0F4
:100C700040E050E060E070E000E010E020E030E0B4
:100C800063DD85E040E050E060E070E000E010E00F
:100C900020E030E059DD86E040E050E060E070E0C8
:100CA00000E010E020E030E04FDD87E040E050E081
:100CB00060E070E000E010E020E030E045DD81E140
:100CC00091E06CE670E049E050E03AD681E0809334
:100CD000CD004DDF09C08BEF90E061E070E042E7AE
:100CE00050E022EA35E077D61F910F91EF90CF9038
:100CF000089594B39F6094BB95B3907F95BB9698ED
:100D0000882311F0959A01C0959800000000979AE9
:100D10000000000085B36F70862B85BB00000000CB
:100D2000979884E08A95F1F7979A0000000008955B
:100D3000FF920F931F93082FF62E62956F70D9DFE5
:100D400014E0812F8A95F1F7802F6F2DD2DF1A954D
:100D5000F1F724E085B38F6085BB84B3807F84BBCB
:100D6000969A9598822F8A95F1F7979A822F8A956D
:100D7000F1F7822F8A95F1F793B3822F8A95F1F7D5
:100D80009798822F8A95F1F785B38F6085BB84B3DE
:100D9000807F84BB969A9598822F8A95F1F7979ACF
:100DA000822F8A95F1F7822F8A95F1F783B3822FEC
:100DB0008A95F1F79798822F8A95F1F793FDCACF1C
:100DC0001F910F91FF9008950F931F9380E063E0B0
:100DD00090DF80E09CE30197F1F780E063E089DF3A
:100DE00000E01CE0C8010197F1F780E063E081DFDB
:100DF000C8010197F1F780E062E07BDF80E068E204
:100E000097DF80E06CE094DF80E061E091DF80E0DC
:100E100066E08EDF80E062E08BDF1F910F91089526
:100E2000962F682F6295660F660F607C690F606869
:100E300080E07EDF0895682F81E07ADF0895CF9308
:100E4000DF93EC0102C02196F6DF88818823D9F771
:100E5000DF91CF91089580E061E06ADF80E060E09B
:100E6000DFDF08958FEC90E09093F8008093F70017
:100E700008958F929F92AF92BF92CF92DF92EF929E
:100E8000FF920F931F93DF93CF9300D0CDB7DEB7C0
:100E900080E090E063E770E047EF50E060D535E731
:100EA000E32E30E0F32EB7018E010F5F1F4FA80134
:100EB00056D55C0180E090E0B701A80150D56C01E7
:100EC00080E090E0B701A8014AD54C01C501FDD4EE
:100ED000E82EC601FAD4A82EC401F7D4FF2400E0FE
:100EE00010E08701FF24EE24BB24CC24DD24DC2C7D
:100EF000CB2CBA2CAA24EA0CFB1C0C1D1D1DE80EE1
:100F0000F11C011D111DB701C8010F900F90CF9169
:100F1000DF911F910F91FF90EF90DF90CF90BF90E6
:100F2000AF909F908F90089580E090E063E770E02D
:100F300047EF50E014D5C9D408954F925F926F9255
:100F40007F928F929F92AF92BF92CF92DF92EF9259
:100F5000FF920F931F93DF93CF93CDB7DEB7A19787
:100F60000FB6F894DEBF0FBECDBF8D3019F08A30BA
:100F700009F018C3E091F700F091F8008FEC90E0D1
:100F8000E817F90709F429C310829093F8008093B9
:100F9000F7009093FA008093F90013D51092CE00D9
:100FA00080E090E063E770E047EF50E0D8D48C0138
:100FB000DC018C91882309F4EEC2D8010D90002049
:100FC000E9F77D01E01AF10AC8016BE770E0A701BB
:100FD000A9D4892B09F013C180E090E063E770E0A9
:100FE00047EF50E0BCD4F82EE92EE82FF92FDF01AF
:100FF0000D900020E9F78D010E1B1F0B67EE70E0CE
:10100000A80190D4892B69F434DF9B01AC01AA2795
:10101000BB27E32EF42E052F11276E2D422F5EDC09
:10102000ADC28F2D9E2D61EE70E0A8017BD4892B7F
:10103000D9F46091F7007091F80081E191E049E006
:1010400050E07ED48091F7009091F800FC0101906F
:101050000020E9F73197E81BF90B8E0F9F1F909343
:10106000F8008093F7008AC28F2D9E2D6CED70E002
:10107000A80158D4892B09F045C080E090E063E7CF
:1010800070E047EF50E06BD467E770E08E010F5FD0
:101090001F4FA80164D47C0180E090E067E770E016
:1010A000A8015DD46C0180E090E067E770E0A801E2
:1010B00056D44C01C70109D4E82EC60106D4A82E87
:1010C000C40103D4FF2400E010E08701FF24EE24D4
:1010D000BB24CC24DD24DC2CCB2CBA2CAA24EA0C97
:1010E000FB1C0C1D1D1DE80EF11C011D111DC8016E
:1010F000AA27BB275527412F302F2F2D622F4E2D8A
:1011000007DC3CC28F2D9E2D64ED70E0A8010AD44F
:10111000892B99F4AEDE60930101709302018093F4
:10112000030190930401A5DE60930501709306010D
:10113000809307019093080121C28F2D9E2D6EECA4
:1011400070E0A801EFD3892B99F4EEDE182F91DE21
:101150002B013C018EDE4B015C01E6DEE82EE4DE75
:10116000C82E812FB301A20195018401EDDA06C2D8
:101170008F2D9E2D61EC70E0A801D4D3892B41F412
:10118000D3DE182FD1DE8093FC001093FD00F6C152
:101190008F2D9E2D60EB70E0A801C4D3892B39F40C
:1011A000C3DE80930001C0DE8093FF00E7C18F2D76
:1011B0009E2D66EA70E0A801B5D3892B21F4B4DE38
:1011C00080932301DBC18F2D9E2D68E970E0A8017B
:1011D000A9D3892B21F4A8DE80932401CFC18F2DC0
:1011E0009E2D61E970E0A8019DD3892B11F49CDE4E
:1011F000C5C181E08093CE008FE790E0BEC1C801F9
:1012000067E770E0A7018ED3892B09F0A1C180E0C8
:1012100090E063E770E047EF50E0A1D3F82EE92EAD
:10122000E82FF92FDF010D900020E9F78D010E1B4B
:101230001F0B6CE971E0A80175D3892B81F46091D3
:101240007201709173018091740190917501AE01EA
:10125000495F5F4F01DA74D981EA91E08EC18F2D29
:101260009E2D66E971E0A8015DD3892B31F481E1FF
:1012700091E066D983EA91E080C18F2D9E2D61E9CE
:1012800071E0A8014FD3892B51F460916E017091E8
:101290006F01809170019091710105DA1BC18F2D52
:1012A0009E2D69E871E0A8013DD3892B01F560917D
:1012B00001017091020180910301909104018E015E
:1012C000005F1F4FA801C8D9609105017091060108
:1012D0008091070190910801AE01475E5F4FBCD934
:1012E00080E2888FC8012CD985EA91E046C18F2D14
:1012F0009E2D6FE771E0A80115D3892BE1F4609171
:1013000001017091020180910301909104012091EB
:1013100005013091060140910701509108015CD907
:10132000882319F08BEA91E002C089EA91E01FD985
:1013300087EA91E022C18F2D9E2D68E771E0A80118
:10134000F1D2892B09F059C005E211E047E0E42E03
:10135000F12CEC0EFD1E87EB91E009D9F8016081BC
:10136000718182819381A70177D9EAD885EB91E0D9
:10137000FED8D80114966D917D918D919C9117970F
:10138000A7016AD9DDD883EB91E0F1D8F801808517
:101390008F77B70152D2D4D881EB91E0E8D890E0B2
:1013A000D80118968C9187FD91E0892FB70145D21D
:1013B000C7D88FEA91E0DBD8F801808587FD02C0AD
:1013C00080E00DC0D8016D917D918D919C91139716
:1013D00014962D913D914D915C911797FDD8B701D1
:1013E0002CD2AED88DEA91E0C2D8075F1F4FB1E092
:1013F0000D361B0709F0AFCFC1C08F2D9E2D63E7BF
:1014000071E0A8018FD2892B51F480918200BE0136
:101410006D5F7F4F12D294D88AEB91E0AEC08F2DD2
:101420009E2D66E671E0A8017DD2892B99F48E018C
:101430000D5F1F4F8091FD00B801FFD181D88EEB69
:1014400091E095D88091FC00B801F7D179D88CEB68
:1014500091E093C08F2D9E2D6DE571E0A80162D2C1
:10146000892B19F480916D0130C08F2D9E2D6CE475
:1014700071E0A80157D2892B99F48E010D5F1F4F9F
:1014800080910001B801D9D15BD882EC91E06FD88E
:101490008091FF00B801D1D153D880EC91E06DC0AC
:1014A0008F2D9E2D62E471E0A8013CD2892B19F4A6
:1014B000809123010AC08F2D9E2D64E371E0A80165
:1014C00031D2892B59F480912401BE016D5F7F4F89
:1014D000B4D136D889E790E033D850C08F2D9E2DF7
:1014E0006CE271E0A8011ED2892B09F500E010E042
:1014F0008CEC91E03CD8802F85D98091830090E0DE
:10150000002E02C0959587950A94E2F780FF03C0EC
:1015100089EC91E002C086EC91E029D884EC91E05E
:1015200026D80F5F1F4F0530110511F727C08F2DEB
:101530009E2D64E271E0A801F5D1892B19F48EEF9C
:1015400090E01BC081E08093CE008CEE90E015C04F
:10155000C80161E770E0A701E5D1892B79F0C801E6
:101560006AE670E0A701DED1892B11F400DB06C02A
:1015700081E08093CE0089E590E0F9D78091CE009C
:10158000882319F084E590E002C081E590E0EFD770
:101590008FE490E0ECD78FEC90E09093F80080938C
:1015A000F7001BC0883061F4E091F700F091F8007B
:1015B00020E0EF3CF20721F018F01082319709C0CB
:1015C000E091F700F091F80090E0E73FF90728F488
:1015D0008193F093F800E093F700A1960FB6F8948A
:1015E000DEBF0FBECDBFCF91DF911F910F91FF9056
:1015F000EF90DF90CF90BF90AF909F908F907F90B3
:101600006F905F904F900895CF92DF92EF92FF928C
:101610000F931F93DF93CF9300D000D0CDB7DEB7E9
:1016200010E07E010894E11CF11C83E3C82E81E0E8
:10163000D82E012F0F5F802FB701FFD081E060E02F
:10164000EFDB8BE790E0FBDBC701F9DB812F60D19B
:1016500088E893E1F6013197F1F70197D9F7053062
:1016600011F0102FE6CF0F900F900F900F90CF91A9
:10167000DF911F910F91FF90EF90DF90CF90089531
:10168000582F90E820E030E044E0892F852319F0BE
:1016900093988B9802C093988B9A842F8A95F1F730
:1016A000949A842F8A95F1F79498842F8A95F1F76C
:1016B00093988B9896952F5F3F4F2830310529F7E7
:1016C000949A80B394980895582F40E090E820E0D1
:1016D00030E064E0949A80B3949883FD492B862F80
:1016E0008A95F1F796952F5F3F4F2830310591F796
:1016F000552319F093988B9802C093988B9A84E0A5
:10170000982F9A95F1F7949A982F9A95F1F79498C3
:101710008A95F1F793988B98842F089593988B98D6
:10172000949A84E0982F9A95F1F793988B9A982F32
:101730009A95F1F79498982F9A95F1F7949A982F93
:101740009A95F1F793988B98982F9A95F1F794982A
:101750008A95F1F7089584E08A95F1F793988B982C
:1017600080E0949A000000009498000000008F5FD1
:101770008930B9F7D3DF0895FF920F931F93082F95
:10178000CDDF802F7DDF8399FECF80E09DDFF82EB7
:1017900080E09ADF182F81E097DF0530E9F41C36EE
:1017A00068F48FE8189F9001112482E020303807F8
:1017B00010F420E032E0205032400CC08FE6189F39
:1017C00090011124235B344F84E62130380710F058
:1017D00020E034E6832F0FC0033011F080E00BC00F
:1017E0009F2D80E0212F30E0822B932B69E170E068
:1017F00032D1862F88521F910F91FF90089580E07B
:1018000098E70197F1F793988B988C9A949893980E
:101810008B98A1DF80E094E80197F1F79CDF8EE1DF
:101820002FDF7CDF86E02CDF81E02ADF089585E072
:10183000A3DF089583E0A0DF08951F93482FFB01E5
:1018400064E6FDD0182F282F30E08CE99FEFB90116
:10185000689F9001699F300D789F300D1124C90158
:10186000840F911D6AE070E00AD1420F86EF9FEF6E
:10187000689F802D1124840F112341F0105D108387
:10188000605D6183805D828313820AC0805D662310
:1018900029F0605D60838183128202C0808311829F
:1018A000CF011F910895482FFB016AE0C8D0805DE9
:1018B00080838053405D26EF3FEF829F802D11246F
:1018C000840F81831282CF010895FC0180E02AE019
:1018D00005C0829F802D1124890F319690819053ED
:1018E0009A30B8F3089590E080538A3008F491E07C
:1018F000892F0895FC01808180538A3010F080E0A8
:101900000895319680818823B1F781E00895089584
:101910001F93182F9DD780E2ADD7812FBAD79ED7BE
:101920001F910895FB01DC014150504030F08D9132
:101930000590801919F40020B9F7881B990B0895B8
:10194000FB01DC014150504048F001900D92002015
:10195000C9F701C01D9241505040E0F7089500972B
:1019600031F4DA018D919C91009709F40EC0DC01ED
:10197000FB013D912191222319F03217C9F3FACFCF
:10198000332331F4DA011D921C9288279927089598
:101990001197AF93BF93FB013D912191321771F4E1
:1019A000332321F488279927119702C01E9211969C
:1019B000FA01A193B0839F918F910895222369F733
:1019C000EACFDC016C9161566A3108F0605E6F5BB2
:1019D0006D93C1F70895A0E0B0E0E0EFFCE072C0C5
:1019E0007C01EB018A01690109C0CE012196F60153
:1019F0000995F70181937F010150104001151105F0
:101A0000A1F7CDB7DEB7E8E079C0A0E0B0E0EAE04A
:101A1000FDE058C0EC017B018A01690109C0CE01DB
:101A20002196F70161917F01F6010995015010405F
:101A300001151105A1F7CDB7DEB7E8E05FC0991B2E
:101A400079E004C0991F961708F0961B881F7A95B5
:101A5000C9F780950895AA1BBB1B51E107C0AA1FB7
:101A6000BB1FA617B70710F0A61BB70B881F991F3F
:101A70005A95A9F780959095BC01CD01089597FBE3
:101A8000092E07260AD077FD04D0E5DF06D0002016
:101A90001AF4709561957F4F0895F6F790958195AA
:101AA0009F4F0895EE0FFF1F0590F491E02D0994CC
:101AB0002F923F924F925F926F927F928F929F925E
:101AC000AF92BF92CF92DF92EF92FF920F931F934C
:101AD000CF93DF93CDB7DEB7CA1BDB0B0FB6F894FD
:101AE000DEBF0FBECDBF09942A88398848885F843D
:101AF0006E847D848C849B84AA84B984C884DF80AE
:101B0000EE80FD800C811B81AA81B981CE0FD11D91
:101B10000FB6F894DEBF0FBECDBFED010895F89467
:021B2000FFCFF5
:101B22005374617274696E6700DF20004E4F4E413C
:101B32004D450020003A002E000A00504F53542019
:021B42000000A1
:00000001FF
