:10000000F0C0C3C213C112C111C110C10FC10EC1D2
:100010000DC10CC10BC1FCC125C208C107C106C17D
:1000200005C104C103C15374617274696E670D0A1E
:10003000004865697A4C616D7065004865697A446D
:1000400072616874004E65626C6572004C616D701F
:100050006532004C616D706531000D0A004F4B0038
:100060004641494C0020554E4B4E4F574E20434F72
:100070004D4D414E4400434F4D4D49540048454C71
:100080004C4F00474554005345540020554E4B4EAD
:100090004F574E20434F4D4D414E44004F55545005
:1000A00055540048554D4944495459534554504FAF
:1000B000494E540054454D50534554504F494E54A9
:1000C0000054494D45520044415954494D4500445E
:1000D000415445005449544C450054494D45002075
:1000E000554E4B4E4F574E20434F4D4D414E4400C1
:1000F0005465727261436F6E74726F6C20302E3172
:100100002C206D727520323030390D0A0056455260
:1001100053494F4E004F5554505554530048554D78
:100120004944495459534554504F494E5400485539
:100130004D49444954590054454D50534554504F2E
:10014000494E540054454D500054494D45525300BA
:10015000495344415954494D450044415954494D2E
:10016000450044415445005449544C450054494DC0
:1001700045000D0A000D0A000D0A000D0A003000AE
:1001800031000D0A0020002000200020002B20005C
:100190000D0A000D0A0020000D0A0020000D0A00C3
:1001A0002030002031002B2000646964206E6F74C1
:1001B0002072656365697665206D6561737572652A
:1001C0006D656E740D0A00206661696C656420744B
:1001D0006F20726563656976652061636B0D0A0047
:1001E000040211241FBECFE5D4E0DEBFCDBF10E076
:1001F000A0E6B0E0E0EAFAE102C005900D92A23874
:10020000B107D9F711E0A2E8B0E001C01D92A43710
:10021000B107E1F711E0C2EED1E003C02297FE0181
:1002200002DCC03ED107D1F7B1D038CCE9CE0F9374
:100230001F93DF93CF93CDB7DEB729970FB6F8940E
:10024000DEBF0FBECDBF60910101709102018091B0
:100250000301909104012091050130910601409124
:10026000070150910801ACD1182FA3DA80936B01DC
:100270009DDA8093820089D2113011F053E001C0E1
:1002800054E0A12FB0E020E030E0FD01E550FF4F49
:1002900090916B018481981710F421E030E0220FD7
:1002A000331F220F331F40918300422B20E030E0A8
:1002B000A550BF4F9091820011968C91981710F421
:1002C00021E030E002C0220F331F5A95E2F7842F5D
:1002D000822B80938300DBDA90E080916B01833383
:1002E00008F091E0892FD3DA8FD580916B018E01D0
:1002F0000F5F1F4FB80160DA7BD580E690E078D5BC
:1003000080916B01B80158DA73D585E26DD5809183
:100310008400805D69D581E060E05BD580918500D7
:10032000882319F0813039F517C060917001709100
:1003300071018091720190917301A80181D158D50A
:10034000809186008F5F809386008150833099F47E
:1003500081E0809385000DC081E191E049D58091D5
:1003600086008F5F809386008150833021F4109245
:1003700085001092860029960FB6F894DEBF0FBE56
:10038000CDBFCF91DF911F910F91089588EE93E03B
:1003900023E331E0F9013197F1F70197D9F784B7F9
:1003A0008093840014BEF8D378941FD28FEF81BB62
:1003B00087BB84BB15BAFAD0BAD13AD29AD381E0BE
:1003C00034D229D5DAD48DD961DA80E060E001D564
:1003D00083E690E00DD586E290E0BED0C0D82FE055
:1003E00088E190E00FB6F894A89581BD0FBE21BDBD
:1003F0006DD021E08030920709F078D57BD1882339
:10040000B9F3A89514DFF4CF83E190E050D00895BC
:100410001F920F920FB60F9211242F938F939F93D9
:10042000EF93FF939BB12CB1E091C900EF5FEF71A7
:100430008091CA00E81711F482E008C0892F887102
:10044000E093C900F0E0E955FF4F20838093CB0093
:10045000FF91EF919F918F912F910F900FBE0F9071
:100460001F9018951F920F920FB60F9211248F9321
:100470009F93EF93FF939091C7008091C8009817C6
:1004800061F0E091C800EF5FEF71E093C800F0E029
:10049000E957FF4F80818CB901C05598FF91EF91CA
:1004A0009F918F910F900FBE0F901F9018951092F3
:1004B000C7001092C8001092C9001092CA0090BDE7
:1004C00089B988E98AB986E880BD08959091C90004
:1004D0008091CA00981719F420E031E012C0E09131
:1004E000CA00EF5FEF71E093CA00F0E0E955FF4FFB
:1004F00030812091CB00922F80E0AC01430F511D41
:100500009A01C9010895282F9091C7009F5F9F719C
:100510008091C8009817E1F3E92FF0E0E957FF4F09
:1005200020839093C700559A0895DC0111C09091E3
:10053000C7009F5F9F718091C8009817E1F31196E3
:10054000E92FF0E0E957FF4F20839093C700559AB9
:100550002C91222361F70895AC0110C02091C700AF
:100560002F5F2F718091C8002817E1F3E22FF0E090
:10057000E957FF4F90832093C700559AFA014F5FC8
:100580005F4F9491992351F708951F920F920FB6E0
:100590000F9211248F938091CC008F5F8093CC00B9
:1005A0008F910F900FBE0F901F9018958A9885B766
:1005B000836085BF8BB780648BBF1092CC00089599
:1005C000EF92FF920F931F9379018A0162177307CD
:1005D0008407950711F480E02EC0209170013091BE
:1005E000710140917201509173016E157F05800772
:1005F000910798F4261737074807590718F480E041
:1006000090E019C090E0E216F3060407150708F41D
:1006100091E081E09827892F0EC0261737074807F9
:10062000590738F480E090E0E216F3060407150756
:1006300010F081E090E01F910F91FF90EF900895EE
:10064000CF92DF92EF92FF920F931F937B018C0169
:100650006A01C801AA27BB27BA01E4D8BB27A12F8A
:10066000902F8F2DB6016D5F7F4FDCD8B6016A5F8A
:100670007F4F8E2DD7D88AE3F60182838583C6010A
:100680001F910F91FF90EF90DF90CF900895CF9240
:10069000DF92EF92FF920F931F93DF93CF9300D0DF
:1006A00000D0CDB7DEB77B018C01AA27BB276E0136
:1006B0000894C11CD11CB601B5D837DF8EE223DF08
:1006C000BB27A12F902F8F2DB601ACD82EDF8EE245
:1006D0001ADF8E2DB601A6D828DF0F900F900F904D
:1006E0000F90CF91DF911F910F91FF90EF90DF90CE
:1006F000CF9008958091CC008823C1F08DD1609374
:10070000700170937101809372019093730117D1FE
:1007100060936C0170936D0180936E0190936F01F3
:100720008091CC0081508093CC0081E008950895A1
:10073000CF92EF920F931F9390E0FC01A3E0EE0F96
:10074000FF1FAA95E1F7E80FF91FE550FF4F40A7FB
:1007500051A762A773A704A715A726A737A7CC2080
:1007600011F420E001C020E8FC0133E0EE0FFF1F90
:100770003A95E1F7E80FF91FE550FF4F2E2920AB1E
:100780001F910F91EF90CF9008950F931F93CF93E8
:10079000DF9310928300C3E2D1E001E010E088858E
:1007A00087FF19C0688179818A819B812C813D8175
:1007B0004E815F8105DF882371F088858F779801EE
:1007C00002C0220F331F8A95E2F7C90120918300EE
:1007D000282B20938300299631E0CB36D307F9F6F6
:1007E000DF91CF911F910F9108950895823091F07C
:1007F000833028F4882341F08130B1F408C083307D
:1008000061F0843089F40DC083E590E008C08CE489
:1008100090E005C085E490E002C08BE390E09CDEB0
:10082000089581E390E098DE089508958AE208959E
:1008300084B38F7C84BB85B3806385BB85E086BF32
:100840008AE080B981B18C7F81B9089584EA86BF3E
:1008500006B607FEFDCF089584E986BF0895880F88
:100860008F5F83B984E886BF06B607FEFDCF089583
:10087000880F83B984E886BF06B607FEFDCF0895CA
:1008800083B984E886BF06B607FEFDCF089583B915
:1008900084E886BF06B607FEFDCF089584E886BFCC
:1008A00006B607FEFDCF83B1089584EC86BF06B679
:1008B00007FEFDCF83B10895382F6AE07FD8282F37
:1008C0002F7086EF9FEF289F802D1124830F8F704C
:1008D0002295207F820F0895FF920F931F93F82E89
:1008E000062F142FB3DF88E6C3DF80E0D0DF812F2F
:1008F000E3DF8F77CCDF802FDFDFC9DF8F2DDCDFF9
:10090000C6DFAADF1F910F91FF900895FF920F930A
:100910001F93F82E062F142F99DF88E6A9DF84E0B5
:10092000B6DF812FC9DFB3DF802FC6DFB0DF8F2DA9
:10093000C3DFADDF91DF1F910F91FF9008959F926C
:10094000AF92BF92CF92DF92EF92FF920F931F93DD
:100950007DDF88E68DDF84E09ADF7EDF77DF88E663
:100960007EDFA3DFE82EA1DFA82E98DF982E74DFAC
:100970008E2D82958F7090E09C01B3E0220F331F83
:10098000BA95E1F7880F991F280F391F8FE0E822E9
:10099000E20EFF2400E010E08701FF24EE248A2D00
:1009A00082958F7090E09C01E3E0220F331FEA955F
:1009B000E1F7880F991F280F391F8FE0A822A20E98
:1009C000BB24CC24DD24DC2CCB2CBA2CAA24EA0CAE
:1009D000FB1C0C1D1D1D892D82958F7090E09C01C4
:1009E00053E0220F331F5A95E1F7880F991F280F04
:1009F000391F8FE09822920EE90CF11C011D111D88
:100A0000B701C8011F910F91FF90EF90DF90CF9039
:100A1000BF90AF909F9008959F92AF92BF92CF9258
:100A2000DF92EF92FF920F931F9310DF88E620DF93
:100A300080E02DDF11DF0ADF88E611DF36DF982E38
:100A400034DFA82E2BDFE82E07DF8E2D82958F70E6
:100A500090E09C01B3E0220F331FBA95E1F7880FB5
:100A6000991F280F391F8FE0E822E20EFF2400E0D3
:100A700010E08701FF24EE248A2D82958F7090E08C
:100A80009C01E3E0220F331FEA95E1F7880F991FDD
:100A9000280F391F8FE0A822A20EBB24CC24DD240E
:100AA000DC2CCB2CBA2CAA24EA0CFB1C0C1D1D1D23
:100AB000892D82958F7090E09C0153E0220F331FA7
:100AC0005A95E1F7880F991F280F391F8FE0982258
:100AD000920EE90CF11C011D111DB701C8011F91F7
:100AE0000F91FF90EF90DF90CF90BF90AF909F90CD
:100AF00008951F93ABDE88E6BBDE80E0C8DEACDE87
:100B0000A5DE88E6ACDECADE182FA6DE17FF16C00B
:100B10009DDE88E6ADDE80E0BADE80E0B8DE80E013
:100B2000B6DE80E0B4DE80E0B2DE81E0B0DE81E0FF
:100B3000AEDE89E0ACDE80E1AADE8EDE1F91089594
:100B40009C01E199FECF3FBB2EBBE09A8DB3089587
:100B50009C01E199FECF3FBB2EBB6DBB0FB6F89455
:100B6000E29AE19A0FBE0895089581E090E06BEF5C
:100B700070E040E750E028EA35E006D7E199FECF83
:100B800080E090E09FBB8EBB85EA8DBB0FB6F894EA
:100B9000E29AE19A0FBE0895CF92EF920F931F93BE
:100BA000DF93CF93CDB7DEB728970FB6F894DEBFAB
:100BB0000FBECDBFE199FECF80E090E09FBB8EBB22
:100BC000E09A8DB3853A09F48FC080E090E0A8E008
:100BD000B0E089839A83AB83BC8320E030E044E1BA
:100BE00050E02D833E834F8358878093010190937B
:100BF0000201A0930301B093040194E19093FC00DF
:100C00008EE18093FF00209305013093060140930D
:100C10000701509308019093FD008093000180E04C
:100C200040E050E06BE070E000E010E02DE030E0EC
:100C3000EE24CC24C3947CDD81E040E050E06AE007
:100C400070E000E010E02EE030E0EE24E39470DD90
:100C500082E040E050E06AE070E000E010E02EE06A
:100C600030E094E0E92E64DD83E040E050E060E0B5
:100C700070E000E010E020E030E0EE24CC2458DD0D
:100C800084E040E050E060E070E000E010E020E050
:100C900030E04EDD85E040E050E060E070E000E0F4
:100CA00010E020E030E044DD86E040E050E060E02D
:100CB00070E000E010E020E030E03ADD87E040E066
:100CC00050E060E070E000E010E020E030E030DD77
:100CD00081E191E06CE670E049E050E0F0D581E020
:100CE0008093CD0042DF09C08BEF90E061E070E0BF
:100CF00040E750E020EA35E02DD628960FB6F8946C
:100D0000DEBF0FBECDBFCF91DF911F910F91EF904E
:100D1000CF90089594B39F6094BB95B3907F95BB9B
:100D20009698882311F0959A01C0959800000000CC
:100D3000979A0000000085B36F70862B85BB00007A
:100D40000000979800000000979A000000000895A6
:100D50000F931F93182F062F62956F70DBDF000033
:100D60000000812F602FD6DF0000000080E094E2B9
:100D70000197F1F71F910F9108950F931F9380E052
:100D800063E0C8DF80E09CE30197F1F780E063E077
:100D9000C1DF00E01CE0C8010197F1F780E063E0EB
:100DA000B9DFC8010197F1F780E062E0B3DF80E0CE
:100DB00068E2CEDF80E06CE0CBDF80E061E0C8DF9E
:100DC00080E066E0C5DF80E062E0C2DF1F910F9146
:100DD0000895962F682F6295660F660F607C690FE5
:100DE000606880E0B5DF0895682F81E0B1DF089585
:100DF000CF93DF93EC0102C02196F6DF8881882330
:100E0000D9F7DF91CF91089580E061E0A1DF80E024
:100E100060E0DFDF08958FEC90E09093F80080931E
:100E2000F70008958F929F92AF92BF92CF92DF9278
:100E3000EF92FF920F931F93DF93CF9300D0CDB724
:100E4000DEB780E090E063E770E047EF50E046D522
:100E500035E7E32E30E0F32EB7018E010F5F1F4F11
:100E6000A8013CD55C0180E090E0B701A80136D52F
:100E70006C0180E090E0B701A80130D54C01C501BC
:100E8000E3D4E82EC601E0D4A82EC401DDD4FF24AB
:100E900000E010E08701FF24EE24BB24CC24DD24F5
:100EA000DC2CCB2CBA2CAA24EA0CFB1C0C1D1D1D1F
:100EB000E80EF11C011D111DB701C8010F900F9024
:100EC000CF91DF911F910F91FF90EF90DF90CF9026
:100ED000BF90AF909F908F90089580E090E063E77F
:100EE00070E047EF50E0FAD4AFD408954F925F928C
:100EF0006F927F928F929F92AF92BF92CF92DF922A
:100F0000EF92FF920F931F93DF93CF93CDB7DEB78E
:100F1000A1970FB6F894DEBF0FBECDBF8D3019F08C
:100F20008A3009F0EAC2E091F700F091F8008FEC06
:100F300090E0E817F90709F4FBC210829093F800DB
:100F40008093F7009093FA008093F900F9D41092FF
:100F5000CE0080E090E063E770E047EF50E0BED461
:100F60008C01DC018C91882309F4C0C2D8010D905A
:100F70000020E9F77D01E01AF10AC80167E870E096
:100F8000A7018FD4892B09F0FBC080E090E063E7D4
:100F900070E047EF50E0A2D4F82EE92EE82FF92FA9
:100FA000DF010D900020E9F78D010E1B1F0B6AED8C
:100FB00070E0A80176D4892B69F434DF9B01AC0181
:100FC000AA27BB27E32EF42E052F11276E2D422FC3
:100FD00083DC7FC28F2D9E2D64ED70E0A80161D46B
:100FE000892BD9F46091F7007091F80081E191E0CC
:100FF00049E050E064D48091F7009091F800FC0142
:1010000001900020E9F73197E81BF90B8E0F9F1F25
:101010009093F8008093F7005CC28F2D9E2D6FECAB
:1010200070E0A8013ED4892B09F045C080E090E033
:1010300063E770E047EF50E051D467E770E08E015E
:101040000F5F1F4FA8014AD47C0180E090E067E762
:1010500070E0A80143D46C0180E090E067E770E0A5
:10106000A8013CD44C01C701EFD3E82EC601ECD354
:10107000A82EC401E9D3FF2400E010E08701FF247B
:10108000EE24BB24CC24DD24DC2CCB2CBA2CAA24CB
:10109000EA0CFB1C0C1D1D1DE80EF11C011D111D91
:1010A000C801AA27BB275527412F302F2F2D622F8C
:1010B0004E2D2CDC0EC28F2D9E2D67EC70E0A8010A
:1010C000F0D3892B99F4AEDE609301017093020195
:1010D0008093030190930401A5DE60930501709352
:1010E00006018093070190930801F3C18F2D9E2D77
:1010F00061EC70E0A801D5D3892B99F4EEDE182FAE
:1011000091DE2B013C018EDE4B015C01E6DEE82E18
:10111000E4DEC82E812FB301A2019501840108DB12
:10112000D8C18F2D9E2D64EB70E0A801BAD3892B16
:1011300041F4D3DE182FD1DE8093FC001093FD0024
:10114000C8C18F2D9E2D63EA70E0A801AAD3892B18
:1011500039F4C3DE80930001C0DE8093FF00B9C183
:101160008F2D9E2D6CE970E0A8019BD3892B11F483
:10117000B4DEAFC181E08093CE008BE890E0A8C1DF
:10118000C80163E870E0A7018CD3892B09F08BC1FB
:1011900080E090E063E770E047EF50E09FD3F82EE7
:1011A000E92EE82FF92FDF010D900020E9F78D01DE
:1011B0000E1B1F0B6DE671E0A80173D3892B81F420
:1011C0006091700170917101809172019091730131
:1011D000AE01495F5F4F34DAA8D982E791E078C168
:1011E0008F2D9E2D67E671E0A8015BD3892B31F42A
:1011F00081E191E09AD985E791E06AC18F2D9E2D1A
:1012000062E671E0A8014DD3892B51F460916C0125
:1012100070916D0180916E0190916F0138DAEAC092
:101220008F2D9E2D6AE571E0A8013BD3892B01F536
:10123000609101017091020180910301909104017C
:101240008E01005F1F4FA801FBD9609105017091CD
:1012500006018091070190910801AE01475E5F4F42
:10126000EFD980E2888FC80160D988E791E030C16A
:101270008F2D9E2D60E571E0A80113D3892BE1F439
:10128000609101017091020180910301909104012C
:10129000209105013091060140910701509108010C
:1012A0008FD9882319F080E891E002C08EE791E0A1
:1012B00053D98BE791E00CC18F2D9E2D69E471E02D
:1012C000A801EFD2892B09F059C003E211E047E0F1
:1012D000E42EF12CEC0EFD1E8DE891E03DD9F801D5
:1012E0006081718182819381A701AAD91ED98BE87F
:1012F00091E032D9D80114966D917D918D919C9198
:101300001797A7019DD911D989E891E025D9F8014E
:1013100080858F77B70150D208D987E891E01CD932
:1013200090E0D80118968C9187FD91E0892FB70144
:1013300043D2FBD885E891E00FD9F801808587FD7D
:1013400002C080E00DC0D8016D917D918D919C917E
:10135000139714962D913D914D915C91179730D92B
:10136000B7012AD2E2D882E891E0F6D8075F1F4F92
:10137000B1E00B361B0709F0AFCFABC08F2D9E2D10
:1013800064E471E0A8018DD2892B51F48091820030
:10139000BE016D5F7F4F10D2C8D880E991E098C040
:1013A0008F2D9E2D67E371E0A8017BD2892B99F4E4
:1013B0008E010D5F1F4F8091FD00B801FDD1B5D8A2
:1013C00086E991E0C9D88091FC00B801F5D1ADD88B
:1013D00083E991E07DC08F2D9E2D6EE271E0A80122
:1013E00060D2892B59F480916B01BE016D5F7F4FF4
:1013F000E3D19BD889E790E098D86BC08F2D9E2DC4
:101400006DE171E0A8014DD2892B99F48E010D5F39
:101410001F4F80910001B801CFD187D88BE991E0AF
:101420009BD88091FF00B801C7D17FD888E991E0AF
:101430004FC08F2D9E2D65E171E0A80132D2892B1E
:1014400009F500E010E086EA91E086D8802FCED939
:101450008091830090E0002E02C0959587950A94B4
:10146000E2F780FF03C083EA91E002C080EA91E0E6
:1014700073D88DE991E070D80F5F1F4F05301105CB
:1014800011F727C08F2D9E2D6DE071E0A80109D2C4
:10149000892B19F480EF90E01BC081E08093CE008F
:1014A0008FED90E015C0C8016DE770E0A701F9D19C
:1014B000892B79F0C80166E770E0A701F2D1892B8A
:1014C00011F453DB06C081E08093CE0085E690E006
:1014D00043D88091CE00882319F080E690E002C0C6
:1014E0008DE590E039D88AE590E036D88FEC90E031
:1014F0009093F8008093F7001BC0883061F4E0916E
:10150000F700F091F80020E0EF3CF20721F018F02E
:101510001082319709C0E091F700F091F80090E057
:10152000E73FF90728F48193F093F800E093F70080
:10153000A1960FB6F894DEBF0FBECDBFCF91DF915D
:101540001F910F91FF90EF90DF90CF90BF90AF90E1
:101550009F908F907F906F905F904F900895CF9263
:10156000DF92EF92FF920F931F93DF93CF9300D000
:1015700000D0CDB7DEB710E07E010894E11CF11C6D
:1015800083E3C82E81E0D82E012F0F5F802FB70193
:1015900013D181E060E01DDC8CE790E029DCC7011D
:1015A00027DC812F74D188E893E1F6013197F1F7B8
:1015B0000197D9F7053011F0102FE6CF0F900F905B
:1015C0000F900F90CF91DF911F910F91FF90EF90AF
:1015D000DF90CF900895E82F50E040E820E030E021
:1015E00060E07CE0949A80B3949883FD542BCB0107
:1015F0000197F1F746952F5F3F4F2830310591F75E
:10160000EE2319F093988B9802C093988B9A80E000
:101610009CE0FC013197F1F7949AFC013197F1F7C6
:1016200094980197F1F793988B98852F0895939844
:101630008B98949A80E09CE0FC013197F1F79398A5
:101640008B9AFC013197F1F79498FC013197F1F7EF
:10165000949AFC013197F1F793988B98FC0131979C
:10166000F1F794980197F1F7089580E09CE00197D5
:10167000F1F793988B9880E0949A0000000094987A
:10168000000000008F5F8930B9F7D1DF0895782F0F
:1016900060E820E030E040E05CE0862F872319F02E
:1016A00093988B9802C093988B9ACA010197F1F78F
:1016B000949ACA010197F1F79498CA010197F1F73A
:1016C00093988B9866952F5F3F4F2830310529F707
:1016D000949A80B3949883FF03C087EC91E03CD741
:1016E000089580E098E70197F1F793988B988C9A8A
:1016F000949893988B98B9DF80E094E80197F1F77C
:10170000B4DF8EE1C4DF93DF86E0C1DF81E0BFDFBD
:101710000895FF920F931F93082F89DF802FB7DF63
:1017200020E03CE0C9010197F1F78399FBCF839B4F
:1017300003C089EA91E010D780E04DDFF82E80E009
:101740004ADF182F81E047DF0530E9F41C3668F4E2
:101750008FE8189F9001112482E02030380710F4A0
:1017600020E032E0205032400CC08FE6189F9001FC
:101770001124235B344F84E62130380710F020E039
:1017800034E6832F0FC0033011F080E00BC09F2D93
:1017900080E0212F30E0822B932B69E170E01AD199
:1017A000862F88521F910F91FF90089583E0B1DF3B
:1017B000089585E0AEDF08951F93482FFB0164E68E
:1017C000FDD0182F282F30E08CE99FEFB901689FDA
:1017D0009001699F300D789F300D1124C901840F4D
:1017E000911D6AE070E00AD1420F86EF9FEF689F7B
:1017F000802D1124840F112341F0105D1083605D52
:101800006183805D828313820AC0805D662329F034
:10181000605D60838183128202C080831182CF0168
:101820001F910895482FFB016AE0C8D0805D808336
:101830008053405D26EF3FEF829F802D1124840F5F
:1018400081831282CF010895FC0180E02AE005C067
:10185000829F802D1124890F3196908190539A3068
:10186000B8F3089590E080538A3008F491E0892F0E
:101870000895FC01808180538A3010F080E0089543
:10188000319680818823B1F781E0089508951F93F0
:10189000182FDCD780E2ECD7812FF9D7DDD71F9145
:1018A0000895FB01DC014150504030F08D910590CE
:1018B000801919F40020B9F7881B990B0895FB01D2
:1018C000DC014150504048F001900D920020C9F7D2
:1018D00001C01D9241505040E0F70895009731F447
:1018E000DA018D919C91009709F40EC0DC01FB0197
:1018F0003D912191222319F03217C9F3FACF3323F6
:1019000031F4DA011D921C928827992708951197C6
:10191000AF93BF93FB013D912191321771F43323B3
:1019200021F488279927119702C01E921196FA0177
:10193000A193B0839F918F910895222369F7EACFF5
:10194000DC016C9161566A3108F0605E6F5B6D93EB
:10195000C1F70895A0E0B0E0EFEAFCE072C07C01BE
:10196000EB018A01690109C0CE012196F6010995B2
:10197000F70181937F010150104001151105A1F776
:10198000CDB7DEB7E8E079C0A0E0B0E0E9ECFCE07C
:1019900058C0EC017B018A01690109C0CE01219682
:1019A000F70161917F01F601099501501040011581
:1019B0001105A1F7CDB7DEB7E8E05FC0991B79E06C
:1019C00004C0991F961708F0961B881F7A95C9F7CF
:1019D00080950895AA1BBB1B51E107C0AA1FBB1F1E
:1019E000A617B70710F0A61BB70B881F991F5A95AB
:1019F000A9F780959095BC01CD01089597FB092E1C
:101A000007260AD077FD04D0E5DF06D000201AF4BF
:101A1000709561957F4F0895F6F7909581959F4F4A
:101A20000895EE0FFF1F0590F491E02D09942F9279
:101A30003F924F925F926F927F928F929F92AF925E
:101A4000BF92CF92DF92EF92FF920F931F93CF93AB
:101A5000DF93CDB7DEB7CA1BDB0B0FB6F894DEBF42
:101A60000FBECDBF09942A88398848885F846E8468
:101A70007D848C849B84AA84B984C884DF80EE80B2
:101A8000FD800C811B81AA81B981CE0FD11D0FB6BB
:101A9000F894DEBF0FBECDBFED010895F894FFCFDF
:101AA000DF20005374617274696E67004E4F4E41BF
:101AB0004D450020003A002E000D0A00504F5354AF
:021AC000200004
:00000001FF
